:020000040000FA
:0600000000F0CDEF00F05E
:10000800FFFF7582D9CF06F0DACF07F09DAA0FEF70
:1000180000F012EF00F0FFFF60EF00F0FFFF9EAA74
:1000280018EF00F01BEF00F0FFFF60EF00F0FFFF9C
:10003800000E096E000E086EFFFFF2B226EF00F008
:1000480029EF00F0FFFF32EF00F0FFFF9EAA2FEF2D
:1000580000F032EF00F0FFFF20EF00F0FFFFD20EBC
:100068000824D96E000E0920DA6EAECFDFFFF2B297
:1000780040EF00F043EF00F0FFFF5AEF00F0FFFF02
:100088000850036E0950046E084A092AD20E032448
:10009800D96E000E0420DA6E0A0EDE18D8A457EFC7
:1000A80000F05AEF00F0FFFF20EF00F0FFFF9E9AEC
:1000B800010E746ED2C0CFF0FFFFF2A266EF00F01F
:1000C80069EF00F0FFFF79EF00F0FFFFF2A86FEF94
:1000D80000F072EF00F0FFFF79EF00F0FFFFF292FF
:1000E800FC0E0001D26F010E726EFFFFF0A07FEFD1
:1000F80000F082EF00F0FFFF8FEF00F0FFFFF0A6A7
:1001080088EF00F08BEF00F0FFFF8FEF00F0FFFFAC
:10011800F090010E736EFFFFF2AA95EF00F098EFD2
:1001280000F0FFFFAFEF00F0FFFFF2A49EEF00F03A
:10013800A1EF00F0FFFFAFEF00F0FFFFB20ED76EA8
:10014800040ED66ECDC001F00001CE5103EC1AF0BA
:10015800D58ECD80F294FFFF9DA0B5EF00F0B8EFEB
:1001680000F0FFFFC5EF00F0FFFF9EA0BEEF00F01C
:10017800C1EF00F0FFFFC5EF00F0FFFF8B94CD90BB
:100188009E90FFFF07C0DAFF06C0D9FF75921100E5
:10019800FFFFCCEF18F0FFFF0101006F000E010117
:1001A800026F000E016F005135EC12F06D50615C6A
:1001B8006250800A3D6E6E50800A3D58D8A0E7EF25
:1001C80000F0EBEF00F0FFFF010EEDEF00F0FFFF96
:1001D800000EFFFF716E69505F5C6050800A3D6ED3
:1001E8006A50800A3D58D8A0FCEF00F000EF01F0FB
:1001F800FFFF010E02EF01F0FFFF000EFFFF706E20
:1002080065505D5C5E50800A3D6E6650800A3D58C0
:10021800D8A011EF01F015EF01F0FFFF010E17EF65
:1002280001F0FFFF000EFFFF6F6E000E0101046F6B
:10023800000E036F27EF01F0FFFF715086EC15F0F9
:100248000101034B042BFFFF61506D5C3D6E625052
:100258006E583E6E3EBE3CEF01F03E5006E13D0456
:10026800D8B039EF01F03CEF01F0FFFF4DEF01F09E
:10027800FFFF61506D5C3D6E62506E583E6E3D1ED4
:100288003E1E3D4A3E2A3DC005F13EC006F154EFF0
:1002980001F0FFFF61506D5C056F62506E58066F8C
:1002A800FFFF0551035D0451800A3D6E0651800A27
:1002B8003D58D8B062EF01F065EF01F0FFFF6FEF36
:1002C80001F0FFFF7250D8B46CEF01F06FEF01F04E
:1002D800FFFF20EF01F0FFFF000E086F000E076F11
:1002E8007DEF01F0FFFF705006EC15F00101074BA0
:1002F800082BFFFF5F50695C3D6E60506A583E6E88
:100308003EBE92EF01F03E5006E13D04D8B08FEFBB
:1003180001F092EF01F0FFFFA3EF01F0FFFF5F5044
:10032800695C3D6E60506A583E6E3D1E3E1E3D4AF9
:100338003E2A3DC009F13EC00AF1AAEF01F0FFFFD5
:100348005F50695C096F60506A580A6FFFFF095176
:10035800075D0851800A3D6E0A51800A3D58D8B0A1
:10036800B8EF01F0BBEF01F0FFFFC5EF01F0FFFFB1
:100378007250D8B4C2EF01F0C5EF01F0FFFF76EF7D
:1003880001F0FFFF000E0C6F000E0B6FD3EF01F0B2
:10039800FFFF6F5083EC16F001010B4B0C2BFFFF96
:1003A80065505D5C3D6E66505E583E6E3EBEE8EF41
:1003B80001F03E5006E13D04D8B0E5EF01F0E8EF6A
:1003C80001F0FFFFF9EF01F0FFFF65505D5C3D6E46
:1003D80066505E583E6E3D1E3E1E3D4A3E2A3DC05A
:1003E8000DF13EC00EF100EF02F0FFFF65505D5CBD
:1003F8000D6F66505E580E6FFFFF0BC10AF00CC1FF
:100408000BF0000E0BBEFF0E0C6E0D6E010E00EC15
:100418000FF00AC031F00BC032F00CC033F00DC041
:1004280034F0660E1C6E660E1D6E660E1E6E400E55
:100438001F6E0DC10AF00EC10BF0000E0BBEFF0EB1
:100448000C6E0D6E010E00EC0FF00AC018F00BC018
:1004580019F00CC01AF00DC01BF0F3EC09F018C02D
:1004680035F019C036F01AC037F01BC038F06DEC03
:1004780013F0D8B042EF02F045EF02F0FFFF4FEF64
:1004880002F0FFFF7250D8B44CEF02F04FEF02F0C9
:10049800FFFFCCEF01F0FFFF010E13EC18F0FFFF98
:1004A8007350D8B45AEF02F05DEF02F0FFFF60EF2F
:1004B80002F0FFFF96EF02F0FFFF010102BF6EEFAF
:1004C80002F002510AE1030E015DD8A06EEF02F0BE
:1004D80071EF02F0FFFF84EF02F0FFFF7350D8A422
:1004E80078EF02F07BEF02F0FFFF84EF02F0FFFFEE
:1004F800AA0E0A6E7F0E0B6EF3EC16F096EF02F062
:10050800FFFFBF0E3E6E5D0E3D6E910EFFFFE82EA3
:10051800FDD73D2EFBD73E2EF9D70101014B022B0B
:1005280053EF02F0FFFF000E0B6E0A0E0A6E79EC15
:1005380018F0000E0101106F000E0F6FABEF02F004
:10054800FFFF010E86EC14F001010F4B102BFFFF8B
:1005580010BFBBEF02F0105107E1030E0F5DD8B0DA
:10056800B8EF02F0BBEF02F0FFFFC5EF02F0FFFFAC
:100578007250D8B4C2EF02F0C5EF02F0FFFFA4EF4B
:1005880002F0FFFF000E13EC18F0000E0101126FCD
:10059800000E116FD7EF02F0FFFF000E86EC14F08B
:1005A8000101114B122BFFFF12BFE7EF02F01251AE
:1005B80007E1030E115DD8B0E4EF02F0E7EF02F0B7
:1005C800FFFFF1EF02F0FFFF7250D8B4EEEF02F038
:1005D800F1EF02F0FFFFD0EF02F0FFFF6B506D5C10
:1005E8006E50800A3D6E6C50800A3D58D8A0FFEFCF
:1005F80002F003EF03F0FFFF010E05EF03F0FFFF2A
:10060800000EFFFF716E6750695C6A50800A3D6E8C
:100618006850800A3D58D8A014EF03F018EF03F093
:10062800FFFF010E1AEF03F0FFFF000EFFFF706ED1
:100638006350655C6650800A3D6E6450800A3D5880
:10064800D8A029EF03F02DEF03F0FFFF010E2FEFE5
:1006580003F0FFFF000EFFFF6F6E000E146F000E19
:10066800136F3EEF03F0FFFF715086EC15F00101A8
:10067800134B142BFFFF6D506B5C3D6E6E506C5826
:100688003E6E3EBE53EF03F03E5006E13D04D8B047
:1006980050EF03F053EF03F0FFFF64EF03F0FFFFA9
:1006A8006D506B5C3D6E6E506C583E6E3D1E3E1E2E
:1006B8003D4A3E2A3DC015F13EC016F16BEF03F0EE
:1006C800FFFF6D506B5C156F6E506C58166FFFFF17
:1006D8001551135D1451800A3D6E1651800A3D581C
:1006E800D8B079EF03F07CEF03F0FFFF86EF03F05B
:1006F800FFFF7250D8B483EF03F086EF03F0FFFFDB
:1007080037EF03F0FFFF000E186F000E176F94EF1E
:1007180003F0FFFF705006EC15F00101174B182B82
:10072800FFFF6950675C3D6E6A5068583E6E3EBE7A
:10073800A9EF03F03E5006E13D04D8B0A6EF03F060
:10074800A9EF03F0FFFFBAEF03F0FFFF6950675C02
:100758003D6E6A5068583E6E3D1E3E1E3D4A3E2A1A
:100768003DC019F13EC01AF1C1EF03F0FFFF695017
:10077800675C196F6A5068581A6FFFFF1951175D47
:100788001851800A3D6E1A51800A3D58D8B0CFEFF3
:1007980003F0D2EF03F0FFFFDCEF03F0FFFF72502E
:1007A800D8B4D9EF03F0DCEF03F0FFFF8DEF03F0CF
:1007B800FFFF000E1C6F000E1B6FEAEF03F0FFFF38
:1007C8006F5083EC16F001011B4B1C2BFFFF63508D
:1007D800655C3D6E645066583E6E3EBEFFEF03F0AA
:1007E8003E5006E13D04D8B0FCEF03F0FFEF03F004
:1007F800FFFF10EF04F0FFFF6350655C3D6E64502F
:1008080066583E6E3D1E3E1E3D4A3E2A3DC01DF1C5
:100818003EC01EF117EF04F0FFFF6350655C1D6FCB
:10082800645066581E6FFFFF1BC10AF01CC10BF015
:10083800000E0BBEFF0E0C6E0D6E010E00EC0FF0DD
:100848000AC031F00BC032F00CC033F00DC034F0E8
:10085800660E1C6E660E1D6E660E1E6E400E1F6EB8
:100868001DC10AF01EC10BF0000E0BBEFF0E0C6E70
:100878000D6E010E00EC0FF00AC018F00BC019F055
:100888000CC01AF00DC01BF0F3EC09F018C035F0DD
:1008980019C036F01AC037F01BC038F06DEC13F0F1
:1008A800D8B059EF04F05CEF04F0FFFF66EF04F0F6
:1008B800FFFF7250D8B463EF04F066EF04F0FFFF57
:1008C800E3EF03F0FFFF000E0101206F000E1F6F22
:1008D80075EF04F0FFFF010E86EC14F001011F4BC9
:1008E800202BFFFF20BF85EF04F0205107E1030E06
:1008F8001F5DD8B082EF04F085EF04F0FFFF8FEFA3
:1009080004F0FFFF7250D8B48CEF04F08FEF04F0BE
:10091800FFFF6EEF04F0FFFF010E13EC18F0000E5E
:100928000101226F000E216FA1EF04F0FFFF000EFE
:1009380086EC14F00101214B222BFFFF22BFB1EFFF
:1009480004F0225107E1030E215DD8B0AEEF04F0A8
:10095800B1EF04F0FFFFBBEF04F0FFFF7250D8B413
:10096800B8EF04F0BBEF04F0FFFF9AEF04F0FFFFCD
:10097800000E13EC18F063C05DF064C05EF06BC04D
:1009880061F06CC062F067C05FF068C060F0120090
:10099800FFFFFFFF0D50800B166E0D500D24186ED3
:1009A8000CAED9EF04F0DCEF04F0FFFFDEEF04F04B
:1009B800FFFF1880FFFF1850D8B4E5EF04F0E8EF08
:1009C80004F0FFFF01EF05F0FFFF1828D8A4EFEFB0
:1009D80004F0F2EF04F0FFFFFBEF04F0FFFF000E5E
:1009E8000A6E000E0B6E000E0C6E000E0D6EFFFFF1
:1009F8000C8E000E0D6E0AEF05F0FFFF000E0A6E5A
:100A0800000E0B6E000E0C6E000E0D6EFFFF1150E7
:100A1800800B176E16501718D8B415EF05F018EF9D
:100A280005F0FFFF1AEF05F0FFFF168CFFFF1150CE
:100A38001124176E10AE23EF05F026EF05F0FFFF27
:100A480028EF05F0FFFF1780FFFF1750D8B42FEFEE
:100A580005F032EF05F0FFFF4BEF05F0FFFF172819
:100A6800D8A439EF05F03CEF05F0FFFF45EF05F09E
:100A7800FFFF000E0E6E000E0F6E000E106E000EC1
:100A8800116EFFFF108E000E116E54EF05F0FFFF80
:100A9800000E0E6E000E0F6E000E106E000E116E20
:100AA800FFFF1850175CD8B05CEF05F05FEF05F05A
:100AB800FFFF8AEF05F0FFFF16AC65EF05F068EF62
:100AC80005F0FFFF6BEF05F0FFFF800E161AFFFF22
:100AD80018C019F017C018F019C017F00AC019F09B
:100AE8000EC00AF019C00EF00BC019F00FC00BF0C1
:100AF80019C00FF00CC019F010C00CF019C010F09C
:100B08000DC019F011C00DF019C011F0FFFF000E53
:100B1800196E185017C012F0136A125E000E135A9D
:100B280013BEA0EF05F013500AE11A0E125CD8A00C
:100B3800A0EF05F0A3EF05F0FFFFE6EF05F0FFFFDC
:100B48000A500B100C100D10D8A4ADEF05F0B1EF42
:100B580005F0FFFF010EB3EF05F0FFFF000EFFFFEA
:100B6800196E000E0A6E000E0B6E000E0C6E000E53
:100B78000D6E17C018F0F1EF05F0FFFF19A0C7EFD1
:100B880005F0CAEF05F0FFFFD1EF05F0FFFFD890A1
:100B980019300109196ED4EF05F0FFFFD89019320A
:100BA800FFFF0AA0DAEF05F0DDEF05F0FFFFDFEF4A
:100BB80005F0FFFF198EFFFF0D340D320C320B329A
:100BC8000A32182AFFFF1750185CD8A0EEEF05F07C
:100BD800F1EF05F0FFFFC1EF05F0FFFF16BCF7EFDF
:100BE80005F0FAEF05F0FFFF47EF06F0FFFF18509A
:100BF800D8A401EF06F004EF06F0FFFF0FEF06F0B0
:100C0800FFFF000E0A6E000E0B6E000E0C6E000E3B
:100C18000D6E9EEF07F0FFFF0E500A260F500B22B5
:100C280010500C2211500D220DA01DEF06F020EFE0
:100C380006F0FFFFEBEF06F0FFFF19A026EF06F026
:100C480029EF06F0FFFF30EF06F0FFFFD8901930CC
:100C58000109196E33EF06F0FFFFD8901932FFFF34
:100C68000AA039EF06F03CEF06F0FFFF3EEF06F072
:100C7800FFFF198EFFFF0D340D320C320B320A3292
:100C8800182AEBEF06F0FFFF0E500A5C0F500B58C6
:100C980010500C580D50800A126E1150800A1258CC
:100CA800D8B059EF06F05CEF06F0FFFF8AEF06F0C8
:100CB800FFFF0A500E5C126E0B500F58136E0C504B
:100CC8001058146E0D501158156EFF0E12240A6E2E
:100CD800FF0E13200B6EFF0E14200C6EFF0E152056
:100CE8000D6E800E161A196C1950D8A47EEF06F0F6
:100CF80081EF06F0FFFF93EF06F0FFFF010E0A26D3
:100D0800000E0B220C220D2293EF06F0FFFF0E506F
:100D18000A5E0F500B5A10500C5A11500D5AFFFF13
:100D28000A500B100C100D10D8A49DEF06F0A0EF80
:100D380006F0FFFFE2EF06F0FFFF1950D8A4A7EF77
:100D480006F0AAEF06F0FFFFE2EF06F0FFFF000E45
:100D58000A6E000E0B6E000E0C6E000E0D6E9EEFEE
:100D680007F0FFFFD8900A360B360C360D3619AE51
:100D7800C0EF06F0C3EF06F0FFFFC5EF06F0FFFF78
:100D88000A80FFFF19A0CBEF06F0CEEF06F0FFFFB9
:100D9800D3EF06F0FFFFD8801936D6EF06F0FFFF35
:100DA800D8901936FFFF1850D8B4DDEF06F0E0EF01
:100DB80006F0FFFFE2EF06F0FFFF1806FFFF0CAE9C
:100DC800E8EF06F0EBEF06F0FFFFB5EF06F0FFFFE8
:100DD800000E176E19AEF3EF06F0F6EF06F0FFFF00
:100DE80015EF07F0FFFF19C012F07F0E1216D8B4E6
:100DF80000EF07F003EF07F0FFFF09EF07F0FFFF31
:100E0800FFFF010E176E15EF07F0FFFF0AA00FEFA7
:100E180007F012EF07F0FFFF15EF07F0FFFF04EFF1
:100E280007F0FFFF1750D8B41CEF07F01FEF07F0CB
:100E3800FFFF4FEF07F0FFFF010E0A26000E0B22FF
:100E48000C220D220DA02BEF07F02EEF07F0FFFF6D
:100E58004FEF07F0FFFF0AC012F00BC013F00CC0F1
:100E680014F00DC015F01534153214321332123245
:100E780012C00AF013C00BF014C00CF015C00DF02E
:100E88001828D8B44AEF07F04DEF07F0FFFF4FEFEF
:100E980007F0FFFF182AFFFF1828D8B456EF07F00D
:100EA80059EF07F0FFFF63EF07F0FFFF1850D8A4D2
:100EB80060EF07F063EF07F0FFFF78EF07F0FFFF41
:100EC800000E0A6E000E0B6E000E0C6E000E0D6EFC
:100ED8001850D8A472EF07F075EF07F0FFFF78EF0E
:100EE80007F0FFFF000E166EFFFF18A07EEF07F059
:100EF80081EF07F0FFFF85EF07F0FFFF0C8E87EF0C
:100F080007F0FFFF0C9EFFFFD89018300D6E16AE4D
:100F180090EF07F093EF07F0FFFF95EF07F0FFFF63
:100F28000D8EFFFF0AC00AF00BC00BF00CC00CF0CE
:100F38000DC00DF0FFFF1200FFFFFFFF0D50800BEB
:100F4800166E0D500D241C6E0CAEADEF07F0B0EF11
:100F580007F0FFFFB2EF07F0FFFF1C80FFFF1C50F8
:100F6800D8B4B9EF07F0BCEF07F0FFFFD3EF07F0F5
:100F7800FFFF1C28D8A4C3EF07F0C6EF07F0FFFF58
:100F8800CFEF07F0FFFF000E0A6E000E0B6E000E8B
:100F98000C6E000E0D6EFFFF0C8EDCEF07F0FFFFEE
:100FA800000E0A6E000E0B6E000E0C6E000E0D6E1B
:100FB800FFFF1150800B161A115011241B6E10AE32
:100FC800E8EF07F0EBEF07F0FFFFEDEF07F0FFFFAB
:100FD8001B80FFFF1B50D8B4F4EF07F0F7EF07F0C2
:100FE800FFFF0EEF08F0FFFF1B28D8A4FEEF07F065
:100FF80001EF08F0FFFF0AEF08F0FFFF000E0E6E8A
:10100800000E0F6E000E106E000E116EFFFF108E98
:1010180017EF08F0FFFF000E0E6E000E0F6E000EA9
:10102800106E000E116EFFFF1B50D8B41EEF08F0B3
:1010380021EF08F0FFFF2BEF08F0FFFF1C50D8A4AA
:1010480028EF08F02BEF08F0FFFF36EF08F0FFFF5E
:10105800000E0A6E000E0B6E000E0C6E000E0D6E6A
:10106800F0EF09F0FFFF10500A02F3CF21F0F4CFA0
:1010780022F02150176E186A196A1A6A22501D6EDA
:101088001E6A1F6A206A0F500B02F3CF21F0F4CFBB
:1010980022F021501726000E182219221A22225057
:1010A8001D26000E1E221F2220220E500C02F3CFF6
:1010B80021F0F4CF22F021501726000E1822192211
:1010C8001A2222501D26000E1E221F22202219C07D
:1010D8001AF018C019F017C018F0176A0E500B0252
:1010E800F3CF21F0F4CF22F02150172622501822F6
:1010F800000E1922000E1A220F500A02F3CF21F017
:10110800F4CF22F02150172622501822000E19225F
:10111800000E1A2219C01AF018C019F017C018F0DA
:10112800176A0E500A02F3CF21F0F4CF22F02150B3
:10113800172622501822000E1922000E1A221050CB
:101148000B02F3CF21F0F4CF22F021501D262250BC
:101158001E22000E1F22000E20220F500C02F3CF79
:1011680021F0F4CF22F021501D2622501E22000E1D
:101178001F22000E202210500C02F3CF21F0F4CFD2
:1011880022F02150126E2250136E146A156A14C090
:1011980015F013C014F012C013F0126A12501D2675
:1011A80013501E2214501F221550202217C012F06F
:1011B80018C013F019C014F01AC015F0190EEBEF8F
:1011C80008F0FFFFD8901532143213321232FFFFA5
:1011D800E82EE5EF08F012501D2613501E22145079
:1011E8001F221550202219C01AF018C019F017C074
:1011F80018F0176A1B501CC012F0136A1226000E52
:101208001322820E1224216EFF0E1320226E26EF67
:1012180009F0FFFFD8901D361E361F3620361AAE4D
:1012280018EF09F01BEF09F0FFFF1DEF09F0FFFFB2
:101238001D80FFFFD8901736183619361A36210642
:10124800D8A02206FFFF1FAE2CEF09F02FEF09F000
:10125800FFFF0DEF09F0FFFF000E1B6E1AAE37EF10
:1012680009F03AEF09F0FFFF65EF09F0FFFFFF0E05
:101278001714126EFF0E1814136EFF0E1914146E45
:101288007F0E1A14156E1250131014101510D8B4BE
:1012980050EF09F053EF09F0FFFF59EF09F0FFFF96
:1012A800FFFF010E1B6E65EF09F0FFFF1DA05FEF4A
:1012B80009F062EF09F0FFFF65EF09F0FFFF54EF57
:1012C80009F0FFFF1B50D8B46CEF09F06FEF09F07D
:1012D800FFFF96EF09F0FFFF010E1D26000E1E22EC
:1012E8001F22202220A07BEF09F07EEF09F0FFFFEC
:1012F80096EF09F0FFFF1DC012F01EC013F01FC0CB
:1013080014F020C015F0153415321432133212328D
:1013180012C01DF013C01EF014C01FF015C020F03D
:10132800214A222AFFFF22BEA2EF09F0225009E13A
:101338002128D8A0A2EF09F0A5EF09F0FFFFB0EF30
:1013480009F0FFFF000E1D6E000E1E6E800E1F6E50
:101358007F0E206EE5EF09F0FFFF22BEBFEF09F018
:10136800225006E12104D8B0BCEF09F0BFEF09F024
:10137800FFFFCCEF09F0FFFF000E1D6E000E1E6E82
:10138800000E1F6E000E206E000E166EE5EF09F0BF
:10139800FFFF21C01CF0FF0E1D16FF0E1E167F0E4C
:1013A8001F16000E20161CA0DCEF09F0DFEF09F075
:1013B800FFFFE1EF09F0FFFF1F8EFFFFD8901C3001
:1013C800206EFFFF165020121DC00AF01EC00BF041
:1013D8001FC00CF020C00DF0FFFF1200FFFFFFFF41
:1013E8001B50800B286E1B501B242F6E1AAEFFEF6C
:1013F80009F002EF0AF0FFFF04EF0AF0FFFF2F8069
:10140800FFFF2F50D8B40BEF0AF00EEF0AF0FFFFE2
:1014180027EF0AF0FFFF2F28D8A415EF0AF018EFDE
:101428000AF0FFFF21EF0AF0FFFF000E186E000E12
:10143800196E000E1A6E000E1B6EFFFF1A8E000E3C
:101448001B6E30EF0AF0FFFF000E186E000E196ECB
:10145800000E1A6E000E1B6EFFFF1F50800B281A1D
:101468001F501F24306E1EAE3CEF0AF03FEF0AF00B
:10147800FFFF41EF0AF0FFFF3080FFFF3050D8B484
:1014880048EF0AF04BEF0AF0FFFF64EF0AF0FFFFA6
:101498003028D8A452EF0AF055EF0AF0FFFF5EEFAC
:1014A8000AF0FFFF000E1C6E000E1D6E000E1E6E71
:1014B800000E1F6EFFFF1E8E000E1F6E6DEF0AF0EE
:1014C800FFFF000E1C6E000E1D6E000E1E6E000E3D
:1014D8001F6EFFFF1C501D101E101F10D8A477EFA1
:1014E8000AF07AEF0AF0FFFF94EF0AF0FFFF000E10
:1014F800186E000E196E000E1A6E000E1B6E800E0E
:101508001A127F0E1B12FFFF28501B1218C018F06A
:1015180019C019F01AC01AF01BC01BF009EF0CF023
:10152800FFFF2F50D8A49BEF0AF09EEF0AF0FFFFB1
:10153800A9EF0AF0FFFF000E186E000E196E000EDC
:101548001A6E000E1B6E09EF0CF0FFFF30502FC013
:1015580020F0216A205E000E215A7F0E2024296E79
:10156800000E21202A6E18C024F019C025F01AC0D8
:1015780026F01BC027F0000E186E000E196E000E24
:101588001A6E000E1B6E000E2B6E000E2C6E000ED7
:101598002D6E000E2E6E000E306E15EF0BF0FFFF55
:1015A8003050D8B4DAEF0AF0DDEF0AF0FFFFF8EFB9
:1015B8000AF0FFFFD8902436253626362736D890ED
:1015C800183619361A361B362EAEEDEF0AF0F0EF44
:1015D8000AF0FFFFF2EF0AF0FFFF1880FFFFD89034
:1015E8002B362C362D362E36FFFF1C50245C1D5012
:1015F80025581E5026581F502758D8A006EF0BF024
:1016080009EF0BF0FFFF13EF0BF0FFFF2E8C1C50C0
:10161800245E1D50255A1E50265A1F50275AFFFF78
:10162800302AFFFF190E30641CEF0BF01FEF0BF090
:10163800FFFFD3EF0AF0FFFF2450251026102710D4
:10164800D8B429EF0BF02CEF0BF0FFFF49EF0BF0AC
:10165800FFFF2B8049EF0BF0FFFFD89018361936A3
:101668001A361B362EAE3BEF0BF03EEF0BF0FFFFAA
:1016780040EF0BF0FFFF1880FFFFD8902B362C3679
:101688002D362E362906D8A02A06FFFF1AAE4FEFB0
:101698000BF052EF0BF0FFFF30EF0BF0FFFF000EE7
:1016A800306E2EAE5AEF0BF05DEF0BF0FFFF88EFB8
:1016B8000BF0FFFFFF0E2B14206EFF0E2C14216E73
:1016C800FF0E2D14226E7F0E2E14236E2050211033
:1016D80022102310D8B473EF0BF076EF0BF0FFFF56
:1016E8007CEF0BF0FFFFFFFF010E306E88EF0BF071
:1016F800FFFF18A082EF0BF085EF0BF0FFFF88EFDC
:101708000BF0FFFF77EF0BF0FFFF3050D8B48FEFEF
:101718000BF092EF0BF0FFFFB9EF0BF0FFFF010E9C
:101728001826000E19221A221B221BA09EEF0BF06E
:10173800A1EF0BF0FFFFB9EF0BF0FFFF18C020F08F
:1017480019C021F01AC022F01BC023F02334233221
:1017580022322132203220C018F021C019F022C0D4
:101768001AF023C01BF0294A2A2AFFFF2ABEC5EF18
:101778000BF02A5009E12928D8A0C5EF0BF0C8EFD3
:101788000BF0FFFFD4EF0BF0FFFF000E2A6E296865
:10179800000E186E000E196E000E1A6E000E1B6EEB
:1017A800FFFF2ABEE3EF0BF02A5006E12904D8B068
:1017B800E0EF0BF0E3EF0BF0FFFFF2EF0BF0FFFFB2
:1017C800000E2A6E000E296E000E186E000E196E9D
:1017D800000E1A6E000E1B6E000E286EFFFF29C049
:1017E8002FF02FA0FAEF0BF0FDEF0BF0FFFF01EF4A
:1017F8000CF0FFFF1A8E03EF0CF0FFFF1A9EFFFF9D
:10180800D8902F301B6E87EF0AF0FFFF1200FFFF02
:10181800FFFF9EC04FF09FC050F0A0C051F0A1C084
:1018280052F03DC04FF03EC050F03FC051F040C0B4
:1018380052F04FC041F050C042F051C043F052C086
:1018480044F0180E2EEF0CF0FFFFD89044324332CC
:1018580042324132FFFFE82E28EF0CF04150496E2A
:101868004A6A4ABE41EF0CF04A500AE1960E495CBA
:10187800D8A041EF0CF044EF0CF0FFFF4FEF0CF055
:10188800FFFF3DC03DF03EC03EF03FC03FF040C0CE
:1018980040F0FCEF0DF0FFFF4FC041F050C042F0A8
:1018A80051C043F052C044F0200E61EF0CF0FFFF2E
:1018B800D8904432433242324132FFFFE82E5BEF88
:1018C8000CF04150421043104410D8B46EEF0CF0A5
:1018D80071EF0CF0FFFF84EF0CF0FFFF3DC00AF042
:1018E8003EC00BF03FC00CF040C00DF031EC19F0D9
:1018F8000AC03DF00BC03EF00CC03FF00DC040F0F8
:10190800FFFF4ABE94EF0CF04A5007E17E0E495C97
:10191800D8B091EF0CF094EF0CF0FFFFB1EF0CF0A2
:10192800FFFF4FC00AF050C00BF051C00CF052C07E
:101938000DF0000E0E6E000E0F6E000E106E000EF3
:10194800116EA1EC07F00AC03DF00BC03EF00CC0D0
:101958003FF00DC040F0FCEF0DF0FFFF000E0E6EE3
:10196800000E0F6E000E106E4B0E116E3DC00AF089
:101978003EC00BF03FC00CF040C00DF0CDEC04F0C1
:101988000AC04BF00BC04CF00CC04DF00DC04EF02F
:10199800000E0E6E000E0F6E000E106ECB0E116E46
:1019A8004BC00AF04CC00BF04DC00CF04EC00DF00F
:1019B800CDEC04F00AC045F00BC046F00CC047F06F
:1019C8000DC048F045C01AF046C01BF047C01CF0D7
:1019D80048C01DF03DC01EF03EC01FF03FC020F0C3
:1019E80040C021F0A7EC18F01AC053F01BC054F007
:1019F8001CC055F01DC056F0000E316E000E326E40
:101A0800000E336E3F0E346E53C035F054C036F0BE
:101A180055C037F056C038F06DEC13F0D8B017EF5A
:101A28000DF01AEF0DF0FFFF51EF0DF0FFFF3DC075
:101A38000EF03EC00FF03FC010F040C011F053C090
:101A48000AF054C00BF055C00CF056C00DF0CDECA8
:101A580004F00AC04BF00BC04CF00CC04DF00DC0A8
:101A68004EF04BC00AF04CC00BF04DC00CF04EC00D
:101A78000DF0000E0E6E000E0F6E800E106EBF0E73
:101A8800116ECDEC04F00AC053F00BC054F00CC03A
:101A980055F00DC056F0BEEF0DF0FFFF000E316E91
:101AA800000E326E000E336EBF0E346E53C035F02A
:101AB80054C036F055C037F056C038F06DEC13F00E
:101AC800D8A069EF0DF06CEF0DF0FFFFA3EF0DF05C
:101AD800FFFF3DC00EF03EC00FF03FC010F040C009
:101AE80011F053C00AF054C00BF055C00CF056C0AA
:101AF8000DF0CDEC04F00AC04BF00BC04CF00CC05C
:101B08004DF00DC04EF04BC00AF04CC00BF04DC06C
:101B18000CF04EC00DF0000E0E6E000E0F6E800E13
:101B2800106E3F0E116ECDEC04F00AC053F00BC0DE
:101B380054F00CC055F00DC056F0BEEF0DF0FFFF8D
:101B480053C00AF054C00BF055C00CF056C00DF04D
:101B58003DC00EF03EC00FF03FC010F040C011F085
:101B6800CDEC04F00AC053F00BC054F00CC055F093
:101B78000DC056F0FFFF4FC041F050C042F051C0B9
:101B880043F052C044F0200ED0EF0DF0FFFFD89084
:101B98004432433242324132FFFFE82ECAEF0DF0A1
:101BA8004150421043104410D8B4DDEF0DF0E0EF7F
:101BB8000DF0FFFFF3EF0DF0FFFF53C00AF054C024
:101BC8000BF055C00CF056C00DF031EC19F00AC0FE
:101BD80053F00BC054F00CC055F00DC056F0FFFF89
:101BE80053C03DF054C03EF055C03FF056C040F0E1
:101BF800FFFF1200FFFFFFFFC9C020F0CAC021F09D
:101C0800900E0A6E7F0E0B6EF3EC16F0DC0E0A6E69
:101C1800000E0B6EF3EC16F04C0E0A6E7E0E0B6E79
:101C2800F3EC16F0FFFF7450D8B41DEF0EF020EF60
:101C38000EF0FFFF16EF0EF0FFFFD2C020F0440EAB
:101C48002018D8A42AEF0EF02DEF0EF0FFFFDCEFDE
:101C58000EF0FFFF000E746E3D0E0A6E7F0E0B6EC7
:101C6800F3EC16F0FFFF7450D8B43DEF0EF040EFE0
:101C78000EF0FFFF36EF0EF0FFFFD20E116E000ED2
:101C8800126EFCEC0FF011C0AEF012C0AFF0000EF7
:101C9800746E590E0A6E7F0E0B6EF3EC16F0FFFF92
:101CA8007450D8B45AEF0EF05DEF0EF0FFFF53EF0B
:101CB8000EF0FFFFD20E116E000E126EFCEC0FF04C
:101CC80011C0ACF012C0ADF0000E746E200E0A6E9A
:101CD8007F0E0B6EF3EC16F0FFFF7450D8B477EF5D
:101CE8000EF07AEF0EF0FFFF70EF0EF0FFFFD20E4E
:101CF800116E000E126EFCEC0FF011C0AAF012C0AB
:101D0800ABF0000E746EE60E0A6E7E0E0B6EF3ECF0
:101D180016F0FFFF7450D8B494EF0EF097EF0EF062
:101D2800FFFF8DEF0EF0FFFFD20E116E000E126E48
:101D3800FCEC0FF011C0A8F012C0A9F0000E746EF0
:101D4800030E0A6E7F0E0B6EF3EC16F0FFFF745055
:101D5800D8B4B1EF0EF0B4EF0EF0FFFFAAEF0EF01B
:101D6800FFFFD20E116E000E126EFCEC0FF011C0C8
:101D7800A6F012C0A7F0000E746EC80E0A6E7E0E92
:101D88000B6EF3EC16F0FFFF7450D8B4CEEF0EF0E4
:101D9800D1EF0EF0FFFFC7EF0EF0FFFFD20E116E6E
:101DA800000E126EFCEC0FF011C0A4F012C0A5F0EA
:101DB800FFFF000E746E300E0001CF6FDC0E0E6E4A
:101DC800000E0F6E200E106E000E116E000E136EB8
:101DD800010E126E8FEC17F0C10E0A6E7F0E0B6E9D
:101DE800F3EC16F0200E0A6E000E0B6EF3EC16F0F4
:101DF800000E746E1200FFFFFFFF126E1250D8B46F
:101E080008EF0FF00BEF0FF0FFFF30EF0FF0FFFFC1
:101E18000DBE14EF0FF011EF0FF0FFFF30EF0FF0D2
:101E2800FFFF0AC00EF00BC00FF00CC010F00DC081
:101E380011F00E1E0F1E101E111E0E2A000E0F226C
:101E4800102211220EC014F00FC015F010C016F0A9
:101E580011C017F039EF0FF0FFFF0AC014F00BC0E4
:101E680015F00CC016F00DC017F0FFFF0A500B104C
:101E78000C100D10D8A443EF0FF046EF0FF0FFFF42
:101E880051EF0FF0FFFF000E0A6E000E0B6E000EF2
:101E98000C6E000E0D6EF9EF0FF0FFFF960E136E2D
:101EA8005DEF0FF0FFFF132AD89017321632153264
:101EB8001432FFFF000E14140E6E000E15140F6E70
:101EC800000E1614106EFE0E1714116E0E500F1021
:101ED80010101110D8A473EF0FF076EF0FF0FFFF7A
:101EE80056EF0FF0FFFF86EF0FF0FFFF132A010EEA
:101EF8001426000E152216221722D89017321632F1
:101F080015321432FFFF000E14140E6E000E151455
:101F18000F6E000E1614106EFF0E1714116E0E5071
:101F28000F1010101110D8A49CEF0FF09FEF0FF0B6
:101F3800FFFF79EF0FF0FFFFA9EF0FF0FFFF130688
:101F4800D8901436153616361736FFFF16BEAFEF83
:101F58000FF0B2EF0FF0FFFFBCEF0FF0FFFF020E24
:101F68001360B9EF0FF0BCEF0FF0FFFFA2EF0FF017
:101F7800FFFF13B0C2EF0FF0C5EF0FF0FFFFC7EF81
:101F88000FF0FFFF169EFFFFD890133213C00EF01C
:101F98000F6A106A116A0EC011F0106A0F6A0E6A91
:101FA8000E5014120F50151210501612115017120D
:101FB8001250D8B4E2EF0FF0E5EF0FF0FFFFF0EFAB
:101FC8000FF0FFFF0DBEEEEF0FF0EBEF0FF0FFFF8E
:101FD800F0EF0FF0FFFF178EFFFF14C00AF015C0D7
:101FE8000BF016C00CF017C00DF0FFFF1200FFFF3A
:101FF800FFFF000E1F6E000E1E6E000E186E000E04
:10200800176E0AEF10F0FFFF114A122AFFFF010EA8
:102018001D6E11C0D9FF12C0DAFF200EDE18D8B429
:1020280018EF10F01BEF10F0FFFF3AEF10F0FFFF72
:10203800F70E136EFF0E146E11C0D9FF12C0DAFF2F
:10204800DF50156E166A13501526145016221650B6
:102058000AE1050E155CD8A034EF10F037EF10F048
:10206800FFFF3AEF10F0FFFF000E1D6EFFFF1DC0CF
:1020780019F01A6A19501A10D8A445EF10F048EF51
:1020880010F0FFFF07EF10F0FFFF55EF10F0FFFF14
:10209800000E186E010E176EFFFF114A122A8DEFFF
:1020A80010F0FFFF11C0D9FF12C0DAFFDF50136E26
:1020B800146A1450000AD8B464EF10F08DEF10F0D1
:1020C800FFFF13502B0AD8B450EF10F0060AD8B40B
:1020D8004BEF10F08DEF10F0FFFF1EC00AF01FC08D
:1020E8000BF0000E0D6E0A0E0C6EA5EC19F011C067
:1020F800D9FF12C0DAFFDF50136E13500A5E000ECC
:102108000B5A300E0A241E6E000E0B201F6E50EF65
:1021180010F0FFFFD00E136EFF0E146E11C0D9FF22
:1021280012C0DAFFDF50156E166A135015261450C8
:10213800162216500BE10A0E155CD8A0A6EF10F077
:10214800AAEF10F0FFFF010EACEF10F0FFFF000E3A
:10215800FFFF1B6E1C6A1B501C10D8A4B6EF10F0B2
:10216800B9EF10F0FFFF70EF10F0FFFF17501810D5
:10217800D8A4C1EF10F0C4EF10F0FFFFD3EF10F0B8
:10218800FFFF1EC013F01FC014F0131E141E134AC5
:10219800142A13C011F014C012F0D8EF10F0FFFF8A
:1021A8001EC011F01FC012F0FFFF1200FFFFFFFF5B
:1021B800750E0A6E7D0E0B6EF3EC16F0FFFF745071
:1021C800D8B4E9EF10F0ECEF10F0FFFFE2EF10F0F9
:1021D800FFFF000E746E70EF11F0FFFFD50E0A6E50
:1021E8007F0E0B6EF3EC16F0DC0E0A6E000E0B6E13
:1021F800F3EC16F0A80E0A6E7E0E0B6EF3EC16F0DA
:1022080098EC11F043EF11F0FFFF000E436E000E43
:10221800426E000E626E000E616E000E606E000E61
:102228005F6E000E5E6E000E5D6EFFFFDC0E4224D8
:10223800D96E000E4320DA6EDF50CFEC00F07250FA
:10224800D8A429EF11F02CEF11F0FFFF43EF11F0A4
:10225800FFFF42503F6E4350406E424A432ADC0E15
:102268003F24D96E000E4020DA6E0A0EDE18D8A47C
:1022780040EF11F043EF11F0FFFF19EF11F0FFFFEE
:102288007450D8A44AEF11F04DEF11F0FFFF94EF0E
:1022980011F0FFFF7250D8B454EF11F057EF11F05E
:1022A800FFFF08EF11F0FFFF95EF11F0FFFF43EC80
:1022B80017F095EF11F0FFFFFFEC0DF095EF11F01F
:1022C800FFFF01EC14F095EF11F0FFFF000E746EA4
:1022D800000E726E95EF11F0FFFF0001CF513F6EB7
:1022E800406A4050000AD8B47CEF11F095EF11F025
:1022F800FFFF3F50310AD8B4F1EF10F0030AD8B409
:102308005AEF11F0010AD8B45FEF11F0070AD8B4F8
:1023180064EF11F0650AD8B469EF11F095EF11F088
:10232800FFFFFFFF1200FFFFFFFF000E746E000E9D
:10233800726EB6C0B8F0B7C0B9F0000E136E000EDA
:10234800126EADEF11F0FFFF000E86EC15F0124A89
:10235800132AFFFF0001B851125C1350800A116E56
:10236800B951800A1158D8A0BCEF11F0BFEF11F095
:10237800FFFFA7EF11F0FFFFB4C0B8F0B5C0B9F088
:10238800000E156E000E146ED0EF11F0FFFF000E58
:1023980006EC15F0144A152AFFFF0001B851145C29
:1023A8001550800A116EB951800A1158D8A0DFEF74
:1023B80011F0E2EF11F0FFFFCAEF11F0FFFFB0C01C
:1023C800B8F0B1C0B9F0000E176E000E166EF3EF3C
:1023D80011F0FFFF000E83EC16F0164A172AFFFFD4
:1023E8000001B851165C1750800A116EB951800A65
:1023F8001158D8A002EF12F005EF12F0FFFFEDEF31
:1024080011F0FFFFB2C0B8F0B3C0B9F0000E196EFA
:10241800000E186E16EF12F0FFFF000E86EC14F097
:10242800184A192AFFFF0001B851185C1950800A90
:10243800116EB951800A1158D8B025EF12F028EF63
:1024480012F0FFFF32EF12F0FFFF7250D8B42FEFF7
:1024580012F032EF12F0FFFF10EF12F0FFFF120040
:10246800FFFFFFFF0A6E410E0A18D8A43EEF12F0D4
:1024780041EF12F0FFFF5CEF12F0FFFF000E6E6EEF
:10248800030E6D6E000E6A6E040E696E000E666EA7
:10249800000E656E000E6C6E110E6B6E000E686E8F
:1024A800050E676E010E646E0E0E636ECEEF12F0AF
:1024B800FFFF420E0A18D8A464EF12F067EF12F07B
:1024C800FFFF82EF12F0FFFF000E6E6E030E6D6EBF
:1024D800000E6A6E0A0E696E000E666E5A0E656E02
:1024E800000E6C6E0A0E6B6E000E686E050E676E3F
:1024F800000E646EB40E636ECEEF12F0FFFF430E53
:102508000A18D8A48AEF12F08DEF12F0FFFFA8EF97
:1025180012F0FFFF000E6E6E030E6D6E000E6A6EF7
:102528000F0E696E000E666E5A0E656E000E6C6EAA
:10253800100E6B6E000E686E0E0E676E010E646EE6
:102548000E0E636ECEEF12F0FFFF440E0A18D8A4E9
:10255800B0EF12F0B3EF12F0FFFFCEEF12F0FFFF73
:10256800AEC06DF0AFC06EF0ACC069F0ADC06AF03F
:10257800AAC065F0ABC066F0A8C06BF0A9C06CF04B
:10258800A6C067F0A7C068F0A4C063F0A5C064F057
:10259800CEEF12F0FFFF1200FFFFFFFF59345A344D
:1025A8005C6E5C50D8A4DBEF12F0DEEF12F0FFFF98
:1025B800EAEF12F0FFFFFFFF000E576E000E586E95
:1025C800000E596E000E5A6E6AEF13F0FFFF57C0E7
:1025D800E0F058C0E1F059C0E2F05AC0E3F0200E34
:1025E800FDEF12F0FFFF0001D890E333E233E1334F
:1025F800E033FFFFE82EF6EF12F0E0515B6E598EE4
:10260800FF0E5716FF0E5816FF0E5916000E5A16D3
:10261800960E5C5E5CBE16EF13F013EF13F0FFFF2F
:1026280030EF13F0FFFF5C50800A970FD8B01FEF10
:1026380013F022EF13F0FFFF25EF13F0FFFFDFEF9A
:1026480012F0FFFFD8905A325932583257325C3E56
:1026580025EF13F04EEF13F0FFFF1F0E5C6437EF0A
:1026680013F03AEF13F0FFFF44EF13F0FFFFDFEF33
:1026780012F0FFFFD8905736583659365A365C064E
:10268800FFFF5C50D8A44BEF13F04EEF13F0FFFFA1
:102698003DEF13F0FFFF5B50D8B455EF13F058EF40
:1026A80013F0FFFF61EF13F0FFFF5A1E591E581E6B
:1026B800576C000E582259225A22FFFF57C057F074
:1026C80058C058F059C059F05AC05AF0FFFF1200CC
:1026D800FFFFFFFF000E3114396E000E32143A6E00
:1026E800800E33143B6E7F0E34143C6E39503A1012
:1026F8003B103C10D8A483EF13F086EF13F0FFFFD4
:102708008FEF13F0FFFF000E316E000E326E000ED9
:10271800336E000E346EFFFF000E3514396E000E56
:1027280036143A6E800E37143B6E7F0E38143C6EAA
:1027380039503A103B103C10D8A4A5EF13F0A8EF7D
:1027480013F0FFFFB1EF13F0FFFF000E356E000E20
:10275800366E000E376E000E386EFFFF34AEB7EFE0
:1027680013F0BAEF13F0FFFFC4EF13F0FFFF316C63
:10277800321ED8B0322A331ED8B0332A800E3456CF
:10278800FFFF38AECAEF13F0CDEF13F0FFFFD7EF1E
:1027980013F0FFFF356C361ED8B0362A371ED8B076
:1027A800372A800E3856FFFF000E311A000E321AF3
:1027B800000E331A800E341A000E351A000E361A1F
:1027C800000E371A800E381A3550315C36503258A0
:1027D8003750335838503458D8B0F5EF13F0F8EF75
:1027E80013F0FFFFFCEF13F0FFFFD890FEEF13F09C
:1027F800FFFFD880FFFF1200FFFFFFFF0D0E0A6EDC
:102808007E0E0B6EF3EC16F0DC0E0A6E000E0B6EED
:10281800F3EC16F0FFFF7450D8B415EF14F018EF6E
:1028280014F0FFFF0EEF14F0FFFF000E746ED2C01D
:102838001EF0DC0E186E000E196E1EC01AF01B6A10
:1028480072EC19F018C01CF019C01DF0510E1E18BA
:10285800D8A431EF14F034EF14F0FFFF37EF14F081
:10286800FFFF81EF14F0FFFF1C501D10D8B43FEF9D
:1028780014F042EF14F0FFFF6DEF14F0FFFFDC0ED1
:102888001C5C1F6E000E1D58206EDC0E1F240E6E81
:10289800000E20200F6EDD0E1F24106E000E20206B
:1028A800116EDC0E0A6E000E0B6EEFEC18F01F5066
:1028B8000A5C126E20500B58136E06EC16F0E90EE7
:1028C8000A6E7F0E0B6EF3EC16F0000E726E81EF3F
:1028D80014F0FFFFC70E0A6E7D0E0B6EF3EC16F0B8
:1028E800FFFF7450D8B47BEF14F07EEF14F0FFFFB5
:1028F80074EF14F0FFFF0EEF14F0FFFF000E746E7C
:102908001200FFFFFFFF106E7450D8A48EEF14F072
:1029180091EF14F0FFFF00EF15F0FFFF1050D8A45F
:1029280098EF14F09BEF14F0FFFFC8EF14F0FFFFCF
:10293800030E836E000E0B6E010E0A6E79EC18F012
:10294800060E836E000E0B6E010E0A6E79EC18F0FF
:102958000C0E836E000E0B6E010E0A6E79EC18F0E9
:10296800090E836E000E0B6E010E0A6E79EC18F0DC
:10297800030E836E000E0B6E050E0A6E79EC18F0CE
:102988000001B207D8A0B307FFFF1004D8A4CFEF07
:1029980014F0D2EF14F0FFFF03EF15F0FFFF090E5C
:1029A800836E000E0B6E010E0A6E79EC18F00C0E99
:1029B800836E000E0B6E010E0A6E79EC18F0060E8F
:1029C800836E000E0B6E010E0A6E79EC18F0030E82
:1029D800836E000E0B6E010E0A6E79EC18F0090E6C
:1029E800836E000E0B6E050E0A6E79EC18F000016E
:1029F800B24BB32B03EF15F0FFFF010E726EFFFF12
:102A08001200FFFFFFFF106E7450D8A40EEF15F0F0
:102A180011EF15F0FFFF80EF15F0FFFF1050D8A45D
:102A280018EF15F01BEF15F0FFFF48EF15F0FFFF4B
:102A3800300E816E000E0B6E010E0A6E79EC18F0E6
:102A4800600E816E000E0B6E010E0A6E79EC18F0A6
:102A5800C00E816E000E0B6E010E0A6E79EC18F036
:102A6800900E816E000E0B6E010E0A6E79EC18F056
:102A7800300E816E000E0B6E010E0A6E79EC18F0A6
:102A88000001B407D8A0B507FFFF1004D8A44FEF82
:102A980015F052EF15F0FFFF83EF15F0FFFF900ED2
:102AA800816E000E0B6E010E0A6E79EC18F0C00EE6
:102AB800816E000E0B6E010E0A6E79EC18F0600E36
:102AC800816E000E0B6E010E0A6E79EC18F0300E56
:102AD800816E000E0B6E010E0A6E79EC18F0900EE6
:102AE800816E000E0B6E010E0A6E79EC18F0000173
:102AF800B44BB52B83EF15F0FFFF010E726EFFFF8D
:102B08001200FFFFFFFF106E7450D8A48EEF15F06F
:102B180091EF15F0FFFF00EF16F0FFFF1050D8A45B
:102B280098EF15F09BEF15F0FFFFC8EF15F0FFFFCA
:102B3800030E806E000E0B6E010E0A6E79EC18F013
:102B4800060E806E000E0B6E010E0A6E79EC18F000
:102B58000C0E806E000E0B6E010E0A6E79EC18F0EA
:102B6800090E806E000E0B6E010E0A6E79EC18F0DD
:102B7800030E806E000E0B6E010E0A6E79EC18F0D3
:102B88000001B607D8A0B707FFFF1004D8A4CFEFFD
:102B980015F0D2EF15F0FFFF03EF16F0FFFF090E57
:102BA800806E000E0B6E010E0A6E79EC18F00C0E9A
:102BB800806E000E0B6E010E0A6E79EC18F0060E90
:102BC800806E000E0B6E010E0A6E79EC18F0030E83
:102BD800806E000E0B6E010E0A6E79EC18F0090E6D
:102BE800806E000E0B6E010E0A6E79EC18F0000173
:102BF800B64BB72B03EF16F0FFFF010E726EFFFF07
:102C08001200FFFFFFFF10C018F011C019F00EC02E
:102C180016F00FC017F01650185C17501958D8B096
:102C280018EF16F01BEF16F0FFFF58EF16F0FFFF36
:102C380012501824146E13501920156E1450165C77
:102C480015501758D8B02BEF16F02EEF16F0FFFFDF
:102C580058EF16F0FFFF1250182613501922125081
:102C6800162613501722FFFF1806D8A0190618C0F9
:102C7800D9FF19C0DAFF1606D8A0170616C0E1FF5B
:102C880017C0E2FFDFCFE7FF1206D8A013061250E5
:102C98001310D8A452EF16F055EF16F0FFFF37EFD8
:102CA80016F0FFFF80EF16F0FFFF12501310D8B494
:102CB80060EF16F063EF16F0FFFF80EF16F0FFFFEE
:102CC800FFFF18C0D9FF19C0DAFF16C0E1FF17C00F
:102CD800E2FFDFCFE7FF184A192A164A172A120619
:102CE800D8A0130612501310D8A47DEF16F080EF69
:102CF80016F0FFFF64EF16F0FFFF1200FFFFFFFF63
:102D0800106E7450D8A48BEF16F08EEF16F0FFFFFC
:102D1800EDEF16F0FFFF1050D8A495EF16F098EFDE
:102D280016F0FFFFBDEF16F0FFFF300E836E000EAA
:102D38000B6E010E0A6E79EC18F0C00E836E000E51
:102D48000B6E010E0A6E79EC18F0900E836E000E71
:102D58000B6E010E0A6E79EC18F0300E836E000EC1
:102D68000B6E010E0A6E79EC18F00001B007D8A0BE
:102D7800B107FFFF1004D8A4C4EF16F0C7EF16F090
:102D8800FFFFF0EF16F0FFFF900E836E000E0B6E44
:102D9800010E0A6E79EC18F0600E836E000E0B6E51
:102DA800010E0A6E79EC18F0300E836E000E0B6E71
:102DB800010E0A6E79EC18F0900E836E000E0B6E01
:102DC800010E0A6E79EC18F00001B04BB12BF0EF50
:102DD80016F0FFFF010E726EFFFF1200FFFFFFFFEC
:102DE800000E0F6E000E0E6E1FEF17F0FFFF0E5055
:102DF8000A240C6E0F500B200D6E0CC0F6FF0DC090
:102E0800F7FFF86A050EF76404D00800FFFFF550D5
:102E180005D0F6CFE1FFF7CFE2FFE750AD6EFFFF39
:102E2800ACA219EF17F01CEF17F0FFFF13EF17F024
:102E3800FFFF0E4A0F2AFFFF0E500A240C6E0F5098
:102E48000B200D6E0CC0F6FF0DC0F7FFF86A050EDB
:102E5800F76404D00800FFFFF55005D0F6CFE1FF76
:102E6800F7CFE2FFE7500009D8A43DEF17F040EF95
:102E780017F0FFFFFAEF16F0FFFF1200FFFFFFFF4A
:102E8800750E0A6E7F0E0B6EF3EC16F0DC0E0A6EF2
:102E9800000E0B6EF3EC16F0800E0A6E7E0E0B6EB3
:102EA800F3EC16F0000E146E000E136EFFFF745054
:102EB800D8B461EF17F064EF17F0FFFF5AEF17F07F
:102EC800FFFFFFFFD20E1324D96E000E1420DA6E16
:102ED800DC0E1324E16E000E1420E26EDFCFE7FF54
:102EE8001350106E1450116E134A142AD20E102467
:102EF800D96E000E1120DA6E0A0EDE18D8A487EFFC
:102F080017F08AEF17F0FFFF65EF17F0FFFF000ECD
:102F1800746E1200FFFFFFFF0EC00AF00FC00BF027
:102F2800EFEC18F00A500E260B500F22AEEF17F0F8
:102F3800FFFF1206D8A0130610C0D9FF11C0DAFF90
:102F48000EC0E1FF0FC0E2FFDFCFE7FF104A112AF2
:102F58000E4A0F2AFFFF12501310D8B4B6EF17F01D
:102F6800B9EF17F0FFFFC7EF17F0FFFF10C0D9FF49
:102F780011C0DAFFDF50D8A4C4EF17F0C7EF17F07D
:102F8800FFFF9CEF17F0FFFF0EC0D9FF0FC0DAFF5D
:102F9800000EDF6E0E4A0F2A1200FFFFFFFF0EC061
:102FA80016F00FC017F010C010F0116AFCEF17F000
:102FB800FFFF12501624D96E13501720DA6EDF5017
:102FC800146E156A1050141807E111501518D8A47A
:102FD800F0EF17F0F3EF17F0FFFFFCEF17F0FFFF2C
:102FE800125016240E6E135017200F6E10EF18F0A3
:102FF800FFFF1206D8A01306122806E11328D8A44A
:1030080008EF18F00BEF18F0FFFFDCEF17F0FFFFE9
:10301800000E0E6E000E0F6EFFFF1200FFFFFFFF87
:103028000A6E7450D8A41BEF18F01EEF18F0FFFFBB
:1030380043EF18F0FFFF0A04D8A425EF18F028EF93
:1030480018F0FFFF2EEF18F0FFFFF90E0001CE6F0A
:10305800530ECD6FFFFF0A50D8A435EF18F038EFA4
:1030680018F0FFFF3EEF18F0FFFFFA0E0001CE6FD9
:103078004D0ECD6FFFFF8B84CD8046EF18F0FFFF1C
:10308800010E726EFFFF1200FFFFFFFF010E106EB0
:10309800200E0A180B10D8B454EF18F057EF18F098
:1030A800FFFF73EF18F0FFFFF70E0C6EFF0E0D6EAB
:1030B8000AC00EF00BC00FF00C500E260D500F2258
:1030C8000F500AE1050E0E5CD8A06DEF18F070EFF6
:1030D80018F0FFFF73EF18F0FFFF000E106EFFFFF0
:1030E80010C00AF00B6A1200FFFFFFFF000E0D6E02
:1030F800000E0C6E83EF18F0FFFF0C4A0D2AFFFF3D
:103108000A500C5C0B500D58D8A08DEF18F090EFBA
:1031180018F0FFFF80EF18F0FFFF000E0F6E000E93
:103128000E6EFFFF0E4A0F2A720E0E5C060E0F5827
:10313800D8A0A1EF18F0A4EF18F0FFFF95EF18F052
:10314800FFFF1200FFFFFFFF000E1E1A000E1F1ADE
:10315800000E201A800E211A1AC00AF01BC00BF0AC
:103168001CC00CF01DC00DF01EC00EF01FC00FF0EB
:1031780020C010F021C011F0CDEC04F00AC01AF004
:103188000BC01BF00CC01CF00DC01DF01200FFFF9F
:10319800E60EF66E330EF76E000EF86E00EEC1F016
:1031A80010EE1FF00900F5CFEEFFE550E150FAE10F
:1031B80000EE80F0410EEE6AE806FDE100EE5DF0FB
:1031C800170EEE6AE806FDE175907592000EF86E2E
:1031D80000018FEF19F0FFFF0AC00CF00BC00DF0D3
:1031E800F9EF18F0FFFF0A4A0B2AFFFF0AC0D9FFC0
:1031F8000BC0DAFFDF50D8A404EF19F007EF19F07D
:10320800FFFFF6EF18F0FFFF0C500A5C0A6E0D5036
:103218000B580B6E1200FFFFFFFFD00E0C6EFF0E57
:103228000D6E0AC00EF00BC00FF00C500E260D509C
:103238000F220F500BE10A0E0E5CD8A026EF19F0F2
:103248002AEF19F0FFFF010E2CEF19F0FFFF000E17
:10325800FFFF0A6E0B6A1200FFFFFFFF0A500B10F8
:103268000C100D10D8B43BEF19F03EEF19F0FFFF2A
:1032780047EF19F0FFFF000E0A1A000E0B1A000E96
:103288000C1A800E0D1AFFFF0AC00AF00BC00BF0D3
:103298000CC00CF00DC00DF01200FFFFFFFF550E23
:1032A8003D6E550E3E6EC80E3F6E410E406E0CECE4
:1032B8000CF03DC057F03EC058F03FC059F040C038
:1032C8005AF0D1EC12F05750AF6EAC9CAC8AAC9867
:1032D800AC84AB8EAB9CAB881200FFFFFFFF18C01D
:1032E8000EF019C00FF01AC010F01BC011F018C072
:1032F8000AF019C00BF0EFEC18F0010E0A24126E58
:10330800000E0B20136ED2EC17F00EC018F00FC091
:1033180019F01200FFFFFFFFCFEC19F052EC19F083
:10332800E3EC19F0BAEC19F0F28ED58ECD808B84CF
:10333800FFFF000E746EDBEC10F09CEF19F0CDEF80
:1033480000F0FFFF0A500C02F3CF0EF0F4CF0FF09D
:103358000A500D02F3500F260B500C02F3500F26A3
:103368000EC00AF00FC00BF01200FFFFFFFFD59C44
:10337800D59AD586D59EB20ED76E040ED66ECD8E52
:10338800CD9ACD98CD96CD92CD90FA0ECF6E4D0EAA
:10339800CE6E1200FFFFFFFF000E956E000E926EBC
:1033A800030E936E000E806E000E836E000E8B6E01
:1033B800000E826E948E949C94941200FFFFFFFF7F
:1033C8009E9A9D8AF28C9D80F28A000EF16E000E04
:1033D800F06EF292F288F090F0861200FFFFBD378F
:1033E8008634BD37863420001E004DFA304DFA2051
:0D33F8000000000000000000004341420002
:10340600FFFF026E02C0CFFF01C0CEFF8B84CD80CE
:063416001200FFFFFFFFA2
:107D6000000000004B000016460000164600247478
:107D70004A0024744A0A0A312E2053746172742016
:107D800053657175656E63650A322E204368616EB6
:107D900067652073657175656E63650A332E2041D2
:107DA0006464206E657720636F6D706F6E656E74AE
:107DB0000A342E2052656D6F7665206120636F6DE9
:107DC000706F6E656E74000A636F6D706F6E656EB6
:107DD00074206973206E6F7420696E20746865204A
:107DE00073657175656E63652E20547279207365B5
:107DF0006C656374696E6720616E6F74686572206C
:107E0000636F6D706F6E656E743A200A000A576872
:107E100069636820636F6D706F6E656E7420776F35
:107E2000756C6420796F75206C696B6520746F20A8
:107E300072656D6F76652066726F6D20746865205F
:107E40002073657175656E63653F0A000A456E743F
:107E500065722074686520636F6D706F6E656E74F7
:107E600020796F752077616E7420746F206164646F
:107E70003A20412C20422C2043206F7220443F00A6
:107E80000A506C6561736520676976652074686562
:107E9000206E65772073657175656E63652061730B
:107EA00020696E7075740D000A456E746572202726
:107EB000512720746F206578697420746F204D41BC
:107EC000494E204D454E55000A456E74657220742A
:107ED000686520706C616365206F7269656E74619E
:107EE00074696F6E3A000A456E7465722074686535
:107EF00020706C61636520706F736974696F6E20A8
:107F0000583A000A456E7465722074686520706C7A
:107F100061636520706F736974696F6E20593A00F0
:107F20000A456E74657220746865207069636B2001
:107F30006F7269656E746174696F6E3A000A456E9E
:107F400074657220746865207069636B20706F734C
:107F50006974696F6E20583A000A456E7465722024
:107F6000746865207069636B20706F736974696FE2
:107F70006E20593A000A5468652063757272656E06
:107F8000742073657175656E63652069733A2000AE
:107F90000A5468652043757272656E74207365714A
:107FA00075656E63652069733A000A436F6D706F83
:107FB0006E656E74206973206D697373696E6721D5
:107FC000000A0A436F6D706F6E656E7420416464C1
:107FD00065643A20000A5374617274696E67207395
:107FE000657175656E63653A000A636F6D706F6EDB
:0F7FF000656E742072656D6F76656400510000D8
:020000040020DA
:08000000FFFFFFFFFFFFFFFF00
:020000040030CA
:0E000000FF210D0EFF0080FF0FC00FE00F402C
:00000001FF
