:020000040000FA
:0600000000F043EF00F0E8
:10000800FFFF7782D9CF04F0DACF05F0000E076E34
:10001800000E066EFFFF9EAA14EF00F017EF00F027
:10002800FFFF0EEF00F0FFFFDF0E0624D96E000E73
:100038000720DA6EAECFDFFF0650016E0750026E62
:10004800064A072ADF0E0124D96E000E0220DA6E56
:100058000A0EDE18D8A433EF00F036EF00F0FFFFE9
:100068000EEF00F0FFFF9E9A010E746EDFC076F06F
:1000780005C0DAFF04C0D9FF77921100FFFFFBEF3C
:1000880016F0FFFF0001B46F0001B4518BEC10F0C3
:100098006D50615C6250800A3B6E6E50800A3B581E
:1000A800D8A059EF00F05DEF00F0FFFF010E5FEF01
:1000B80000F0FFFF000EFFFF726E69505F5C60503A
:1000C800800A3B6E6A50800A3B58D8A06EEF00F059
:1000D80072EF00F0FFFF010E74EF00F0FFFF000E5B
:1000E800FFFF716E65505D5C5E50800A3B6E665026
:1000F800800A3B58D8A083EF00F087EF00F0FFFF9D
:10010800010E89EF00F0FFFF000EFFFF706E000E7A
:100118000001B66F000EB56F99EF00F0FFFF725047
:10012800D2EC14F00001B54BB62BFFFF61506D5CAB
:100138003B6E62506E583C6E3CBEAEEF00F03C50D9
:1001480006E13B04D8B0ABEF00F0AEEF00F0FFFFE4
:10015800BFEF00F0FFFF61506D5C3B6E62506E5860
:100168003C6E3B1E3C1E3B4A3C2A3BC0B7F03CC0A1
:10017800B8F0C6EF00F0FFFF61506D5CB76F6250DA
:100188006E58B86FFFFFB751B55DB651800A3B6E28
:10019800B851800A3B58D8B0D4EF00F0D7EF00F040
:1001A800FFFFE1EF00F0FFFF7350D8B4DEEF00F07F
:1001B800E1EF00F0FFFF92EF00F0FFFF000EBA6FD3
:1001C800000EB96FEFEF00F0FFFF715059EC14F01B
:1001D8000001B94BBA2BFFFF5F50695C3B6E605062
:1001E8006A583C6E3CBE04EF01F03C5006E13B040B
:1001F800D8B001EF01F004EF01F0FFFF15EF01F0B7
:10020800FFFF5F50695C3B6E60506A583C6E3B1E56
:100218003C1E3B4A3C2A3BC0BBF03CC0BCF01CEF38
:1002280001F0FFFF5F50695CBB6F60506A58BC6F9C
:10023800FFFFBB51B95DBA51800A3B6EBC51800AC1
:100248003B58D8B02AEF01F02DEF01F0FFFF37EF50
:1002580001F0FFFF7350D8B434EF01F037EF01F02D
:10026800FFFFE8EF00F0FFFF000EBE6F000EBD6F4E
:1002780045EF01F0FFFF70504BEC15F00001BD4B4E
:10028800BE2BFFFF65505D5C3B6E66505E583C6E52
:100298003CBE5AEF01F03C5006E13B04D8B057EFA2
:1002A80001F05AEF01F0FFFF6BEF01F0FFFF65501F
:1002B8005D5C3B6E66505E583C6E3B1E3C1E3B4A86
:1002C8003C2A3BC0BFF03CC0C0F072EF01F0FFFF1A
:1002D80065505D5CBF6F66505E58C06FFFFFBDC064
:1002E80008F0BEC009F0000E09BEFF0E0A6E0B6EC4
:1002F800010E0AEC0EF008C02FF009C030F00AC059
:1003080031F00BC032F0660E1A6E660E1B6E660E6A
:100318001C6E400E1D6EBFC008F0C0C009F0000E74
:1003280009BEFF0E0A6E0B6E010E0AEC0EF008C035
:1003380016F009C017F00AC018F00BC019F0EBEC62
:1003480008F016C033F017C034F018C035F019C0E3
:1003580036F0C3EC11F0D8B0B4EF01F0B7EF01F00C
:10036800FFFFC1EF01F0FFFF7350D8B4BEEF01F0FB
:10037800C1EF01F0FFFF3EEF01F0FFFF000E0001AB
:10038800CE6F000ECD6FFFFFFC0EE0EC13F0000106
:10039800CD4BCE2BCEBFDAEF01F0CE510AE1030EE2
:1003A800CD5DD8A0DAEF01F0DDEF01F0FFFFC7EF78
:1003B80001F0FFFF000ED06F000ECF6FFFFFD0BF20
:1003C800EFEF01F0D0510AE1030ECF5DD8A0EFEFB7
:1003D80001F0F2EF01F0FFFFF5EF01F0FFFFFEEF94
:1003E80001F0FFFFFA0EE0EC13F00001CF4BD02B29
:1003F800E2EF01F0FFFF6B506D5C6E50800A3B6EC0
:100408006C50800A3B58D8A00CEF02F010EF02F0B5
:10041800FFFF010E12EF02F0FFFF000EFFFF726EEA
:100428006750695C6A50800A3B6E6850800A3B5886
:10043800D8A021EF02F025EF02F0FFFF010E27EF11
:1004480002F0FFFF000EFFFF716E6350655C66509F
:10045800800A3B6E6450800A3B58D8A036EF02F001
:100468003AEF02F0FFFF010E3CEF02F0FFFF000E33
:10047800FFFF706E000EC26F000EC16F4BEF02F0EF
:10048800FFFF7250D2EC14F00001C14BC22BFFFFEA
:1004980061506B5C3B6E62506C583C6E3CBE60EFCA
:1004A80002F03C5006E13B04D8B05DEF02F060EF8B
:1004B80002F0FFFF71EF02F0FFFF61506B5C3B6ED3
:1004C80062506C583C6E3B1E3C1E3B4A3C2A3BC06B
:1004D800C3F03CC0C4F078EF02F0FFFF61506B5CE2
:1004E800C36F62506C58C46FFFFFC351C15DC251E6
:1004F800800A3B6EC451800A3B58D8B086EF02F0A0
:1005080089EF02F0FFFF93EF02F0FFFF7350D8B4BA
:1005180090EF02F093EF02F0FFFF44EF02F0FFFFCD
:10052800000EC66F000EC56FA1EF02F0FFFF7150FD
:1005380059EC14F00001C54BC62BFFFF5F50675CF8
:100548003B6E605068583C6E3CBEB6EF02F03C50C3
:1005580006E13B04D8B0B3EF02F0B6EF02F0FFFFBC
:10056800C7EF02F0FFFF5F50675C3B6E6050685852
:100578003C6E3B1E3C1E3B4A3C2A3BC0C7F03CC07D
:10058800C8F0CEEF02F0FFFF5F50675CC76F6050A6
:100598006858C86FFFFFC751C55DC651800A3B6EDA
:1005A800C851800A3B58D8B0DCEF02F0DFEF02F008
:1005B800FFFFE9EF02F0FFFF7350D8B4E6EF02F057
:1005C800E9EF02F0FFFF9AEF02F0FFFF000ECA6F9B
:1005D800000EC96FF7EF02F0FFFF70504BEC15F0FB
:1005E8000001C94BCA2BFFFF6350655C3B6E64502A
:1005F80066583C6E3CBE0CEF03F03C5006E13B04F1
:10060800D8B009EF03F00CEF03F0FFFF1DEF03F084
:10061800FFFF6350655C3B6E645066583C6E3B1E42
:100628003C1E3B4A3C2A3BC0CBF03CC0CCF024EFFC
:1006380003F0FFFF6350655CCB6F64506658CC6F66
:10064800FFFFC9C008F0CAC009F0000E09BEFF0EBE
:100658000A6E0B6E010E0AEC0EF008C02FF009C0EE
:1006680030F00AC031F00BC032F0660E1A6E660E1A
:100678001B6E660E1C6E400E1D6ECBC008F0CCC003
:1006880009F0000E09BEFF0E0A6E0B6E010E0AEC91
:100698000EF008C016F009C017F00AC018F00BC019
:1006A80019F0EBEC08F016C033F017C034F018C09E
:1006B80035F019C036F0C3EC11F0D8B066EF03F08E
:1006C80069EF03F0FFFF73EF03F0FFFF7350D8B437
:1006D80070EF03F073EF03F0FFFFF0EF02F0FFFF9E
:1006E800000E0001D26F000ED16FFFFFD2BF86EF60
:1006F80003F0D2510AE1030ED15DD8A086EF03F0D2
:1007080089EF03F0FFFF8CEF03F0FFFF95EF03F095
:10071800FFFFFC0EE0EC13F00001D14BD22B79EF78
:1007280003F0FFFF000ED46F000ED36FFFFFD4BF9E
:10073800A7EF03F0D4510AE1030ED35DD8A0A7EFC9
:1007480003F0AAEF03F0FFFFADEF03F0FFFFB6EFF2
:1007580003F0FFFFFA0EE0EC13F00001D34BD42BAB
:100768009AEF03F0FFFF63C05DF064C05EF06BC0FA
:1007780061F06CC062F067C05FF068C060F01200A2
:10078800FFFFFFFF0B50800B146E0B500B24166EEF
:100798000AAED1EF03F0D4EF03F0FFFFD6EF03F07A
:1007A800FFFF1680FFFF1650D8B4DDEF03F0E0EF2F
:1007B80003F0FFFFF9EF03F0FFFF1628D8A4E7EFD7
:1007C80003F0EAEF03F0FFFFF3EF03F0FFFF000E83
:1007D800086E000E096E000E0A6E000E0B6EFFFF0B
:1007E8000A8E000E0B6E02EF04F0FFFF000E086E7B
:1007F800000E096E000E0A6E000E0B6EFFFF0F5002
:10080800800B156E14501518D8B40DEF04F010EFC6
:1008180004F0FFFF12EF04F0FFFF148CFFFF0F50EE
:100828000F24156E0EAE1BEF04F01EEF04F0FFFF51
:1008380020EF04F0FFFF1580FFFF1550D8B427EF15
:1008480004F02AEF04F0FFFF43EF04F0FFFF152840
:10085800D8A431EF04F034EF04F0FFFF3DEF04F0CB
:10086800FFFF000E0C6E000E0D6E000E0E6E000ED9
:100878000F6EFFFF0E8E000E0F6E4CEF04F0FFFFA1
:10088800000E0C6E000E0D6E000E0E6E000E0F6E3A
:10089800FFFF1650155CD8B054EF04F057EF04F082
:1008A800FFFF82EF04F0FFFF14AC5DEF04F060EF90
:1008B80004F0FFFF63EF04F0FFFF800E141AFFFF40
:1008C80016C017F015C016F017C015F008C017F0BD
:1008D8000CC008F017C00CF009C017F00DC009F0E3
:1008E80017C00DF00AC017F00EC00AF017C00EF0BE
:1008F8000BC017F00FC00BF017C00FF0FFFF000E72
:10090800176E165015C010F0116A105E000E115ABD
:1009180011BE98EF04F011500AE11A0E105CD8A02D
:1009280098EF04F09BEF04F0FFFFDEEF04F0FFFF09
:10093800085009100A100B10D8A4A5EF04F0A9EF6D
:1009480004F0FFFF010EABEF04F0FFFF000EFFFF06
:10095800176E000E086E000E096E000E0A6E000E6D
:100968000B6E15C016F0E9EF04F0FFFF17A0BFEFFC
:1009780004F0C2EF04F0FFFFC9EF04F0FFFFD890C6
:1009880017300109176ECCEF04F0FFFFD89017322B
:10099800FFFF08A0D2EF04F0D5EF04F0FFFFD7EF78
:1009A80004F0FFFF178EFFFF0B340B320A320932B7
:1009B8000832162AFFFF1550165CD8A0E6EF04F09F
:1009C800E9EF04F0FFFFB9EF04F0FFFF14BCEFEF0D
:1009D80004F0F2EF04F0FFFF3FEF05F0FFFF1650C1
:1009E800D8A4F9EF04F0FCEF04F0FFFF07EF05F0DF
:1009F800FFFF000E086E000E096E000E0A6E000E54
:100A08000B6E96EF06F0FFFF0C5008260D500922DA
:100A18000E500A220F500B220BA015EF05F018EF0D
:100A280005F0FFFFE3EF05F0FFFF17A01EEF05F04D
:100A380021EF05F0FFFF28EF05F0FFFFD8901730F2
:100A48000109176E2BEF05F0FFFFD8901732FFFF53
:100A580008A031EF05F034EF05F0FFFF36EF05F0A1
:100A6800FFFF178EFFFF0B340B320A3209320832B0
:100A7800162AE3EF05F0FFFF0C50085C0D500958EB
:100A88000E500A580B50800A106E0F50800A1058EA
:100A9800D8B051EF05F054EF05F0FFFF82EF05F0F5
:100AA800FFFF08500C5C106E09500D58116E0A506B
:100AB8000E58126E0B500F58136EFF0E1024086E4E
:100AC800FF0E1120096EFF0E12200A6EFF0E132072
:100AD8000B6E800E141A176C1750D8A476EF05F019
:100AE80079EF05F0FFFF8BEF05F0FFFF010E0826F9
:100AF800000E09220A220B228BEF05F0FFFF0C5093
:100B0800085E0D50095A0E500A5A0F500B5AFFFF33
:100B1800085009100A100B10D8A495EF05F098EFAB
:100B280005F0FFFFDAEF05F0FFFF1750D8A49FEF9D
:100B380005F0A2EF05F0FFFFDAEF05F0FFFF000E6A
:100B4800086E000E096E000E0A6E000E0B6E96EF10
:100B580006F0FFFFD890083609360A360B3617AE6E
:100B6800B8EF05F0BBEF05F0FFFFBDEF05F0FFFFA5
:100B78000880FFFF17A0C3EF05F0C6EF05F0FFFFE1
:100B8800CBEF05F0FFFFD8801736CEEF05F0FFFF5B
:100B9800D8901736FFFF1650D8B4D5EF05F0D8EF28
:100BA80005F0FFFFDAEF05F0FFFF1606FFFF0AAEBC
:100BB800E0EF05F0E3EF05F0FFFFADEF05F0FFFF15
:100BC800000E156E17AEEBEF05F0EEEF05F0FFFF28
:100BD8000DEF06F0FFFF17C010F07F0E1016D8B407
:100BE800F8EF05F0FBEF05F0FFFF01EF06F0FFFF60
:100BF800FFFF010E156E0DEF06F0FFFF08A007EFCF
:100C080006F00AEF06F0FFFF0DEF06F0FFFFFCEF1E
:100C180005F0FFFF1550D8B414EF06F017EF06F0F3
:100C2800FFFF47EF06F0FFFF010E0826000E09221E
:100C38000A220B220BA023EF06F026EF06F0FFFF97
:100C480047EF06F0FFFF08C010F009C011F00AC016
:100C580012F00BC013F01334133212321132103267
:100C680010C008F011C009F012C00AF013C00BF050
:100C78001628D8B442EF06F045EF06F0FFFF47EF1D
:100C880006F0FFFF162AFFFF1628D8B44EEF06F02D
:100C980051EF06F0FFFF5BEF06F0FFFF1650D8A4F8
:100CA80058EF06F05BEF06F0FFFF70EF06F0FFFF6E
:100CB800000E086E000E096E000E0A6E000E0B6E16
:100CC8001650D8A46AEF06F06DEF06F0FFFF70EF3C
:100CD80006F0FFFF000E146EFFFF16A076EF06F079
:100CE80079EF06F0FFFF7DEF06F0FFFF0A8E7FEF3A
:100CF80006F0FFFF0A9EFFFFD89016300B6E14AE69
:100D080088EF06F08BEF06F0FFFF8DEF06F0FFFF90
:100D18000B8EFFFF08C008F009C009F00AC00AF0EE
:100D28000BC00BF0FFFF1200FFFFFFFF0B50800B03
:100D3800146E0B500B241A6E0AAEA5EF06F0A8EF3E
:100D480006F0FFFFAAEF06F0FFFF1A80FFFF1A5018
:100D5800D8B4B1EF06F0B4EF06F0FFFFCBEF06F022
:100D6800FFFF1A28D8A4BBEF06F0BEEF06F0FFFF7E
:100D7800C7EF06F0FFFF000E086E000E096E000EAA
:100D88000A6E000E0B6EFFFF0A8ED4EF06F0FFFF0F
:100D9800000E086E000E096E000E0A6E000E0B6E35
:100DA800FFFF0F50800B141A0F500F24196E0EAE50
:100DB800E0EF06F0E3EF06F0FFFFE5EF06F0FFFFD8
:100DC8001980FFFF1950D8B4ECEF06F0EFEF06F0EA
:100DD800FFFF06EF07F0FFFF1928D8A4F6EF06F08B
:100DE800F9EF06F0FFFF02EF07F0FFFF000E0C6EB1
:100DF800000E0D6E000E0E6E000E0F6EFFFF0E8EB3
:100E08000FEF07F0FFFF000E0C6E000E0D6E000EC8
:100E18000E6E000E0F6EFFFF1950D8B416EF07F0D4
:100E280019EF07F0FFFF23EF07F0FFFF1A50D8A4D0
:100E380020EF07F023EF07F0FFFF2EEF07F0FFFF8B
:100E4800000E086E000E096E000E0A6E000E0B6E84
:100E5800E8EF08F0FFFF0E500802F3CF1FF0F4CFC1
:100E680020F01F50156E166A176A186A20501B6EFC
:100E78001C6A1D6A1E6A0D500902F3CF1FF0F4CFD9
:100E880020F01F501526000E162217221822205077
:100E98001B26000E1C221D221E220C500A02F3CF14
:100EA8001FF0F4CF20F01F501526000E162217222F
:100EB800182220501B26000E1C221D221E2217C09D
:100EC80018F016C017F015C016F0156A0C50090274
:100ED800F3CF1FF0F4CF20F01F5015262050162214
:100EE800000E1722000E18220D500802F3CF1FF033
:100EF800F4CF20F01F50152620501622000E17227E
:100F0800000E182217C018F016C017F015C016F0FA
:100F1800156A0C500802F3CF1FF0F4CF20F01F50D1
:100F2800152620501622000E1722000E18220E50E9
:100F38000902F3CF1FF0F4CF20F01F501B262050DA
:100F48001C22000E1D22000E1E220D500A02F3CF95
:100F58001FF0F4CF20F01F501B2620501C22000E3B
:100F68001D22000E1E220E500A02F3CF1FF0F4CFEE
:100F780020F01F50106E2050116E126A136A12C0B2
:100F880013F011C012F010C011F0106A10501B2697
:100F980011501C2212501D2213501E2215C010F091
:100FA80016C011F017C012F018C013F0190EE3EFB5
:100FB80007F0FFFFD8901332123211321032FFFFC0
:100FC800E82EDDEF07F010501B2611501C2212509E
:100FD8001D2213501E2217C018F016C017F015C096
:100FE80016F0156A19501AC010F0116A1026000E72
:100FF8001122820E10241F6EFF0E1120206E1EEF8C
:1010080008F0FFFFD8901B361C361D361E3618AE6A
:1010180010EF08F013EF08F0FFFF15EF08F0FFFFDF
:101028001B80FFFFD89015361636173618361F0660
:10103800D8A02006FFFF1DAE24EF08F027EF08F028
:10104800FFFF05EF08F0FFFF000E196E18AE2FEF37
:1010580008F032EF08F0FFFF5DEF08F0FFFFFF0E2A
:101068001514106EFF0E1614116EFF0E1714126E63
:101078007F0E1814136E1050111012101310D8B4DC
:1010880048EF08F04BEF08F0FFFF51EF08F0FFFFC3
:10109800FFFF010E196E5DEF08F0FFFF1BA057EF71
:1010A80008F05AEF08F0FFFF5DEF08F0FFFF4CEF84
:1010B80008F0FFFF1950D8B464EF08F067EF08F0A4
:1010C800FFFF8EEF08F0FFFF010E1B26000E1C220B
:1010D8001D221E221EA073EF08F076EF08F0FFFF16
:1010E8008EEF08F0FFFF1BC010F01CC011F01DC0F0
:1010F80012F01EC013F013341332123211321032B0
:1011080010C01BF011C01CF012C01DF013C01EF05F
:101118001F4A202AFFFF20BE9AEF08F0205009E15D
:101128001F28D8A09AEF08F09DEF08F0FFFFA8EF5E
:1011380008F0FFFF000E1B6E000E1C6E800E1D6E69
:101148007F0E1E6EDDEF08F0FFFF20BEB7EF08F040
:10115800205006E11F04D8B0B4EF08F0B7EF08F04C
:10116800FFFFC4EF08F0FFFF000E1B6E000E1C6EA1
:10117800000E1D6E000E1E6E000E146EDDEF08F0E0
:10118800FFFF1FC01AF0FF0E1B16FF0E1C167F0E66
:101198001D16000E1E161AA0D4EF08F0D7EF08F09F
:1011A800FFFFD9EF08F0FFFF1D8EFFFFD8901A3020
:1011B8001E6EFFFF14501E121BC008F01CC009F061
:1011C8001DC00AF01EC00BF0FFFF1200FFFFFFFF5B
:1011D8001950800B266E195019242D6E18AEF7EF92
:1011E80008F0FAEF08F0FFFFFCEF08F0FFFF2D8092
:1011F800FFFF2D50D8B403EF09F006EF09F0FFFF09
:101208001FEF09F0FFFF2D28D8A40DEF09F010EF0C
:1012180009F0FFFF19EF09F0FFFF000E166E000E30
:10122800176E000E186E000E196EFFFF188E000E56
:10123800196E28EF09F0FFFF000E166E000E176EEC
:10124800000E186E000E196EFFFF1D50800B261A37
:101258001D501D242E6E1CAE34EF09F037EF09F037
:10126800FFFF39EF09F0FFFF2E80FFFF2E50D8B4A3
:1012780040EF09F043EF09F0FFFF5CEF09F0FFFFD3
:101288002E28D8A44AEF09F04DEF09F0FFFF56EFDA
:1012980009F0FFFF000E1A6E000E1B6E000E1C6E8A
:1012A800000E1D6EFFFF1C8E000E1D6E65EF09F00F
:1012B800FFFF000E1A6E000E1B6E000E1C6E000E55
:1012C8001D6EFFFF1A501B101C101D10D8A46FEFC5
:1012D80009F072EF09F0FFFF8CEF09F0FFFF000E35
:1012E800166E000E176E000E186E000E196E800E28
:1012F80018127F0E1912FFFF2650191216C016F089
:1013080017C017F018C018F019C019F001EF0BF04A
:10131800FFFF2D50D8A493EF09F096EF09F0FFFFD7
:10132800A1EF09F0FFFF000E166E000E176E000EFB
:10133800186E000E196E01EF0BF0FFFF2E502DC036
:101348001EF01F6A1E5E000E1F5A7F0E1E24276E97
:10135800000E1F20286E16C022F017C023F018C0F8
:1013680024F019C025F0000E166E000E176E000E40
:10137800186E000E196E000E296E000E2A6E000EF1
:101388002B6E000E2C6E000E2E6E0DEF0AF0FFFF76
:101398002E50D8B4D2EF09F0D5EF09F0FFFFF0EFE7
:1013A80009F0FFFFD8902236233624362536D89008
:1013B80016361736183619362CAEE5EF09F0E8EF71
:1013C80009F0FFFFEAEF09F0FFFF1680FFFFD89052
:1013D80029362A362B362C36FFFF1A50225C1B5032
:1013E80023581C5024581D502558D8A0FEEF09F04A
:1013F80001EF0AF0FFFF0BEF0AF0FFFF2C8C1A50E9
:10140800225E1B50235A1C50245A1D50255AFFFF98
:101418002E2AFFFF190E2E6414EF0AF017EF0AF0B8
:10142800FFFFCBEF09F0FFFF2250231024102510F7
:10143800D8B421EF0AF024EF0AF0FFFF41EF0AF0D9
:10144800FFFF298041EF0AF0FFFFD89016361736C4
:10145800183619362CAE33EF0AF036EF0AF0FFFFD4
:1014680038EF0AF0FFFF1680FFFFD89029362A369A
:101478002B362C362706D8A02806FFFF18AE47EFD4
:101488000AF04AEF0AF0FFFF28EF0AF0FFFF000E0C
:101498002E6E2CAE52EF0AF055EF0AF0FFFF80EFE8
:1014A8000AF0FFFFFF0E29141E6EFF0E2A141F6E8E
:1014B800FF0E2B14206E7F0E2C14216E1E501F1051
:1014C80020102110D8B46BEF0AF06EEF0AF0FFFF7E
:1014D80074EF0AF0FFFFFFFF010E2E6E80EF0AF097
:1014E800FFFF16A07AEF0AF07DEF0AF0FFFF80EF0A
:1014F8000AF0FFFF6FEF0AF0FFFF2E50D8B487EF16
:101508000AF08AEF0AF0FFFFB1EF0AF0FFFF010EC1
:101518001626000E17221822192219A096EF0AF093
:1015280099EF0AF0FFFFB1EF0AF0FFFF16C01EF0B7
:1015380017C01FF018C020F019C021F02134213243
:1015480020321F321E321EC016F01FC017F020C0F6
:1015580018F021C019F0274A282AFFFF28BEBDEF3E
:101568000AF0285009E12728D8A0BDEF0AF0C0EFFB
:101578000AF0FFFFCCEF0AF0FFFF000E286E276885
:10158800000E166E000E176E000E186E000E196E05
:10159800FFFF28BEDBEF0AF0285006E12704D8B089
:1015A800D8EF0AF0DBEF0AF0FFFFEAEF0AF0FFFFDF
:1015B800000E286E000E276E000E166E000E176EB7
:1015C800000E186E000E196E000E266EFFFF27C063
:1015D8002DF02DA0F2EF0AF0F5EF0AF0FFFFF9EF7A
:1015E8000AF0FFFF188EFBEF0AF0FFFF189EFFFFBF
:1015F800D8902D30196E7FEF09F0FFFF1200FFFF22
:10160800FFFF9EC04DF09FC04EF0A0C04FF0A1C09C
:1016180050F03BC04DF03CC04EF03DC04FF03EC0D6
:1016280050F04DC03FF04EC040F04FC041F050C0A8
:1016380042F0180E26EF0BF0FFFFD89042324132ED
:1016480040323F32FFFFE82E20EF0BF03F50476E4D
:10165800486A48BE39EF0BF048500AE1960E475CDD
:10166800D8A039EF0BF03CEF0BF0FFFF47EF0BF082
:10167800FFFF3BC03BF03CC03CF03DC03DF03EC0EE
:101688003EF0F4EF0CF0FFFF4DC03FF04EC040F0CD
:101698004FC041F050C042F0200E59EF0BF0FFFF51
:1016A800D8904232413240323F32FFFFE82E53EFAA
:1016B8000BF03F50401041104210D8B466EF0BF0C9
:1016C80069EF0BF0FFFF7CEF0BF0FFFF3BC008F06A
:1016D8003CC009F03DC00AF03EC00BF0BFEC17F06B
:1016E80008C03BF009C03CF00AC03DF00BC03EF01A
:1016F800FFFF48BE8CEF0BF0485007E17E0E475CB9
:10170800D8B089EF0BF08CEF0BF0FFFFA9EF0BF0CF
:10171800FFFF4DC008F04EC009F04FC00AF050C09E
:101728000BF0000E0C6E000E0D6E000E0E6E000E0D
:101738000F6E99EC06F008C03BF009C03CF00AC0F7
:101748003DF00BC03EF0F4EF0CF0FFFF000E0C6E06
:10175800000E0D6E000E0E6E4B0E0F6E3BC008F0A5
:101768003CC009F03DC00AF03EC00BF0C5EC03F0E8
:1017780008C049F009C04AF00AC04BF00BC04CF051
:10178800000E0C6E000E0D6E000E0E6ECB0E0F6E60
:1017980049C008F04AC009F04BC00AF04CC00BF031
:1017A800C5EC03F008C043F009C044F00AC045F096
:1017B8000BC046F043C018F044C019F045C01AF0F9
:1017C80046C01BF03BC01CF03CC01DF03DC01EF0E5
:1017D8003EC01FF058EC17F018C051F019C052F075
:1017E8001AC053F01BC054F0000E2F6E000E306E5E
:1017F800000E316E3F0E326E51C033F052C034F0DD
:1018080053C035F054C036F0C3EC11F0D8B00FEF28
:101818000CF012EF0CF0FFFF49EF0CF0FFFF3BC09C
:101828000CF03CC00DF03DC00EF03EC00FF051C0B2
:1018380008F052C009F053C00AF054C00BF0C5ECD0
:1018480003F008C049F009C04AF00AC04BF00BC0C9
:101858004CF049C008F04AC009F04BC00AF04CC02F
:101868000BF0000E0C6E000E0D6E800E0E6EBF0E8D
:101878000F6EC5EC03F008C051F009C052F00AC061
:1018880053F00BC054F0B6EF0CF0FFFF000E2F6EB4
:10189800000E306E000E316EBF0E326E51C033F046
:1018A80052C034F053C035F054C036F0C3EC11F0D8
:1018B800D8A061EF0CF064EF0CF0FFFF9BEF0CF089
:1018C800FFFF3BC00CF03CC00DF03DC00EF03EC029
:1018D8000FF051C008F052C009F053C00AF054C0CC
:1018E8000BF0C5EC03F008C049F009C04AF00AC083
:1018F8004BF00BC04CF049C008F04AC009F04BC08F
:101908000AF04CC00BF0000E0C6E000E0D6E800E2F
:101918000E6E3F0E0F6EC5EC03F008C051F009C003
:1019280052F00AC053F00BC054F0B6EF0CF0FFFFB2
:1019380051C008F052C009F053C00AF054C00BF06F
:101948003BC00CF03CC00DF03DC00EF03EC00FF0A7
:10195800C5EC03F008C051F009C052F00AC053F0BA
:101968000BC054F0FFFF4DC03FF04EC040F04FC0D9
:1019780041F050C042F0200EC8EF0CF0FFFFD890A5
:101988004232413240323F32FFFFE82EC2EF0CF0C4
:101998003F50401041104210D8B4D5EF0CF0D8EFAA
:1019A8000CF0FFFFEBEF0CF0FFFF51C008F052C046
:1019B80009F053C00AF054C00BF0BFEC17F008C090
:1019C80051F009C052F00AC053F00BC054F0FFFFA9
:1019D80051C03BF052C03CF053C03DF054C03EF003
:1019E800FFFF1200FFFFFFFF75C020F0A40E096E75
:1019F8007F0E0A6E00EC16F0E90E096E000E0A6EF4
:101A080000EC16F0600E096E7E0E0A6E00EC16F001
:101A1800FFFF7450D8B413EF0DF016EF0DF0FFFF71
:101A28000CEF0DF0FFFFDFC020F0200E1E6E000E41
:101A38001F6E440E1E181F10D8A425EF0DF028EFB6
:101A48000DF0FFFFDCEF0DF0FFFF000E746E510E7E
:101A5800096E7F0E0A6E00EC16F0FFFF7450D8B4C2
:101A680038EF0DF03BEF0DF0FFFF31EF0DF0FFFF0A
:101A7800DF0E0F6E000E106E06EC0FF00FC05BF05D
:101A880010C05CF0000E746E6D0E096E7F0E0A6E4B
:101A980000EC16F0FFFF7450D8B455EF0DF058EF76
:101AA8000DF0FFFF4EEF0DF0FFFFDF0E0F6E000E83
:101AB800106E06EC0FF00FC0ACF010C0ADF0000EC9
:101AC800746E340E096E7F0E0A6E00EC16F0FFFF7E
:101AD8007450D8B472EF0DF075EF0DF0FFFF6BEF97
:101AE8000DF0FFFFDF0E0F6E000E106E06EC0FF00C
:101AF8000FC0AAF010C0ABF0000E746EFA0E096E9B
:101B08007E0E0A6E00EC16F0FFFF7450D8B48FEF0B
:101B18000DF092EF0DF0FFFF88EF0DF0FFFFDF0EE5
:101B28000F6E000E106E06EC0FF00FC0A8F010C07C
:101B3800A9F0000E746E170E096E7F0E0A6E00EC87
:101B480016F0FFFF7450D8B4ACEF0DF0AFEF0DF006
:101B5800FFFFA5EF0DF0FFFFDF0E0F6E000E106EFA
:101B680006EC0FF00FC0A6F010C0A7F0000E746EC0
:101B7800DC0E096E7E0E0A6E00EC16F0FFFF745044
:101B8800D8B4C9EF0DF0CCEF0DF0FFFFC2EF0DF0A8
:101B9800FFFFDF0E0F6E000E106E06EC0FF00FC089
:101BA800A4F010C0A5F0FFFF000E746EECEF0DF06E
:101BB800FFFF7450D8B4E3EF0DF0E6EF0DF0FFFF30
:101BC800E9EF0DF0FFFFD7EF0DF0FFFF0CEF0DF081
:101BD800FFFF300E766EE90E0C6E000E0D6E200EB5
:101BE8000E6E000E0F6E000E116E010E106E47EC99
:101BF80016F0E70E096E7F0E0A6E00EC16F0205004
:101C080043EC18F0000E746E1200FFFFFFFF106E19
:101C18001050D8B412EF0EF015EF0EF0FFFF3AEFA8
:101C28000EF0FFFF0BBE1EEF0EF01BEF0EF0FFFFD6
:101C38003AEF0EF0FFFF08C00CF009C00DF00AC023
:101C48000EF00BC00FF00C1E0D1E0E1E0F1E0C2AE0
:101C5800000E0D220E220F220CC012F00DC013F040
:101C68000EC014F00FC015F043EF0EF0FFFF08C0D0
:101C780012F009C013F00AC014F00BC015F0FFFFF2
:101C8800085009100A100B10D8A44DEF0EF050EFB1
:101C98000EF0FFFF5BEF0EF0FFFF000E086E000E68
:101CA800096E000E0A6E000E0B6E03EF0FF0FFFFB9
:101CB800960E116E67EF0EF0FFFF112AD8901532BD
:101CC800143213321232FFFF000E12140C6E000E83
:101CD80013140D6E000E14140E6EFE0E15140F6EF6
:101CE8000C500D100E100F10D8A47DEF0EF080EFE1
:101CF8000EF0FFFF60EF0EF0FFFF90EF0EF0FFFF1A
:101D0800112A010E1226000E132214221522D89031
:101D18001532143213321232FFFF000E12140C6EF9
:101D2800000E13140D6E000E14140E6EFF0E151413
:101D38000F6E0C500D100E100F10D8A4A6EF0EF059
:101D4800A9EF0EF0FFFF83EF0EF0FFFFB3EF0EF0E9
:101D5800FFFF1106D8901236133614361536FFFFDA
:101D680014BEB9EF0EF0BCEF0EF0FFFFC6EF0EF099
:101D7800FFFF020E1160C3EF0EF0C6EF0EF0FFFF7B
:101D8800ACEF0EF0FFFF11B0CCEF0EF0CFEF0EF07E
:101D9800FFFFD1EF0EF0FFFF149EFFFFD890113226
:101DA80011C00CF00D6A0E6A0F6A0CC00FF00E6AB3
:101DB8000D6A0C6A0C5012120D5013120E501412A8
:101DC8000F5015121050D8B4ECEF0EF0EFEF0EF0E4
:101DD800FFFFFAEF0EF0FFFF0BBEF8EF0EF0F5EF86
:101DE8000EF0FFFFFAEF0EF0FFFF158EFFFF12C097
:101DF80008F013C009F014C00AF015C00BF0FFFF7B
:101E08001200FFFFFFFF000E1D6E000E1C6E000E7D
:101E1800166E000E156E14EF0FF0FFFF0F4A102A12
:101E2800FFFF010E1B6E0FC0D9FF10C0DAFF200E96
:101E3800DE18D8B422EF0FF025EF0FF0FFFF44EFC4
:101E48000FF0FFFFF70E116EFF0E126E0FC0D9FFD5
:101E580010C0DAFFDF50136E146A115013261250A7
:101E6800142214500AE1050E135CD8A03EEF0FF0BF
:101E780041EF0FF0FFFF44EF0FF0FFFF000E1B6E66
:101E8800FFFF1BC017F0186A17501810D8A44FEF9F
:101E98000FF052EF0FF0FFFF11EF0FF0FFFF5FEFB2
:101EA8000FF0FFFF000E166E010E156EFFFF0F4AB2
:101EB800102A97EF0FF0FFFF0FC0D9FF10C0DAFF0D
:101EC800DF50116E126A1250000AD8B46EEF0FF08C
:101ED80097EF0FF0FFFF11502B0AD8B45AEF0FF00D
:101EE800060AD8B455EF0FF097EF0FF0FFFF1CC0AC
:101EF80008F01DC009F0000E0B6E0A0E0A6E1DECEC
:101F080018F00FC0D9FF10C0DAFFDF50116E115062
:101F1800085E000E095A300E08241C6E000E0920B7
:101F28001D6E5AEF0FF0FFFFD00E116EFF0E126EEE
:101F38000FC0D9FF10C0DAFFDF50136E146A1150BA
:101F480013261250142214500BE10A0E135CD8A069
:101F5800B0EF0FF0B4EF0FF0FFFF010EB6EF0FF088
:101F6800FFFF000EFFFF196E1A6A19501A10D8A445
:101F7800C0EF0FF0C3EF0FF0FFFF7AEF0FF0FFFF96
:101F880015501610D8A4CBEF0FF0CEEF0FF0FFFFCF
:101F9800DDEF0FF0FFFF1CC011F01DC012F0111E85
:101FA800121E114A122A11C00FF012C010F0E2EFEF
:101FB8000FF0FFFF1CC00FF01DC010F0FFFF120054
:101FC800FFFFFFFF890E096E7D0E0A6E00EC16F00A
:101FD800FFFF7450D8B4F3EF0FF0F6EF0FF0FFFFE8
:101FE800ECEF0FF0FFFF000E746E65EF10F0FFFFCF
:101FF800D30E096E7F0E0A6E00EC16F0E90E096E1C
:10200800000E0A6E00EC16F0BC0E096E7E0E0A6E0B
:1020180000EC16F03FEF10F0FFFF000E416E000ECF
:10202800406EFFFFE90E4024D96E000E4120DA6EA3
:10203800DF5045EC00F040503D6E41503E6E404A46
:10204800412AE90E3D24D96E000E3E20DA6E0A0EB2
:10205800DE18D8B432EF10F035EF10F0FFFF3FEF85
:1020680010F0FFFF7350D8B43CEF10F03FEF10F0C2
:10207800FFFF15EF10F0FFFF7450D8B446EF10F0D3
:1020880049EF10F0FFFF10EF10F0FFFF88EF10F09E
:10209800FFFFB4EC15F0FFFFDFEC12F088EF10F053
:1020A800FFFFF7EC0CF04FEF10F0FFFF57EC12F0CA
:1020B8004FEF10F0FFFF000E746E000E736E88EF86
:1020C80010F0FFFF76503D6E3E6A3E50000AD8B4CD
:1020D80070EF10F088EF10F0FFFF3D50310AD8B4D0
:1020E800FBEF0FF0030AD8B44CEF10F0010AD8B494
:1020F80054EF10F0070AD8B459EF10F0650AD8B4B5
:102108005EEF10F088EF10F0FFFF1200FFFFFFFFF7
:10211800086E410E0818D8A494EF10F097EF10F04D
:10212800FFFFB2EF10F0FFFF000E6E6E030E6D6E34
:10213800000E6A6E040E696E000E666E000E656E05
:10214800000E6C6E110E6B6E000E686E050E676EDB
:10215800010E646E0E0E636E24EF11F0FFFF420E47
:102168000818D8A4BAEF10F0BDEF10F0FFFFD8EFB1
:1021780010F0FFFF000E6E6E030E6D6E000E6A6E9D
:102188000A0E696E000E666E5A0E656E000E6C6E53
:102198000A0E6B6E000E686E050E676E000E646E9A
:1021A800B40E636E24EF11F0FFFF430E0818D8A495
:1021B800E0EF10F0E3EF10F0FFFFFEEF10F0FFFF8D
:1021C800000E6E6E030E6D6E000E6A6E0F0E696E57
:1021D800000E666E5A0E656E000E6C6E100E6B6EFB
:1021E800000E686E0E0E676E010E646E0E0E636E44
:1021F80024EF11F0FFFF440E0818D8A406EF11F0E1
:1022080009EF11F0FFFF24EF11F0FFFF5BC06DF045
:102218005CC06EF0ACC069F0ADC06AF0AAC065F0F1
:10222800ABC066F0A8C06BF0A9C06CF0A6C067F0A0
:10223800A7C068F0A4C063F0A5C064F024EF11F053
:10224800FFFF1200FFFFFFFF573458345A6E5A50F1
:10225800D8A431EF11F034EF11F0FFFF40EF11F087
:10226800FFFFFFFF000E556E000E566E000E576EF4
:10227800000E586EC0EF11F0FFFF55C0B4F056C005
:10228800B5F057C0B6F058C0B7F0200E53EF11F0B4
:10229800FFFF0001D890B733B633B533B433FFFF2F
:1022A800E82E4CEF11F0B451596E578EFF0E5516AB
:1022B800FF0E5616FF0E5716000E5816960E5A5E4B
:1022C8005ABE6CEF11F069EF11F0FFFF86EF11F0C5
:1022D800FFFF5A50800A970FD8B075EF11F078EFCA
:1022E80011F0FFFF7BEF11F0FFFF35EF11F0FFFF5B
:1022F800D89058325732563255325A3E7BEF11F049
:10230800A4EF11F0FFFF1F0E5A648DEF11F090EF4C
:1023180011F0FFFF9AEF11F0FFFF35EF11F0FFFF0B
:10232800D89055365636573658365A06FFFF5A5003
:10233800D8A4A1EF11F0A4EF11F0FFFF93EF11F073
:10234800FFFF5950D8B4ABEF11F0AEEF11F0FFFF1B
:10235800B7EF11F0FFFF581E571E561E556C000EA2
:10236800562257225822FFFF55C055F056C056F046
:1023780057C057F058C058F0FFFF1200FFFFFFFF8B
:10238800000E2F14376E000E3014386E800E311484
:10239800396E7F0E32143A6E3750381039103A10B1
:1023A800D8A4D9EF11F0DCEF11F0FFFFE5EF11F041
:1023B800FFFF000E2F6E000E306E000E316E000E05
:1023C800326EFFFF000E3314376E000E3414386E71
:1023D800800E3514396E7F0E36143A6E3750381029
:1023E80039103A10D8A4FBEF11F0FEEF11F0FFFFFF
:1023F80007EF12F0FFFF000E336E000E346E000E72
:10240800356E000E366EFFFF32AE0DEF12F010EF94
:1024180012F0FFFF1AEF12F0FFFF2F6C301ED8B03A
:10242800302A311ED8B0312A800E3256FFFF36AE20
:1024380020EF12F023EF12F0FFFF2DEF12F0FFFF55
:10244800336C341ED8B0342A351ED8B0352A800EE5
:102458003656FFFF000E2F1A000E301A000E311AE2
:10246800800E321A000E331A000E341A000E351A76
:10247800800E361A33502F5C34503058355031584E
:1024880036503258D8B04BEF12F04EEF12F0FFFF33
:1024980052EF12F0FFFFD89054EF12F0FFFFD880F0
:1024A800FFFF1200FFFFFFFF210E096E7E0E0A6E6E
:1024B80000EC16F0E90E096E000E0A6E00EC16F03C
:1024C800FFFF7450D8B46BEF12F06EEF12F0FFFFFD
:1024D80064EF12F0FFFF000E746EDFC01EF0E90E0D
:1024E800166E000E176E1EC018F0196A00EC18F070
:1024F80016C01AF017C01BF0510E1E18D8A487EF8B
:1025080012F08AEF12F0FFFF8DEF12F0FFFFDAEF03
:1025180012F0FFFF1A501B10D8B495EF12F098EF85
:1025280012F0FFFFC6EF12F0FFFFE90E1A5C1C6EF7
:10253800000E1B581D6EE90E1C240C6E000E1D208B
:102548000D6EEA0E1C240E6E000E1D200F6EE90E95
:10255800086E000E096E7DEC17F01C50085C106EBA
:102568001D500958116E63EC13F0BE0E096E7F0EF4
:102578000A6E00EC16F01E5043EC18F0000E736E55
:10258800DAEF12F0FFFFDB0E096E7D0E0A6E00EC2B
:1025980016F0FFFF7450D8B4D4EF12F0D7EF12F052
:1025A800FFFFCDEF12F0FFFF64EF12F0FFFF000E08
:1025B800746E1200FFFFFFFF000E116E000E106E0A
:1025C800ECEF12F0FFFF010ED2EC14F0104A112AC2
:1025D800FFFF6150105C1150800A0F6E6250800A34
:1025E8000F58D8A0FAEF12F0FDEF12F0FFFFE6EF58
:1025F80012F0FFFF000E136E000E126E0AEF13F0BA
:10260800FFFF010E59EC14F0124A132AFFFF5F5026
:10261800125C1350800A0F6E6050800A0F58D8A0C1
:1026280018EF13F01BEF13F0FFFF04EF13F0FFFF99
:10263800000E156E000E146E28EF13F0FFFF010E4A
:102648004BEC15F0144A152AFFFF5D50145C155029
:10265800800A0F6E5E50800A0F58D8A036EF13F02C
:1026680039EF13F0FFFF22EF13F0FFFF000E176E94
:10267800000E166E46EF13F0FFFFFA0EE0EC13F0B3
:10268800164A172AFFFF17BE56EF13F0175007E137
:10269800030E165CD8B053EF13F056EF13F0FFFF9C
:1026A80060EF13F0FFFF7350D8B45DEF13F060EFE5
:1026B80013F0FFFF40EF13F0FFFF1200FFFFFFFFD3
:1026C8000EC016F00FC017F00CC014F00DC015F0B6
:1026D8001450165C15501758D8B075EF13F078EFF2
:1026E80013F0FFFFB5EF13F0FFFF10501624126E22
:1026F80011501720136E1250145C13501558D8B08F
:1027080088EF13F08BEF13F0FFFFB5EF13F0FFFF27
:102718001050162611501722105014261150152249
:10272800FFFF1606D8A0170616C0D9FF17C0DAFF94
:102738001406D8A0150614C0E1FF15C0E2FFDFCFCC
:10274800E7FF1006D8A0110610501110D8A4AFEF5B
:1027580013F0B2EF13F0FFFF94EF13F0FFFFDDEF7C
:1027680013F0FFFF10501110D8B4BDEF13F0C0EFF5
:1027780013F0FFFFDDEF13F0FFFFFFFF16C0D9FFD7
:1027880017C0DAFF14C0E1FF15C0E2FFDFCFE7FF93
:10279800164A172A144A152A1006D8A011061050EE
:1027A8001110D8A4DAEF13F0DDEF13F0FFFFC1EF3B
:1027B80013F0FFFF1200FFFFFFFF0E6E7450D8A446
:1027C800E8EF13F0EBEF13F0FFFF53EF14F0FFFF08
:1027D8000E50D8A4F2EF13F0F5EF13F0FFFF1EEF41
:1027E80014F0FFFF030E836E000E096E010E086ED3
:1027F8002AEC17F0060E836E000E096E010E086EA5
:102808002AEC17F00C0E836E000E096E010E086E8E
:102818002AEC17F0090E836E000E096E010E086E81
:102828002AEC17F0030E836E000E096E010E086E77
:102838002AEC17F0FFFF0E04D8A425EF14F028EFB8
:1028480014F0FFFF56EF14F0FFFF090E836E000E21
:10285800096E010E086E2AEC17F00C0E836E000E3E
:10286800096E010E086E2AEC17F0060E836E000E34
:10287800096E010E086E2AEC17F0030E836E000E27
:10288800096E010E086E2AEC17F0090E836E000E11
:10289800096E010E086E2AEC17F056EF14F0FFFFD0
:1028A800010E736EFFFF1200FFFFFFFF0E6E7450E4
:1028B800D8A461EF14F064EF14F0FFFFCCEF14F02C
:1028C800FFFF0E50D8A46BEF14F06EEF14F0FFFF6B
:1028D80097EF14F0FFFF300E816E000E096E010EA7
:1028E800086E2AEC17F0600E816E000E096E010E5C
:1028F800086E2AEC17F0C00E816E000E096E010EEC
:10290800086E2AEC17F0900E816E000E096E010E0B
:10291800086E2AEC17F0300E816E000E096E010E5B
:10292800086E2AEC17F0FFFF0E04D8A49EEF14F0EF
:10293800A1EF14F0FFFFCFEF14F0FFFF900E816EB0
:10294800000E096E010E086E2AEC17F0C00E816E9B
:10295800000E096E010E086E2AEC17F0600E816EEB
:10296800000E096E010E086E2AEC17F0300E816E0B
:10297800000E096E010E086E2AEC17F0900E816E9B
:10298800000E096E010E086E2AEC17F0CFEF14F056
:10299800FFFF010E736EFFFF1200FFFFFFFF0E6EB9
:1029A8007450D8A4DAEF14F0DDEF14F0FFFF45EF10
:1029B80015F0FFFF0E50D8A4E4EF14F0E7EF14F081
:1029C800FFFF10EF15F0FFFF030E816E000E096E7A
:1029D800010E086E2AEC17F0060E816E000E096EC5
:1029E800010E086E2AEC17F00C0E816E000E096EAF
:1029F800010E086E2AEC17F0090E816E000E096EA2
:102A0800010E086E2AEC17F0030E816E000E096E97
:102A1800010E086E2AEC17F0FFFF0E04D8A417EF7A
:102A280015F01AEF15F0FFFF48EF15F0FFFF090E3C
:102A3800816E000E096E010E086E2AEC17F00C0E5E
:102A4800816E000E096E010E086E2AEC17F0060E54
:102A5800816E000E096E010E086E2AEC17F0030E47
:102A6800816E000E096E010E086E2AEC17F0090E31
:102A7800816E000E096E010E086E2AEC17F048EF01
:102A880015F0FFFF010E736EFFFF1200FFFFFFFF3F
:102A98000E6E7450D8A453EF15F056EF15F0FFFFE3
:102AA800AEEF15F0FFFF0E50D8A45DEF15F060EF04
:102AB80015F0FFFF81EF15F0FFFF300E836E000E5B
:102AC800096E010E086E2AEC17F0C00E836E000E18
:102AD800096E010E086E2AEC17F0900E836E000E38
:102AE800096E010E086E2AEC17F0300E836E000E88
:102AF800096E010E086E2AEC17F0FFFF0E04D8A429
:102B080088EF15F08BEF15F0FFFFB1EF15F0FFFF21
:102B1800900E836E000E096E010E086E2AEC17F0F7
:102B2800600E836E000E096E010E086E2AEC17F017
:102B3800300E836E000E096E010E086E2AEC17F037
:102B4800900E836E000E096E010E086E2AEC17F0C7
:102B5800B1EF15F0FFFF010E736EFFFF1200FFFFCC
:102B6800FFFF890E096E7F0E0A6E00EC16F0E90E63
:102B7800096E000E0A6E00EC16F0940E096E7E0EB9
:102B88000A6E00EC16F0000E136E000E126EFFFFB8
:102B98007450D8B4D2EF15F0D5EF15F0FFFFCBEF96
:102BA80015F0FFFFFFFFDF0E1224D96E000E132071
:102BB800DA6EE90E1224E16E000E1320E26EDFCF0A
:102BC800E7FF12500F6E1350106E124A132ADF0ED1
:102BD8000F24D96E000E1020DA6E0A0EDE18D8A463
:102BE800F8EF15F0FBEF15F0FFFFD6EF15F0FFFF3C
:102BF800000E746E1200FFFFFFFF000E0E6E000E37
:102C08000D6E23EF16F0FFFF0D5009240B6E0E50CA
:102C18000A200C6E0BC0F6FF0CC0F7FFF86A050E11
:102C2800F76404D00800FFFFF55005D0F6CFE1FFA8
:102C3800F7CFE2FFE75043EC18F00D4A0E2AFFFFEA
:102C48000D5009240B6E0E500A200C6E0BC0F6FFB7
:102C58000CC0F7FFF86A050EF76404D00800FFFF00
:102C6800F55005D0F6CFE1FFF7CFE2FFE7500009B6
:102C7800D8A441EF16F044EF16F0FFFF07EF16F067
:102C8800FFFF1200FFFFFFFF0CC008F00DC009F0A6
:102C98007DEC17F008500C2609500D2266EF16F04F
:102CA800FFFF1006D8A011060EC0D9FF0FC0DAFF2B
:102CB8000CC0E1FF0DC0E2FFDFCFE7FF0E4A0F2A8D
:102CC8000C4A0D2AFFFF10501110D8B46EEF16F001
:102CD80071EF16F0FFFF7FEF16F0FFFF0EC0D9FF70
:102CE8000FC0DAFFDF50D8A47CEF16F07FEF16F0A4
:102CF800FFFF54EF16F0FFFF0CC0D9FF0DC0DAFF3D
:102D0800000EDF6E0C4A0D2A1200FFFFFFFF0CC0F9
:102D180014F00DC015F00EC00EF00F6AB4EF16F0E7
:102D2800FFFF10501424D96E11501520DA6EDF50B1
:102D3800126E136A0E50121807E10F501318D8A418
:102D4800A8EF16F0ABEF16F0FFFFB4EF16F0FFFF99
:102D5800105014240C6E115015200D6EC8EF16F08B
:102D6800FFFF1006D8A01106102806E11128D8A4E4
:102D7800C0EF16F0C3EF16F0FFFF94EF16F0FFFF59
:102D8800000E0C6E000E0D6EFFFF1200FFFFFFFF1E
:102D9800010E0E6E200E08180910D8B4D6EF16F0E2
:102DA800D9EF16F0FFFFF5EF16F0FFFFF70E0A6EEA
:102DB800FF0E0B6E08C00CF009C00DF00A500C266F
:102DC8000B500D220D500AE1050E0C5CD8A0EFEF58
:102DD80016F0F2EF16F0FFFFF5EF16F0FFFF000E0A
:102DE8000E6EFFFF0EC008F0096A1200FFFFC40E46
:102DF800F66E300EF76E000EF86E00EED5F010EE9F
:102E080018F00900F5CFEEFFE550E150FAE1E80EC1
:102E1800F66E300EF76E000EF86E0900F5CF75F0FD
:102E28000900F5CF76F000EE80F0340EEE6AE80681
:102E3800FDE100EE5BF01A0EEE6AE806FDE1779020
:102E48007792000EF86E000153EF18F0FFFF000EA6
:102E58000B6E000E0A6E48EF17F0FFFF000E0D6EA6
:102E6800000E0C6EFFFF0C4A0D2A720E0C5C060E4B
:102E78000D58D8A042EF17F045EF17F0FFFF36EFD7
:102E880017F0FFFF0A4A0B2AFFFF08500A5C095097
:102E98000B58D8A052EF17F055EF17F0FFFF31EF9E
:102EA80017F0FFFF1200FFFFFFFF000E1C1A000EB5
:102EB8001D1A000E1E1A800E1F1A18C008F019C01D
:102EC80009F01AC00AF01BC00BF01CC00CF01DC0A2
:102ED8000DF01EC00EF01FC00FF0C5EC03F008C0C7
:102EE80018F009C019F00AC01AF00BC01BF0120044
:102EF800FFFFFFFF08C00AF009C00BF087EF17F0CB
:102F0800FFFF084A092AFFFF08C0D9FF09C0DAFFF6
:102F1800DF50D8A492EF17F095EF17F0FFFF84EF7A
:102F280017F0FFFF0A50085C086E0B500958096E2D
:102F38001200FFFFFFFFD00E0A6EFF0E0B6E08C0D7
:102F48000CF009C00DF00A500C260B500D220D5044
:102F58000BE10A0E0C5CD8A0B4EF17F0B8EF17F02D
:102F6800FFFF010EBAEF17F0FFFF000EFFFF086E1C
:102F7800096A1200FFFFFFFF085009100A100B1022
:102F8800D8B4C9EF17F0CCEF17F0FFFFD5EF17F063
:102F9800FFFF000E081A000E091A000E0A1A800E0A
:102FA8000B1AFFFF08C008F009C009F00AC00AF0B0
:102FB8000BC00BF01200FFFFFFFF550E3B6E550EC6
:102FC8003C6EC80E3D6E410E3E6E04EC0BF03BC0ED
:102FD80055F03CC056F03DC057F03EC058F027ECC5
:102FE80011F05550AF6EAC9CAC8AAC98AC84AB8EEB
:102FF800AB9CAB881200FFFFFFFF16C00CF017C098
:103008000DF018C00EF019C00FF016C008F017C068
:1030180009F07DEC17F0010E0824106E000E09204F
:10302800116E8AEC16F00CC016F00DC017F01200E5
:10303800FFFFFFFF08500A02F3CF0CF0F4CF0DF0AA
:1030480008500B02F3500D2609500A02F3500D26C2
:103058000CC008F00DC009F01200FFFFFFFF000EC2
:10306800936E000E956E0F0E816E0F0E836E000E1E
:103078008B6E000E826E948E949C1200FFFFFFFFF1
:10308800086E08C0ADFFFFFFACA24DEF18F050EF7F
:1030980018F0FFFF47EF18F0FFFF1200FFFFFFFFD8
:1030A80032EC18F0E0EC17F06EEC18F0F28EFFFF3F
:1030B800E5EC0FF05BEF18F043EF00F0BD37863416
:1030C800BD3786341E00200000000000000000000C
:1030D80043414200FFFF9E9A9D8AF28C1200FFFF37
:0430E8002030FFFF96
:107D7400000000004B000016460000164600247464
:107D84004A0024744A0A0A312E2053746172742002
:107D940053657175656E63650A322E204368616EA2
:107DA40067652073657175656E63650A332E2041BE
:107DB4006464206E657720636F6D706F6E656E749A
:107DC4000A342E2052656D6F7665206120636F6DD5
:107DD400706F6E656E74000A636F6D706F6E656EA2
:107DE40074206973206E6F7420696E207468652036
:107DF40073657175656E63652E20547279207365A1
:107E04006C656374696E6720616E6F746865722057
:107E1400636F6D706F6E656E743A200A000A57685E
:107E240069636820636F6D706F6E656E7420776F21
:107E3400756C6420796F75206C696B6520746F2094
:107E440072656D6F76652066726F6D20746865204B
:107E54002073657175656E63653F0A000A456E742B
:107E640065722074686520636F6D706F6E656E74E3
:107E740020796F752077616E7420746F206164645B
:107E84003A20412C20422C2043206F7220443F0092
:107E94000A506C656173652067697665207468654E
:107EA400206E65772073657175656E6365206173F7
:107EB40020696E7075740D000A456E746572202712
:107EC400512720746F206578697420746F204D41A8
:107ED400494E204D454E55000A456E746572207416
:107EE400686520706C616365206F7269656E74618A
:107EF40074696F6E3A000A456E7465722074686521
:107F040020706C61636520706F736974696F6E2093
:107F1400583A000A456E7465722074686520706C66
:107F240061636520706F736974696F6E20593A00DC
:107F34000A456E74657220746865207069636B20ED
:107F44006F7269656E746174696F6E3A000A456E8A
:107F540074657220746865207069636B20706F7338
:107F64006974696F6E20583A000A456E7465722010
:107F7400746865207069636B20706F736974696FCE
:107F84006E20593A000A5468652063757272656EF2
:107F9400742073657175656E63652069733A20009A
:107FA4000A5468652043757272656E742073657136
:107FB40075656E63652069733A000A636F6D706F4F
:107FC4006E656E742072656D6F7665643A20000A82
:107FD4005374617274696E672073657175656E633D
:107FE400653A000A436F6D706F6E656E742041646C
:0B7FF4006465643A200030003100009A
:020000040020DA
:08000000FFFFFFFFFFFFFFFF00
:020000040030CA
:0E000000FF210D0EFF0080FF0FC00FE00F402C
:00000001FF
