:020000040000FA
:0600000000F04AEF00F0E1
:10000800FFFF7782D9CF05F0DACF06F0000E086E31
:10001800000E076EFFFF9EAA14EF00F017EF00F026
:10002800FFFF0EEF00F0FFFF750E0724D96E000EDC
:100038000820DA6EAECFDFFF0750026E0850036E5D
:10004800074A082A750E0224D96E000E0320DA6EBC
:100058000A0EDE18D8A433EF00F036EF00F0FFFFE9
:100068000EEF00F0FFFF755036EC17F0765036ECC7
:1000780017F0775036EC17F09E9A010E746E06C092
:10008800DAFF05C0D9FF77921100FFFF55EF15F091
:10009800FFFF0C50800B156E0C500C24176E0BAE26
:1000A80058EF00F05BEF00F0FFFF5DEF00F0FFFF9F
:1000B8001780FFFF1750D8B464EF00F067EF00F027
:1000C800FFFF80EF00F0FFFF1728D8A46EEF00F0C5
:1000D80071EF00F0FFFF7AEF00F0FFFF000E096EEE
:1000E800000E0A6E000E0B6E000E0C6EFFFF0B8EDC
:1000F800000E0C6E89EF00F0FFFF000E096E000E77
:100108000A6E000E0B6E000E0C6EFFFF1050800B77
:10011800166E15501618D8B494EF00F097EF00F04B
:10012800FFFF99EF00F0FFFF158CFFFF1050102420
:10013800166E0FAEA2EF00F0A5EF00F0FFFFA7EFDD
:1001480000F0FFFF1680FFFF1650D8B4AEEF00F0A6
:10015800B1EF00F0FFFFCAEF00F0FFFF1628D8A4A8
:10016800B8EF00F0BBEF00F0FFFFC4EF00F0FFFFB7
:10017800000E0D6E000E0E6E000E0F6E000E106E4D
:10018800FFFF0F8E000E106ED3EF00F0FFFF000E82
:100198000D6E000E0E6E000E0F6E000E106EFFFF3D
:1001A8001750165CD8B0DBEF00F0DEEF00F0FFFF71
:1001B80009EF01F0FFFF15ACE4EF00F0E7EF00F006
:1001C800FFFFEAEF00F0FFFF800E151AFFFF17C0D0
:1001D80018F016C017F018C016F009C018F00DC0B6
:1001E80009F018C00DF00AC018F00EC00AF018C0C7
:1001F8000EF00BC018F00FC00BF018C00FF00CC0B9
:1002080018F010C00CF018C010F0FFFF000E186EA8
:10021800175016C011F0126A115E000E125A12BE63
:100228001FEF01F012500AE11A0E115CD8A01FEF5F
:1002380001F022EF01F0FFFF65EF01F0FFFF095029
:100248000A100B100C10D8A42CEF01F030EF01F0BD
:10025800FFFF010E32EF01F0FFFF000EFFFF186EE7
:10026800000E096E000E0A6E000E0B6E000E0C6E6C
:1002780016C017F070EF01F0FFFF18A046EF01F06D
:1002880049EF01F0FFFF50EF01F0FFFFD890183061
:100298000109186E53EF01F0FFFFD8901832FFFFE5
:1002A80009A059EF01F05CEF01F0FFFF5EEF01F0EC
:1002B800FFFF188EFFFF0C340C320B320A32093262
:1002C800172AFFFF1650175CD8A06DEF01F070EFEA
:1002D80001F0FFFF40EF01F0FFFF15BC76EF01F0E2
:1002E80079EF01F0FFFFC6EF01F0FFFF1750D8A428
:1002F80080EF01F083EF01F0FFFF8EEF01F0FFFFC9
:10030800000E096E000E0A6E000E0B6E000E0C6ECB
:100318001DEF03F0FFFF0D5009260E500A220F5063
:100328000B2210500C220CA09CEF01F09FEF01F063
:10033800FFFF6AEF02F0FFFF18A0A5EF01F0A8EF9A
:1003480001F0FFFFAFEF01F0FFFFD890183001096F
:10035800186EB2EF01F0FFFFD8901832FFFF09A026
:10036800B8EF01F0BBEF01F0FFFFBDEF01F0FFFFB9
:10037800188EFFFF0C340C320B320A320932172A5E
:100388006AEF02F0FFFF0D50095C0E500A580F503B
:100398000B580C50800A116E1050800A1158D8B0B2
:1003A800D8EF01F0DBEF01F0FFFF09EF02F0FFFFEC
:1003B80009500D5C116E0A500E58126E0B500F58F2
:1003C800136E0C501058146EFF0E1124096EFF0E98
:1003D80012200A6EFF0E13200B6EFF0E14200C6EF7
:1003E800800E151A186C1850D8A4FDEF01F000EF14
:1003F80002F0FFFF12EF02F0FFFF010E0926000EC8
:100408000A220B220C2212EF02F0FFFF0D50095EA8
:100418000E500A5A0F500B5A10500C5AFFFF095031
:100428000A100B100C10D8A41CEF02F01FEF02F0FA
:10043800FFFF61EF02F0FFFF1850D8A426EF02F08B
:1004480029EF02F0FFFF61EF02F0FFFF000E096ED7
:10045800000E0A6E000E0B6E000E0C6E1DEF03F000
:10046800FFFFD89009360A360B360C3618AE3FEF28
:1004780002F042EF02F0FFFF44EF02F0FFFF0980B5
:10048800FFFF18A04AEF02F04DEF02F0FFFF52EF16
:1004980002F0FFFFD880183655EF02F0FFFFD89022
:1004A8001836FFFF1750D8B45CEF02F05FEF02F088
:1004B800FFFF61EF02F0FFFF1706FFFF0BAE67EFCC
:1004C80002F06AEF02F0FFFF34EF02F0FFFF000EC8
:1004D800166E18AE72EF02F075EF02F0FFFF94EFA0
:1004E80002F0FFFF18C011F07F0E1116D8B47FEF8D
:1004F80002F082EF02F0FFFF88EF02F0FFFFFFFF3C
:10050800010E166E94EF02F0FFFF09A08EEF02F0C5
:1005180091EF02F0FFFF94EF02F0FFFF83EF02F08C
:10052800FFFF1650D8B49BEF02F09EEF02F0FFFFDA
:10053800CEEF02F0FFFF010E0926000E0A220B2261
:100548000C220CA0AAEF02F0ADEF02F0FFFFCEEFF5
:1005580002F0FFFF09C011F00AC012F00BC013F03F
:100568000CC014F01434143213321232113211C088
:1005780009F012C00AF013C00BF014C00CF01728D1
:10058800D8B4C9EF02F0CCEF02F0FFFFCEEF02F0D3
:10059800FFFF172AFFFF1728D8B4D5EF02F0D8EFCE
:1005A80002F0FFFFE2EF02F0FFFF1750D8A4DFEFE1
:1005B80002F0E2EF02F0FFFFF7EF02F0FFFF000E9C
:1005C800096E000E0A6E000E0B6E000E0C6E1750B0
:1005D800D8A4F1EF02F0F4EF02F0FFFFF7EF02F01A
:1005E800FFFF000E156EFFFF17A0FDEF02F000EFF2
:1005F80003F0FFFF04EF03F0FFFF0B8E06EF03F09D
:10060800FFFF0B9EFFFFD89017300C6E15AE0FEF53
:1006180003F012EF03F0FFFF14EF03F0FFFF0C8E5F
:10062800FFFF09C009F00AC00AF00BC00BF00CC0AC
:100638000CF0FFFF1200FFFFFFFF526E410E521831
:10064800D8A429EF03F02CEF03F0FFFF47EF03F0E6
:10065800FFFF000E6E6E030E6D6E000E6A6E040EC6
:10066800696E000E666E000E656E000E6C6E110EE1
:100678006B6E000E686E050E676E010E646E0E0ED0
:10068800636EB9EF03F0FFFF420E5218D8A44FEF84
:1006980003F052EF03F0FFFF6DEF03F0FFFF000ED2
:1006A8006E6E030E6D6E000E6A6E0A0E696E000E97
:1006B800666E5A0E656E000E6C6E0A0E6B6E000E3C
:1006C800686E050E676E000E646EB40E636EB9EF49
:1006D80003F0FFFF430E5218D8A475EF03F078EF2C
:1006E80003F0FFFF93EF03F0FFFF000E6E6E030EA3
:1006F8006D6E000E6A6E0F0E696E000E666E5A0EF3
:10070800656E000E6C6E100E6B6E000E686E0E0E2F
:10071800676E010E646E0E0E636EB9EF03F0FFFF95
:10072800440E5218D8A49BEF03F09EEF03F0FFFF8E
:10073800B9EF03F0FFFF5BC06DF05CC06EF0DBC08B
:1007480069F0DCC06AF0D9C065F0DAC066F0D7C0DD
:100758006BF0D8C06CF0D5C067F0D6C068F0D3C0D5
:1007680063F0D4C064F0B9EF03F0FFFF61C009F093
:1007780062C00AF06DC00BF06EC00CF0A3EC16F06E
:100788000950736E5FC009F060C00AF069C00BF0D1
:100798006AC00CF0A3EC16F00950726E5DC009F047
:1007A8005EC00AF065C00BF066C00CF0A3EC16F052
:1007B8000950716E000E3F6E000E3E6EEAEF03F0B8
:1007C800FFFF735019EC13F03E4A3F2AFFFF6150B8
:1007D8006D5C3C6E62506E583D6E3DBEFFEF03F09F
:1007E8003D5006E13C04D8B0FCEF03F0FFEF03F006
:1007F800FFFF10EF04F0FFFF61506D5C3C6E62502C
:100808006E583D6E3C1E3D1E3C4A3D2A3CC040F0A1
:100818003DC041F017EF04F0FFFF61506D5C406E82
:1008280062506E58416EFFFF40503E5C3F50800A58
:100838003C6E4150800A3C58D8A025EF04F028EFC0
:1008480004F0FFFFE4EF03F0FFFF000E436E000E1D
:10085800426E35EF04F0FFFF7250AFEC12F0424ADF
:10086800432AFFFF5F50695C3C6E60506A583D6EDA
:100878003DBE4AEF04F03D5006E13C04D8B047EFD6
:1008880004F04AEF04F0FFFF5BEF04F0FFFF5F5056
:10089800695C3C6E60506A583D6E3C1E3D1E3C4A89
:1008A8003D2A3CC044F03DC045F062EF04F0FFFF34
:1008B8005F50695C446E60506A58456EFFFF445053
:1008C800425C4350800A3C6E4550800A3C58D8A090
:1008D80070EF04F073EF04F0FFFF2FEF04F0FFFF59
:1008E800000E476E000E466E80EF04F0FFFF715059
:1008F800E9EC13F0464A472AFFFF46C009F047C013
:100908000AF0000E0ABEFF0E0B6E0C6E010E4EECC6
:100918000CF009C030F00AC031F00BC032F00CC046
:1009280033F0660E1B6E660E1C6E660E1D6E400E54
:100938001E6E65505D5C3C6E66505E583D6E3CC0F8
:1009480009F03DC00AF0000E0ABEFF0E0B6E0C6ED9
:10095800010E4EEC0CF009C017F00AC018F00BC0DD
:1009680019F00CC01AF042EC08F017C034F018C0A7
:1009780035F019C036F01AC037F034EC11F0D8A0B1
:10098800C8EF04F0CBEF04F0FFFF7AEF04F0FFFFAD
:100998001EEC15F06DC009F06EC00AF06BC00BF0CC
:1009A8006CC00CF0A3EC16F00950736E69C009F026
:1009B8006AC00AF067C00BF068C00CF0A3EC16F030
:1009C8000950726E65C009F066C00AF063C00BF08A
:1009D80064C00CF0A3EC16F00950716E000E496E5D
:1009E800000E486EFEEF04F0FFFF735019EC13F091
:1009F800484A492AFFFF61506B5C3C6E62506C5854
:100A08003D6E3DBE13EF05F03D5006E13C04D8B005
:100A180010EF05F013EF05F0FFFF24EF05F0FFFFDF
:100A280061506B5C3C6E62506C583D6E3C1E3D1EC6
:100A38003C4A3D2A3CC04AF03DC04BF02BEF05F044
:100A4800FFFF61506B5C4A6E62506C584B6EFFFF43
:100A58004A50485C4950800A3C6E4B50800A3C58CA
:100A6800D8A039EF05F03CEF05F0FFFFF8EF04F0F0
:100A7800FFFF000E4D6E000E4C6E49EF05F0FFFFB4
:100A88007250AFEC12F04C4A4D2AFFFF5F50675C82
:100A98003C6E605068583D6E3DBE5EEF05F03D50BF
:100AA80006E13C04D8B05BEF05F05EEF05F0FFFF10
:100AB8006FEF05F0FFFF5F50675C3C6E6050685851
:100AC8003D6E3C1E3D1E3C4A3D2A3CC04EF03DC09A
:100AD8004FF076EF05F0FFFF5F50675C4E6E605099
:100AE80068584F6EFFFF4E504C5C4D50800A3C6E6C
:100AF8004F50800A3C58D8A084EF05F087EF05F0E6
:100B0800FFFF43EF05F0FFFF000E516E000E506E21
:100B180094EF05F0FFFF7150E9EC13F0504A512AA9
:100B2800FFFF50C009F051C00AF0000E0ABEFF0EC8
:100B38000B6E0C6E010E4EEC0CF009C030F00AC0C2
:100B480031F00BC032F00CC033F0660E1B6E660E2F
:100B58001C6E660E1D6E400E1E6E6350655C3C6E0C
:100B6800645066583D6E3CC009F03DC00AF0000E66
:100B78000ABEFF0E0B6E0C6E010E4EEC0CF009C097
:100B880017F00AC018F00BC019F00CC01AF042ECAC
:100B980008F017C034F018C035F019C036F01AC084
:100BA80037F034EC11F0D8A0DCEF05F0DFEF05F0FA
:100BB800FFFF8EEF05F0FFFF1EEC15F063C05DF040
:100BC80064C05EF06BC061F06CC062F067C05FF03B
:100BD80068C060F01200FFFFFFFF0C50800B156E1D
:100BE8000C500C241B6E0BAEFCEF05F0FFEF05F06C
:100BF800FFFF01EF06F0FFFF1B80FFFF1B50D8B47B
:100C080008EF06F00BEF06F0FFFF22EF06F0FFFFFC
:100C18001B28D8A412EF06F015EF06F0FFFF1EEF11
:100C280006F0FFFF000E096E000E0A6E000E0B6E36
:100C3800000E0C6EFFFF0B8E2BEF06F0FFFF000E71
:100C4800096E000E0A6E000E0B6E000E0C6EFFFF92
:100C58001050800B151A10501024166E0FAE37EF77
:100C680006F03AEF06F0FFFF3CEF06F0FFFF1680B4
:100C7800FFFF1650D8B443EF06F046EF06F0FFFF2B
:100C88005DEF06F0FFFF1628D8A44DEF06F050EFF1
:100C980006F0FFFF59EF06F0FFFF000E0D6E000E85
:100CA8000E6E000E0F6E000E106EFFFF0F8E66EFB9
:100CB80006F0FFFF000E0D6E000E0E6E000E0F6E9A
:100CC800000E106EFFFF1650D8B46DEF06F070EFEF
:100CD80006F0FFFF7AEF06F0FFFF1B50D8A477EF6E
:100CE80006F07AEF06F0FFFF85EF06F0FFFF000E33
:100CF800096E000E0A6E000E0B6E000E0C6E3FEFB2
:100D080008F0FFFF0F500902F3CF20F0F4CF21F0D5
:100D18002050176E186A196A1A6A21501C6E1D6ACB
:100D28001E6A1F6A0E500A02F3CF20F0F4CF21F09A
:100D380020501726000E182219221A2221501C268C
:100D4800000E1D221E221F220D500B02F3CF20F091
:100D5800F4CF21F020501726000E182219221A224B
:100D680021501C26000E1D221E221F2219C01AF017
:100D780018C019F017C018F0176A0D500A02F3CFFF
:100D880020F0F4CF21F02050172621501822000E11
:100D98001922000E1A220E500902F3CF20F0F4CFC8
:100DA80021F02050172621501822000E1922000E7B
:100DB8001A2219C01AF018C019F017C018F0176ACB
:100DC8000D500902F3CF20F0F4CF21F02050172660
:100DD80021501822000E1922000E1A220F500A0262
:100DE800F3CF20F0F4CF21F020501C2621501D22F3
:100DF800000E1E22000E1F220E500B02F3CF20F011
:100E0800F4CF21F020501C2621501D22000E1E2256
:100E1800000E1F220F500B02F3CF20F0F4CF21F069
:100E28002050116E2150126E136A146A13C014F008
:100E380012C013F011C012F0116A11501C26125082
:100E48001D2213501E2214501F2217C011F018C063
:100E580012F019C013F01AC014F0190E3AEF07F087
:100E6800FFFFD8901432133212321132FFFFE82EEE
:100E780034EF07F011501C2612501D2213501E2269
:100E880014501F2219C01AF018C019F017C018F012
:100E9800176A16501BC011F0126A1126000E122292
:100EA800820E1124206EFF0E1220216E75EF07F0BE
:100EB800FFFFD8901C361D361E361F361AAE67EF58
:100EC80007F06AEF07F0FFFF6CEF07F0FFFF1C80E9
:100ED800FFFFD8901736183619361A362006D8A0CC
:100EE8002106FFFF1EAE7BEF07F07EEF07F0FFFF46
:100EF8005CEF07F0FFFF000E166E1AAE86EF07F0E4
:100F080089EF07F0FFFFB4EF07F0FFFFFF0E17149C
:100F1800116EFF0E1814126EFF0E1914136E7F0E49
:100F28001A14146E1150121013101410D8B49FEF25
:100F380007F0A2EF07F0FFFFA8EF07F0FFFFFFFFA2
:100F4800010E166EB4EF07F0FFFF1CA0AEEF07F01E
:100F5800B1EF07F0FFFFB4EF07F0FFFFA3EF07F0D3
:100F6800FFFF1650D8B4BBEF07F0BEEF07F0FFFF46
:100F7800E5EF07F0FFFF010E1C26000E1D221E22C2
:100F88001F221FA0CAEF07F0CDEF07F0FFFFE5EF24
:100F980007F0FFFF1CC011F01DC012F01EC013F0B7
:100FA8001FC014F01434143213321232113211C02B
:100FB8001CF012C01DF013C01EF014C01FF0204A10
:100FC800212AFFFF21BEF1EF07F0215009E1202877
:100FD800D8A0F1EF07F0F4EF07F0FFFFFFEF07F0FD
:100FE800FFFF000E1C6E000E1D6E800E1E6E7F0E23
:100FF8001F6E34EF08F0FFFF21BE0EEF08F02150FE
:1010080006E12004D8B00BEF08F00EEF08F0FFFF60
:101018001BEF08F0FFFF000E1C6E000E1D6E000E89
:101028001E6E000E1F6E000E156E34EF08F0FFFFE7
:1010380020C01BF0FF0E1C16FF0E1D167F0E1E167D
:10104800000E1F161BA02BEF08F02EEF08F0FFFF75
:1010580030EF08F0FFFF1E8EFFFFD8901B301F6E89
:10106800FFFF15501F121CC009F01DC00AF01EC05A
:101078000BF01FC00CF0FFFF1200FFFFFFFF1A501C
:10108800800B276E1A501A242E6E19AE4EEF08F0F8
:1010980051EF08F0FFFF53EF08F0FFFF2E80FFFF2E
:1010A8002E50D8B45AEF08F05DEF08F0FFFF76EF46
:1010B80008F0FFFF2E28D8A464EF08F067EF08F0C7
:1010C800FFFF70EF08F0FFFF000E176E000E186E9E
:1010D800000E196E000E1A6EFFFF198E000E1A6EA2
:1010E8007FEF08F0FFFF000E176E000E186E000E5F
:1010F800196E000E1A6EFFFF1E50800B271A1E5025
:101108001E242F6E1DAE8BEF08F08EEF08F0FFFF48
:1011180090EF08F0FFFF2F80FFFF2F50D8B497EF14
:1011280008F09AEF08F0FFFFB3EF08F0FFFF2F2851
:10113800D8A4A1EF08F0A4EF08F0FFFFADEF08F086
:10114800FFFF000E1B6E000E1C6E000E1D6E000EC3
:101158001E6EFFFF1D8E000E1E6EBCEF08F0FFFF17
:10116800000E1B6E000E1C6E000E1D6E000E1E6E15
:10117800FFFF1B501C101D101E10D8A4C6EF08F04E
:10118800C9EF08F0FFFFE3EF08F0FFFF000E176E4E
:10119800000E186E000E196E000E1A6E800E1912CF
:1011A8007F0E1A12FFFF27501A1217C017F018C027
:1011B80018F019C019F01AC01AF058EF0AF0FFFF1A
:1011C8002E50D8A4EAEF08F0EDEF08F0FFFFF8EF93
:1011D80008F0FFFF000E176E000E186E000E196E55
:1011E800000E1A6E58EF0AF0FFFF2F502EC01FF0A6
:1011F800206A1F5E000E205A7F0E1F24286E000EE4
:101208002020296E17C023F018C024F019C025F03B
:101218001AC026F0000E176E000E186E000E196E1A
:10122800000E1A6E000E2A6E000E2B6E000E2C6E2B
:10123800000E2D6E000E2F6E64EF09F0FFFF2F5089
:10124800D8B429EF09F02CEF09F0FFFF47EF09F0B8
:10125800FFFFD8902336243625362636D890173601
:10126800183619361A362DAE3CEF09F03FEF09F063
:10127800FFFF41EF09F0FFFF1780FFFFD8902A36E4
:101288002B362C362D36FFFF1B50235C1C50245860
:101298001D5025581E502658D8A055EF09F058EF74
:1012A80009F0FFFF62EF09F0FFFF2D8C1B50235E52
:1012B8001C50245A1D50255A1E50265AFFFF2F2A0B
:1012C800FFFF190E2F646BEF09F06EEF09F0FFFFB7
:1012D80022EF09F0FFFF2350241025102610D8B460
:1012E80078EF09F07BEF09F0FFFF98EF09F0FFFFB7
:1012F8002A8098EF09F0FFFFD8901736183619366C
:101308001A362DAE8AEF09F08DEF09F0FFFF8FEF47
:1013180009F0FFFF1780FFFFD8902A362B362C36AE
:101328002D362806D8A02906FFFF19AE9EEF09F032
:10133800A1EF09F0FFFF7FEF09F0FFFF000E2F6E0E
:101348002DAEA9EF09F0ACEF09F0FFFFD7EF09F0D8
:10135800FFFFFF0E2A141F6EFF0E2B14206EFF0EC8
:101368002C14216E7F0E2D14226E1F502010211078
:101378002210D8B4C2EF09F0C5EF09F0FFFFCBEF98
:1013880009F0FFFFFFFF010E2F6ED7EF09F0FFFFF7
:1013980017A0D1EF09F0D4EF09F0FFFFD7EF09F05C
:1013A800FFFFC6EF09F0FFFF2F50D8B4DEEF09F0BA
:1013B800E1EF09F0FFFF08EF0AF0FFFF010E172623
:1013C800000E182219221A221AA0EDEF09F0F0EFE8
:1013D80009F0FFFF08EF0AF0FFFF17C01FF018C061
:1013E80020F019C021F01AC022F022342232213212
:1013F80020321F321FC017F020C018F021C019F08A
:1014080022C01AF0284A292AFFFF29BE14EF0AF041
:10141800295009E12828D8A014EF0AF017EF0AF09C
:10142800FFFF23EF0AF0FFFF000E296E2868000E69
:10143800176E000E186E000E196E000E1A6EFFFF62
:1014480029BE32EF0AF0295006E12804D8B02FEF60
:101458000AF032EF0AF0FFFF41EF0AF0FFFF000E3B
:10146800296E000E286E000E176E000E186E000E04
:10147800196E000E1A6E000E276EFFFF28C02EF0A0
:101488002EA049EF0AF04CEF0AF0FFFF50EF0AF0E8
:10149800FFFF198E52EF0AF0FFFF199EFFFFD89049
:1014A8002E301A6ED6EF08F0FFFF1200FFFFFFFF85
:1014B800CDC04EF0CEC04FF0CFC050F0D0C051F0EC
:1014C8003CC04EF03DC04FF03EC050F03FC051F020
:1014D8004EC040F04FC041F050C042F051C043F000
:1014E800180E7DEF0AF0FFFFD890433242324132A6
:1014F8004032FFFFE82E77EF0AF04050486E496A05
:1015080049BE90EF0AF049500AE1960E485CD8A00F
:1015180090EF0AF093EF0AF0FFFF9EEF0AF0FFFF4B
:101528003CC03CF03DC03DF03EC03EF03FC03FF007
:101538004BEF0CF0FFFF4EC040F04FC041F050C0E1
:1015480042F051C043F0200EB0EF0AF0FFFFD890F0
:101558004332423241324032FFFFE82EAAEF0AF00E
:101568004050411042104310D8B4BDEF0AF0C0EF0C
:101578000AF0FFFFD3EF0AF0FFFF3CC009F03DC0BF
:101588000AF03EC00BF03FC00CF082EC16F009C028
:101598003CF00AC03DF00BC03EF00CC03FF0FFFF2E
:1015A80049BEE3EF0AF0495007E17E0E485CD8B027
:1015B800E0EF0AF0E3EF0AF0FFFF00EF0BF0FFFFA8
:1015C8004EC009F04FC00AF050C00BF051C00CF0EB
:1015D800000E0D6E000E0E6E000E0F6E000E106ED9
:1015E800F0EC05F009C03CF00AC03DF00BC03EF03D
:1015F8000CC03FF04BEF0CF0FFFF000E0D6E000E1D
:101608000E6E000E0F6E4B0E106E3CC009F03DC002
:101618000AF03EC00BF03FC00CF04CEC00F009C0E3
:101628004AF00AC04BF00BC04CF00CC04DF0000E55
:101638000D6E000E0E6E000E0F6ECB0E106E4AC0B1
:1016480009F04BC00AF04CC00BF04DC00CF04CEC4C
:1016580000F009C044F00AC045F00BC046F00CC0C9
:1016680047F044C019F045C01AF046C01BF047C007
:101678001CF03CC01DF03DC01EF03EC01FF03FC036
:1016880020F01BEC16F019C052F01AC053F01BC022
:1016980054F01CC055F0000E306E000E316E000E76
:1016A800326E3F0E336E52C034F053C035F054C022
:1016B80036F055C037F034EC11F0D8B066EF0BF0C7
:1016C80069EF0BF0FFFFA0EF0BF0FFFF3CC00DF040
:1016D8003DC00EF03EC00FF03FC010F052C009F000
:1016E80053C00AF054C00BF055C00CF04CEC00F09D
:1016F80009C04AF00AC04BF00BC04CF00CC04DF0CA
:101708004AC009F04BC00AF04CC00BF04DC00CF0B9
:10171800000E0D6E000E0E6E800E0F6EBF0E106E58
:101728004CEC00F009C052F00AC053F00BC054F062
:101738000CC055F00DEF0CF0FFFF000E306E000EE0
:10174800316E000E326EBF0E336E52C034F053C08D
:1017580035F054C036F055C037F034EC11F0D8A04D
:10176800B8EF0BF0BBEF0BF0FFFFF2EF0BF0FFFF52
:101778003CC00DF03DC00EF03EC00FF03FC010F071
:1017880052C009F053C00AF054C00BF055C00CF019
:101798004CEC00F009C04AF00AC04BF00BC04CF00A
:1017A8000CC04DF04AC009F04BC00AF04CC00BF019
:1017B8004DC00CF0000E0D6E000E0E6E800E0F6EFA
:1017C8003F0E106E4CEC00F009C052F00AC053F006
:1017D8000BC054F00CC055F00DEF0CF0FFFF52C0D9
:1017E80009F053C00AF054C00BF055C00CF03CC0CF
:1017F8000DF03DC00EF03EC00FF03FC010F04CECB5
:1018080000F009C052F00AC053F00BC054F00CC0ED
:1018180055F0FFFF4EC040F04FC041F050C042F0BD
:1018280051C043F0200E1FEF0CF0FFFFD890433259
:10183800423241324032FFFFE82E19EF0CF040509F
:10184800411042104310D8B42CEF0CF02FEF0CF0DD
:10185800FFFF42EF0CF0FFFF52C009F053C00AF03F
:1018680054C00BF055C00CF082EC16F009C052F0D1
:101878000AC053F00BC054F00CC055F0FFFF52C023
:101888003CF053C03DF054C03EF055C03FF0FFFF60
:101898001200FFFFFFFF116E1150D8B456EF0CF085
:1018A80059EF0CF0FFFF7EEF0CF0FFFF0CBE62EF6C
:1018B8000CF05FEF0CF0FFFF7EEF0CF0FFFF09C0AC
:1018C8000DF00AC00EF00BC00FF00CC010F00D1E8A
:1018D8000E1E0F1E101E0D2A000E0E220F221022A1
:1018E8000DC013F00EC014F00FC015F010C016F0A4
:1018F80087EF0CF0FFFF09C013F00AC014F00BC00B
:1019080015F00CC016F0FFFF09500A100B100C1050
:10191800D8A491EF0CF094EF0CF0FFFF9FEF0CF0C0
:10192800FFFF000E096E000E0A6E000E0B6E000E11
:101938000C6E47EF0DF0FFFF960E126EABEF0CF03A
:10194800FFFF122AD8901632153214321332FFFFD5
:10195800000E13140D6E000E14140E6E000E1514E6
:101968000F6EFE0E1614106E0D500E100F10101084
:10197800D8A4C1EF0CF0C4EF0CF0FFFFA4EF0CF0FB
:10198800FFFFD4EF0CF0FFFF122A010E1326000E02
:10199800142215221622D890163215321432133218
:1019A800FFFF000E13140D6E000E14140E6E000EC1
:1019B80015140F6EFF0E1614106E0D500E100F102A
:1019C8001010D8A4EAEF0CF0EDEF0CF0FFFFC7EF12
:1019D8000CF0FFFFF7EF0CF0FFFF1206D89013365C
:1019E800143615361636FFFF15BEFDEF0CF000EF66
:1019F8000DF0FFFF0AEF0DF0FFFF020E126007EF78
:101A08000DF00AEF0DF0FFFFF0EF0CF0FFFF12B042
:101A180010EF0DF013EF0DF0FFFF15EF0DF0FFFFC6
:101A2800159EFFFFD890123212C00DF00E6A0F6A91
:101A3800106A0DC010F00F6A0E6A0D6A0D5013126D
:101A48000E5014120F501512105016121150D8B40F
:101A580030EF0DF033EF0DF0FFFF3EEF0DF0FFFF1D
:101A68000CBE3CEF0DF039EF0DF0FFFF3EEF0DF02F
:101A7800FFFF168EFFFF13C009F014C00AF015C04F
:101A88000BF016C00CF0FFFF1200FFFFFFFFC80E9F
:101A98000A6E7F0E0B6E8AEC15F07450D8B457EFAF
:101AA8000DF05AEF0DF0FFFF67EF0DF0FFFF750E19
:101AB800106E000E116E41EC0EF010C05BF011C0FC
:101AC8005CF0000E746EFFFFE30E0A6E7F0E0B6E65
:101AD8008AEC15F07450D8B474EF0DF077EF0DF070
:101AE800FFFF84EF0DF0FFFF750E106E000E116EF4
:101AF80041EC0EF010C0DBF011C0DCF0000E746E8B
:101B0800FFFFAC0E0A6E7F0E0B6E8AEC15F0745058
:101B1800D8B491EF0DF094EF0DF0FFFFA1EF0DF0A9
:101B2800FFFF750E106E000E116E41EC0EF010C026
:101B3800D9F011C0DAF0000E746EFFFF740E0A6E51
:101B48007F0E0B6E8AEC15F07450D8B4AEEF0DF022
:101B5800B1EF0DF0FFFFBEEF0DF0FFFF750E106E39
:101B6800000E116E41EC0EF010C0D7F011C0D8F085
:101B7800000E746EFFFF900E0A6E7F0E0B6E8AECDD
:101B880015F07450D8B4CBEF0DF0CEEF0DF0FFFF89
:101B9800DBEF0DF0FFFF750E106E000E116E41ECBD
:101BA8000EF010C0D5F011C0D6F0000E746EFFFF15
:101BB800570E0A6E7F0E0B6E8AEC15F07450D8B46F
:101BC800E8EF0DF0EBEF0DF0FFFFF8EF0DF0FFFF82
:101BD800750E106E000E116E41EC0EF010C0D3F0B1
:101BE80011C0D4F0000E746EFFFFEBC056F0ECC0CD
:101BF80057F0EF0E0D6E000E0E6E560E0F6E000EA5
:101C0800106E000E126E010E116E9AEC14F034EF85
:101C18000EF0FFFF000E596E000E586EFFFFEF0E1C
:101C28005824D96E000E5920DA6EDF5020EC03F0EC
:101C3800584A592A5850536E5950546E584A592A7E
:101C4800EF0E5324D96E000E5420DA6E0A0EDE18F9
:101C5800D8A431EF0EF034EF0EF0FFFF12EF0EF0C4
:101C6800FFFF7450D8B43BEF0EF03EEF0EF0FFFFCD
:101C78000DEF0EF0FFFF1200FFFFFFFF000E1E6EBC
:101C8800000E1D6E000E176E000E166E4FEF0EF052
:101C9800FFFF104A112AFFFF010E1C6E10C0D9FF6A
:101CA80011C0DAFF200EDE18D8B45DEF0EF060EF39
:101CB8000EF0FFFF7FEF0EF0FFFFF70E126EFF0E24
:101CC800136E10C0D9FF11C0DAFFDF50146E156A09
:101CD800125014261350152215500AE1050E145CF3
:101CE800D8A079EF0EF07CEF0EF0FFFF7FEF0EF03B
:101CF800FFFF000E1C6EFFFF1CC018F0196A185079
:101D08001910D8A48AEF0EF08DEF0EF0FFFF4CEFFC
:101D18000EF0FFFF9AEF0EF0FFFF000E176E010E98
:101D2800166EFFFF104A112AD2EF0EF0FFFF10C007
:101D3800D9FF11C0DAFFDF50126E136A1350000A80
:101D4800D8B4A9EF0EF0D2EF0EF0FFFF12502B0A15
:101D5800D8B495EF0EF0060AD8B490EF0EF0D2EF93
:101D68000EF0FFFF1DC009F01EC00AF0000E0C6E39
:101D78000A0E0B6E00EC17F010C0D9FF11C0DAFF85
:101D8800DF50126E1250095E000E0A5A300E0924F6
:101D98001D6E000E0A201E6E95EF0EF0FFFFD00E8E
:101DA800126EFF0E136E10C0D9FF11C0DAFFDF509C
:101DB800146E156A125014261350152215500BE193
:101DC8000A0E145CD8A0EBEF0EF0EFEF0EF0FFFF59
:101DD800010EF1EF0EF0FFFF000EFFFF1A6E1B6AF7
:101DE8001A501B10D8A4FBEF0EF0FEEF0EF0FFFF09
:101DF800B5EF0EF0FFFF16501710D8A406EF0FF03E
:101E080009EF0FF0FFFF18EF0FF0FFFF1DC012F0F2
:101E18001EC013F0121E131E124A132A12C010F00D
:101E280013C011F01DEF0FF0FFFF1DC010F01EC012
:101E380011F0FFFF1200FFFFFFFF2F0EF66E7E0E60
:101E4800F76E20EE80F0410E0900FFFFF5CFDEFFB0
:101E5800E806FAE2000E0001C76F000EC66F50EFE9
:101E68000FF0FFFF800EC625D96E000EC721DA6E6F
:101E78000A0EDE18D8B443EF0FF046EF0FF0FFFF5D
:101E880050EF0FF0FFFF800EC625D96E000EC72158
:101E9800DA6EDF5026EC17F0FFFF0001C64BC72BA8
:101EA800C605C711D8A45BEF0FF05EEF0FF0FFFF78
:101EB80035EF0FF0FFFF000EC36F000EC26FFFFF7C
:101EC800EF0EC225D96E000EC321DA6EDF5026EC64
:101ED80017F00001C24BC32BC251536EC351546E4D
:101EE800C24BC32BEF0E5324D96E000E5420DA6E6A
:101EF8000A0EDE18D8A483EF0FF086EF0FF0FFFF6D
:101F080063EF0FF0FFFF000EC96F000EC86FFFFFF1
:101F1800750EC825D96E000EC921DA6EEF0EC825D8
:101F2800E16E000EC921E26EDFCFE7FFC84BC92B77
:101F3800C851536EC951546EC84BC92B750E5324E2
:101F4800D96E000E5420DA6E0A0EDE18D8A4AFEF50
:101F58000FF0B2EF0FF0FFFF8BEF0FF0FFFFDDEF99
:101F68000FF0FFFF000EC56F000EC46FFFFFEF0EEE
:101F7800C425D96E000EC521DA6EDF5020EC03F0BF
:101F88000001C44BC52BC451536EC551546EC44B8C
:101F9800C52BEF0E5324D96E000E5420DA6E0A0EAC
:101FA800DE18D8A4DAEF0FF0DDEF0FF0FFFFBAEF7D
:101FB8000FF0FFFF7450D8B4E4EF0FF0E7EF0FF025
:101FC800FFFFB5EF0FF0FFFF1200FFFFFFFF1B0E33
:101FD8000A6E7F0E0B6E8AEC15F053EF10F0FFFFC0
:101FE8007450D8B4FAEF0FF0FDEF0FF0FFFF53EF86
:101FF80010F0FFFFAECF80F0EF0E176E000E186ED8
:1020080080C019F01A6AE3EC16F017C081F018C006
:1020180082F0000181518211D8B415EF10F018EF49
:1020280010F0FFFF2DEF10F0FFFFEF0E536E000EC4
:10203800546E010E556E000E566E5350555E545038
:10204800565A81515524856F82515620866F36EF36
:1020580010F0FFFFD80E0A6E7E0E0B6E8AEC15F09C
:10206800000E746EFFFFEF0E000185250D6E000E49
:1020780086210E6EF00E85250F6E000E8621106EDD
:10208800EF0E096E000E0A6E40EC16F00001855145
:10209800095C116E86510A58126EC8EC11F0FFFFE8
:1020A8007450D8B45AEF10F05DEF10F0FFFFF3EF63
:1020B8000FF0FFFF000E746E8BEF10F0FFFF000EA5
:1020C8000001846F000E836FFFFFEF0E8325D96E2A
:1020D800000E8421DA6EDF5020EC03F00001834B00
:1020E800842B8351536E8451546E834B842BEF0E93
:1020F8005324D96E000E5420DA6E0A0EDE18D8A4C6
:1021080088EF10F08BEF10F0FFFF68EF10F0FFFF83
:102118007450D8B492EF10F095EF10F0FFFF62EF13
:1021280010F0FFFF1200FFFFFFFF58345934000181
:10213800856F8551D8A4A3EF10F0A6EF10F0FFFF2C
:10214800B2EF10F0FFFFFFFF000E566E000E576E45
:10215800000E586E000E596E31EF11F0FFFF56C099
:1021680080F057C081F058C082F059C083F0200E2B
:10217800C4EF10F0FFFFD89083338233813380336C
:10218800FFFFE82EBEEF10F08051846F588EFF0ECF
:102198005616FF0E5716FF0E5816000E5916960EB5
:1021A800855F85BFDDEF10F0DAEF10F0FFFFF7EF86
:1021B80010F0FFFF8551800A970FD8B0E6EF10F0B6
:1021C800E9EF10F0FFFFECEF10F0FFFFA7EF10F0C2
:1021D800FFFFD8905932583257325632853FECEFCC
:1021E80010F015EF11F0FFFF1F0E8565FEEF10F0E0
:1021F80001EF11F0FFFF0BEF11F0FFFFA7EF10F059
:10220800FFFFD89056365736583659368507FFFFA0
:102218008551D8A412EF11F015EF11F0FFFF04EF6C
:1022280011F0FFFF8451D8B41CEF11F01FEF11F02B
:10223800FFFF28EF11F0FFFF591E581E571E566C5E
:10224800000E572258225922FFFF56C056F057C099
:1022580057F058C058F059C059F0FFFF1200FFFF5F
:10226800FFFF000E3014386E000E3114396E800EE8
:1022780032143A6E7F0E33143B6E385039103A10D0
:102288003B10D8A44AEF11F04DEF11F0FFFF56EFC5
:1022980011F0FFFF000E306E000E316E000E326E30
:1022A800000E336EFFFF000E3414386E000E351426
:1022B800396E800E36143A6E7F0E37143B6E3850E6
:1022C80039103A103B10D8A46CEF11F06FEF11F0F1
:1022D800FFFF78EF11F0FFFF000E346E000E356E31
:1022E800000E366E000E376EFFFF33AE7EEF11F034
:1022F80081EF11F0FFFF8BEF11F0FFFF306C311E03
:10230800D8B0312A321ED8B0322A800E3356FFFF99
:1023180037AE91EF11F094EF11F0FFFF9EEF11F03F
:10232800FFFF346C351ED8B0352A361ED8B0362A91
:10233800800E3756FFFF000E301A000E311A000EBD
:10234800321A800E331A000E341A000E351A000E97
:10235800361A800E371A3450305C355031583650A2
:10236800325837503358D8B0BCEF11F0BFEF11F0E6
:10237800FFFFC3EF11F0FFFFD890C5EF11F0FFFF8B
:10238800D880FFFF1200FFFFFFFF0FC017F010C03B
:1023980018F00DC015F00EC016F01550175C165049
:1023A8001858D8B0DAEF11F0DDEF11F0FFFF1AEF8F
:1023B80012F0FFFF11501724136E12501820146EDC
:1023C8001350155C14501658D8B0EDEF11F0F0EF1B
:1023D80011F0FFFF1AEF12F0FFFF115017261250ED
:1023E80018221150152612501622FFFF1706D8A0E2
:1023F800180617C0D9FF18C0DAFF1506D8A01606A8
:1024080015C0E1FF16C0E2FFDFCFE7FF1106D8A035
:10241800120611501210D8A414EF12F017EF12F090
:10242800FFFFF9EF11F0FFFF42EF12F0FFFF11502D
:102438001210D8B422EF12F025EF12F0FFFF42EF8E
:1024480012F0FFFFFFFF17C0D9FF18C0DAFF15C051
:10245800E1FF16C0E2FFDFCFE7FF174A182A154A47
:10246800162A1106D8A0120611501210D8A43FEF50
:1024780012F042EF12F0FFFF26EF12F0FFFF1200FA
:10248800FFFFFFFF0F6E0F04D8A44DEF12F050EFBF
:1024980012F0FFFF79EF12F0FFFF030E836E000EBC
:1024A8000A6E010E096EEDEC15F0060E836E000E35
:1024B8000A6E010E096EEDEC15F00C0E836E000E1F
:1024C8000A6E010E096EEDEC15F0090E836E000E12
:1024D8000A6E010E096EEDEC15F0030E836E000E08
:1024E8000A6E010E096EEDEC15F0FFFF0F50D8A42F
:1024F80080EF12F083EF12F0FFFFACEF12F0FFFF56
:10250800090E836E000E0A6E010E096EEDEC15F0D1
:102518000C0E836E000E0A6E010E096EEDEC15F0BE
:10252800060E836E000E0A6E010E096EEDEC15F0B4
:10253800030E836E000E0A6E010E096EEDEC15F0A7
:10254800090E836E000E0A6E010E096EEDEC15F091
:10255800FFFF1200FFFFFFFF0F6E0F04D8A4B7EFB5
:1025680012F0BAEF12F0FFFFE3EF12F0FFFF300EA8
:10257800816E000E0A6E010E096EEDEC15F0600E0C
:10258800816E000E0A6E010E096EEDEC15F0C00E9C
:10259800816E000E0A6E010E096EEDEC15F0900EBC
:1025A800816E000E0A6E010E096EEDEC15F0300E0C
:1025B800816E000E0A6E010E096EEDEC15F0FFFF3C
:1025C8000F50D8A4EAEF12F0EDEF12F0FFFF16EF6C
:1025D80013F0FFFF900E816E000E0A6E010E096E59
:1025E800EDEC15F0C00E816E000E0A6E010E096E3C
:1025F800EDEC15F0600E816E000E0A6E010E096E8C
:10260800EDEC15F0300E816E000E0A6E010E096EAB
:10261800EDEC15F0900E816E000E0A6E010E096E3B
:10262800EDEC15F0FFFF1200FFFFFFFF0F6E0F0428
:10263800D8A421EF13F024EF13F0FFFF4DEF13F0B0
:10264800FFFF030E816E000E0A6E010E096EEDEC9F
:1026580015F0060E816E000E0A6E010E096EEDEC85
:1026680015F00C0E816E000E0A6E010E096EEDEC6F
:1026780015F0090E816E000E0A6E010E096EEDEC62
:1026880015F0030E816E000E0A6E010E096EEDEC58
:1026980015F0FFFF0F50D8A454EF13F057EF13F0C5
:1026A800FFFF80EF13F0FFFF090E816E000E0A6E28
:1026B800010E096EEDEC15F00C0E816E000E0A6E1F
:1026C800010E096EEDEC15F0060E816E000E0A6E15
:1026D800010E096EEDEC15F0030E816E000E0A6E08
:1026E800010E096EEDEC15F0090E816E000E0A6EF2
:1026F800010E096EEDEC15F0FFFF1200FFFFFFFF62
:10270800850E0A6E7E0E0B6E8AEC15F0FFFF745074
:10271800D8B491EF13F094EF13F0FFFF8AEF13F0A2
:10272800FFFF75C05AF0000E26EC17F0000E746E0D
:10273800C4EF13F0FFFF430E20EC03F0410E20EC32
:1027480003F0420E20EC03F0FFFF7450D8B4AFEF53
:1027580013F0B2EF13F0FFFF9EEF13F0FFFFE4EF6B
:1027680013F0FFFF20EC0FF0E4EF13F0FFFF4AEC4B
:102778000DF0E4EF13F0FFFFEAEC0FF0E4EF13F0D5
:10278800FFFF5A500001CA6FCB6BCB51000AD8B477
:10279800D0EF13F0E4EF13F0FFFFCA51310AD8B4B9
:1027A800A8EF13F0030AD8B4B5EF13F0010AD8B4B0
:1027B800BAEF13F0070AD8B4BFEF13F0E4EF13F041
:1027C800FFFF000E746E1200FFFFFFFF0F6E0F0475
:1027D800D8A4F1EF13F0F4EF13F0FFFF15EF14F0A6
:1027E800FFFF300E836E000E0A6E010E096EEDECCF
:1027F80015F0C00E836E000E0A6E010E096EEDEC28
:1028080015F0900E836E000E0A6E010E096EEDEC47
:1028180015F0300E836E000E0A6E010E096EEDEC97
:1028280015F0FFFF0F50D8A41CEF14F01FEF14F0A1
:10283800FFFF40EF14F0FFFF900E836E000E0A6E4C
:10284800010E096EEDEC15F0600E836E000E0A6E37
:10285800010E096EEDEC15F0300E836E000E0A6E57
:10286800010E096EEDEC15F0900E836E000E0A6EE7
:10287800010E096EEDEC15F0FFFF1200FFFFFFFFE0
:1028880015EC17F0C3EC16F04EEC17F0F28E83EC53
:1028980013F0FFFF7450D8B454EF14F057EF14F04E
:1028A800FFFF4DEF14F0FFFFAECFCCF00001CC518D
:1028B80026EC17F00D0E26EC17F00A0E26EC17F092
:1028C800480E26EC17F0650E26EC17F06C0E26EC79
:1028D80017F06C0E26EC17F06F0E26EC17F0200E92
:1028E80026EC17F0570E26EC17F06F0E26EC17F0B3
:1028F800720E26EC17F06C0E26EC17F0640E26EC20
:1029080017F0210E26EC17F00D0E26EC17F00A0E24
:1029180026EC17F00D0E26EC17F00A0E26EC17F031
:10292800000E746E4DEF14F04AEF00F0FFFF0DC07B
:1029380009F00EC00AF040EC16F009500D260A50B6
:102948000E22B9EF14F0FFFF1106D8A012060FC02F
:10295800D9FF10C0DAFF0DC0E1FF0EC0E2FFDFCFE4
:10296800E7FF0F4A102A0D4A0E2AFFFF11501210D6
:10297800D8B4C1EF14F0C4EF14F0FFFFD2EF14F095
:10298800FFFF0FC0D9FF10C0DAFFDF50D8A4CFEF88
:1029980014F0D2EF14F0FFFFA7EF14F0FFFF0DC003
:1029A800D9FF0EC0DAFF000EDF6E0D4A0E2A1200A4
:1029B800FFFFFFFF0DC015F00EC016F00FC00FF09F
:1029C800106A07EF15F0FFFF11501524D96E125049
:1029D8001620DA6EDF50136E146A0F50131807E1D1
:1029E80010501418D8A4FBEF14F0FEEF14F0FFFFFA
:1029F80007EF15F0FFFF115015240D6E1250162029
:102A08000E6E1BEF15F0FFFF1106D8A01206112855
:102A180006E11228D8A413EF15F016EF15F0FFFF02
:102A2800E7EF14F0FFFF000E0D6E000E0E6EFFFFB5
:102A38001200FFFFFFFF000E116E000E106EFFFF69
:102A4800000E45EC12F0104A112A11BE35EF15F0B0
:102A580011500AE10F0E105CD8A035EF15F038EFD1
:102A680015F0FFFF23EF15F0FFFF000E136E000EA9
:102A7800126EFFFF010E45EC12F0124A132A13BE24
:102A88004FEF15F013500AE10F0E125CD8A04FEF6C
:102A980015F052EF15F0FFFF3DEF15F0FFFF1200A4
:102AA800FFFF8C0EF66E2E0EF76E000EF86E00EE1F
:102AB800E3F010EE10F00900F5CFEEFFE550E1501D
:102AC800FAE1A80EF66E2E0EF76E000EF86E0900EB
:102AD800F5CF75F00900F5CF76F001EE00F01E0E87
:102AE800EE6AE806FDE100EECDF0160EEE6AE806A5
:102AF800FDE100EE5BF01A0EEE6AE806FDE1779064
:102B08007792000EF86E000143EF14F0FFFF000EFD
:102B18000F6E000E0E6EA3EF15F0FFFF0E500A2485
:102B28000C6E0F500B200D6E0CC0F6FF0DC0F7FF9A
:102B38000800FFFFF55026EC17F00E4A0F2AFFFF9A
:102B48000E500A240C6E0F500B200D6E0CC0F6FFB1
:102B58000DC0F7FF0800FFFFF5500009D8A4B7EF34
:102B680015F0BAEF15F0FFFF91EF15F0FFFF120017
:102B7800FFFFFFFF010E0F6E200E09180A10D8B4D0
:102B8800C8EF15F0CBEF15F0FFFFE7EF15F0FFFFEB
:102B9800F70E0B6EFF0E0C6E09C00DF00AC00EF09A
:102BA8000B500D260C500E220E500AE1050E0D5C3E
:102BB800D8A0E1EF15F0E4EF15F0FFFFE7EF15F00F
:102BC800FFFF000E0F6EFFFF0FC009F00A6A120028
:102BD800FFFFFFFF000E0C6E000E0B6E0BEF16F0E2
:102BE800FFFF000E0E6E000E0D6EFFFF0D4A0E2A3F
:102BF800720E0D5C060E0E58D8A005EF16F008EF01
:102C080016F0FFFFF9EF15F0FFFF0B4A0C2AFFFF44
:102C180009500B5C0A500C58D8A015EF16F018EFA5
:102C280016F0FFFFF4EF15F0FFFF1200FFFFFFFFA4
:102C3800000E1D1A000E1E1A000E1F1A800E201AF2
:102C480019C009F01AC00AF01BC00BF01CC00CF028
:102C58001DC00DF01EC00EF01FC00FF020C010F0F8
:102C68004CEC00F009C019F00AC01AF00BC01BF0B8
:102C78000CC01CF01200FFFFFFFF09C00BF00AC0D8
:102C88000CF04AEF16F0FFFF094A0A2AFFFF09C0B5
:102C9800D9FF0AC0DAFFDF50D8A455EF16F058EF75
:102CA80016F0FFFF47EF16F0FFFF0B50095C096EA7
:102CB8000C500A580A6E1200FFFFFFFFD00E0B6E71
:102CC800FF0E0C6E09C00DF00AC00EF00B500D2659
:102CD8000C500E220E500BE10A0E0D5CD8A077EFB7
:102CE80016F07BEF16F0FFFF010E7DEF16F0FFFFE9
:102CF800000EFFFF096E0A6A1200FFFFFFFF09506E
:102D08000A100B100C10D8B48CEF16F08FEF16F0D9
:102D1800FFFF98EF16F0FFFF000E091A000E0A1ABF
:102D2800000E0B1A800E0C1AFFFF09C009F00AC02A
:102D38000AF00BC00BF00CC00CF01200FFFFFFFFF5
:102D48000B50095C0A50800A0D6E0C50800A0D5811
:102D5800D8B0B1EF16F0B4EF16F0FFFFBBEF16F0E6
:102D6800FFFF000E0A6E000E096EC0EF16F0FFFF9F
:102D7800000E0A6E010E096EFFFF1200FFFFFFFF33
:102D8800550E3C6E550E3D6EC80E3E6E410E3F6EA2
:102D98005BEC0AF03CC056F03DC057F03EC058F01E
:102DA8003FC059F098EC10F05650AF6EAC9CAC8A0E
:102DB800AC98AC84AB8EAB9CAB881200FFFFFFFFD6
:102DC80017C00DF018C00EF019C00FF01AC010F09F
:102DD80017C009F018C00AF040EC16F0010E0924DB
:102DE800116E000E0A20126EDDEC14F00DC017F003
:102DF8000EC018F01200FFFFFFFF09500B02F3CFBF
:102E08000DF0F4CF0EF009500C02F3500E260A50C4
:102E18000B02F3500E260DC009F00EC00AF0120086
:102E2800FFFFFFFF000E936E000E956E0F0E816E72
:102E38000F0E836E000E8B6E000E826E948E949C25
:102E48001200FFFFFFFF096E09C0ADFFFFFFACA234
:102E580030EF17F033EF17F0FFFF2AEF17F0FFFFFF
:102E68001200FFFFFFFF016E01C0ADFFFFFFACA224
:102E780040EF17F043EF17F0FFFF3AEF17F0FFFFAF
:102E88001200FFFFBD378634BD37863444001E006C
:102E980043414200FFFF9E9A9D8AF28C1200FFFF79
:042EA8002000FFFF08
:107E2E0000506C65617365206769766520746865BE
:107E3E00206E65772073657175656E63652061735D
:107E4E0020696E7075740D205468652063757272AA
:107E5E00656E742073657175656E63652069733A1E
:107E6E00200A000000004B000016460000164600D7
:107E7E0024744A0024744A0A312E204465666175C2
:107E8E006C742053657175656E63650A322E2043DE
:107E9E0068616E67652073657175656E63650A331B
:107EAE002E20416464206E657720636F6D706F6E57
:107EBE00656E740A342E2052656D6F7665206120D2
:107ECE00636F6D706F6E656E7400636F6D706F6E45
:107EDE00656E74206973206E6F7420696E207468ED
:107EEE00652073657175656E63652E200A5472790F
:107EFE002073656C656374696E6720616E6F74685C
:107F0E00657220636F6D706F6E656E740057686971
:107F1E00636820636F6D706F6E656E7420776F751A
:107F2E006C6420796F75206C696B6520746F20729C
:107F3E00656D6F76652066726F6D207468652020A2
:107F4E0073657175656E636500456E746572207438
:107F5E00686520706C616365206F7269656E74610F
:107F6E0074696F6E3A00456E746572207468652090
:107F7E00706C61636520706F736974696F6E2058E1
:107F8E003A00456E7465722074686520706C61638A
:107F9E006520706F736974696F6E20593A00456E73
:107FAE0074657220746865207069636B206F7269E6
:107FBE00656E746174696F6E3A00456E74657220F9
:107FCE00746865207069636B20706F736974696F74
:107FDE006E20583A00456E74657220746865207084
:107FEE0069636B20706F736974696F6E20593A0004
:017FFE000082
:020000040020DA
:08000000FFFFFFFFFFFFFFFF00
:020000040030CA
:0E000000FF210D0EFF0080FF0FC00FE00F402C
:00000001FF
