:020000040000FA
:0600000000F06EEF00F0BD
:10000800FFFF7882D9CF04F0DACF05F0000E076E33
:10001800000E066EFFFFF2B214EF00F017EF00F0CB
:10002800FFFF20EF00F0FFFF9EAA1DEF00F020EF7A
:1000380000F0FFFF0EEF00F0FFFFEB0E0624D96E75
:10004800000E0720DA6EAECFDFFFF2B22EEF00F01F
:1000580031EF00F0FFFF48EF00F0FFFF0650016EA0
:100068000750026E064A072AEB0E0124D96E000ECD
:100078000220DA6E0A0EDE18D8A445EF00F048EF29
:1000880000F0FFFF0EEF00F0FFFF9E9A010E766E64
:10009800EBC077F0F2A253EF00F056EF00F0FFFF4D
:1000A80066EF00F0FFFFF2A85CEF00F05FEF00F0F2
:1000B800FFFF66EF00F0FFFFF292FD0E0001EB6F0D
:1000C800010E756EFFFF05C0DAFF04C0D9FF7892F4
:1000D8001100FFFFB0EF17F0FFFF0001BE6F000136
:1000E800BE51DBEC10F06F50635C6450800A3B6ECD
:1000F8007050800A3B58D8A084EF00F088EF00F0D9
:10010800FFFF010E8AEF00F0FFFF000EFFFF746E85
:100118006B50615C6250800A3B6E6C50800A3B58A1
:10012800D8A099EF00F09DEF00F0FFFF010E9FEFC0
:1001380000F0FFFF000EFFFF736E67505F5C6050BA
:10014800800A3B6E6850800A3B58D8A0AEEF00F09A
:10015800B2EF00F0FFFF010EB4EF00F0FFFF000E5A
:10016800FFFF726E000E0001C06F000EBF6FC4EF7C
:1001780000F0FFFF7450C5EC14F00001BF4BC02B1A
:10018800FFFF63506F5C3B6E645070583C6E3CBE22
:10019800D9EF00F03C5006E13B04D8B0D6EF00F0B0
:1001A800D9EF00F0FFFFEAEF00F0FFFF63506F5C4C
:1001B8003B6E645070583C6E3B1E3C1E3B4A3C2ACA
:1001C8003BC0C1F03CC0C2F0F1EF00F0FFFF63504C
:1001D8006F5CC16F64507058C26FFFFFC151BF5D43
:1001E800C051800A3B6EC251800A3B58D8B0FFEF1D
:1001F80000F002EF01F0FFFF0CEF01F0FFFF755078
:10020800D8B409EF01F00CEF01F0FFFFBDEF00F0EB
:10021800FFFF000EC46F000EC36F1AEF01F0FFFF5F
:10022800735045EC14F00001C34BC42BFFFF615021
:100238006B5C3B6E62506C583C6E3CBE2FEF01F01D
:100248003C5006E13B04D8B02CEF01F02FEF01F051
:10025800FFFF40EF01F0FFFF61506B5C3B6E6250A7
:100268006C583C6E3B1E3C1E3B4A3C2A3BC0C5F0CA
:100278003CC0C6F047EF01F0FFFF61506B5CC56FF3
:1002880062506C58C66FFFFFC551C35DC451800AE8
:100298003B6EC651800A3B58D8B055EF01F058EF75
:1002A80001F0FFFF62EF01F0FFFF7550D8B45FEF78
:1002B80001F062EF01F0FFFF13EF01F0FFFF000E06
:1002C800C86F000EC76F70EF01F0FFFF7250C2ECED
:1002D80015F00001C74BC82BFFFF67505F5C3B6EF2
:1002E800685060583C6E3CBE85EF01F03C5006E11A
:1002F8003B04D8B082EF01F085EF01F0FFFF96EFE5
:1003080001F0FFFF67505F5C3B6E685060583C6EC1
:100318003B1E3C1E3B4A3C2A3BC0C9F03CC0CAF0CD
:100328009DEF01F0FFFF67505F5CC96F6850605830
:10033800CA6FFFFFC7C008F0C8C009F0000E09BEA9
:10034800FF0E0A6E0B6E010E44EC0EF008C02FF083
:1003580009C030F00AC031F00BC032F0660E1A6ED8
:10036800660E1B6E660E1C6E400E1D6EC9C008F030
:10037800CAC009F0000E09BEFF0E0A6E0B6E010E10
:1003880044EC0EF008C016F009C017F00AC018F0C7
:100398000BC019F038EC09F016C033F017C034F070
:1003A80018C035F019C036F0ACEC12F0D8B0DFEF59
:1003B80001F0E2EF01F0FFFFECEF01F0FFFF7550F5
:1003C800D8B4E9EF01F0ECEF01F0FFFF69EF01F0BD
:1003D800FFFF000E0001CC6F000ECB6FFBEF01F0AA
:1003E800FFFF010EC5EC13F00001CB4BCC2BFFFF38
:1003F800CCBF0BEF02F0CC5107E1030ECB5DD8B0B8
:1004080008EF02F00BEF02F0FFFF15EF02F0FFFF1D
:100418007550D8B412EF02F015EF02F0FFFFF4EFB9
:1004280001F0FFFF000ECE6F000ECD6F23EF02F03C
:10043800FFFF000EC5EC13F00001CD4BCE2BFFFFE4
:10044800CEBF33EF02F0CE5107E1030ECD5DD8B039
:1004580030EF02F033EF02F0FFFF3DEF02F0FFFF55
:100468007550D8B43AEF02F03DEF02F0FFFF1CEFF1
:1004780002F0FFFF6D506F5C7050800A3B6E6E504B
:10048800800A3B58D8A04BEF02F04FEF02F0FFFF75
:10049800010E51EF02F0FFFF000EFFFF746E69506E
:1004A8006B5C6C50800A3B6E6A50800A3B58D8A03F
:1004B80060EF02F064EF02F0FFFF010E66EF02F05A
:1004C800FFFF000EFFFF736E6550675C6850800A7F
:1004D8003B6E6650800A3B58D8A075EF02F079EF62
:1004E80002F0FFFF010E7BEF02F0FFFF000EFFFF9F
:1004F800726E000ED06F000ECF6F8AEF02F0FFFF12
:100508007450C5EC14F00001CF4BD02BFFFF6F5097
:100518006D5C3B6E70506E583C6E3CBE9FEF02F0B7
:100528003C5006E13B04D8B09CEF02F09FEF02F08C
:10053800FFFFB0EF02F0FFFF6F506D5C3B6E705035
:100548006E583C6E3B1E3C1E3B4A3C2A3BC0D1F0D9
:100558003CC0D2F0B7EF02F0FFFF6F506D5CD16F77
:1005680070506E58D26FFFFFD151CF5DD051800AC5
:100578003B6ED251800A3B58D8B0C5EF02F0C8EFA5
:1005880002F0FFFFD2EF02F0FFFF7550D8B4CFEFB3
:1005980002F0D2EF02F0FFFF83EF02F0FFFF000E40
:1005A800D46F000ED36FE0EF02F0FFFF735045ECFD
:1005B80014F00001D34BD42BFFFF6B50695C3B6EEA
:1005C8006C506A583C6E3CBEF5EF02F03C5006E1B8
:1005D8003B04D8B0F2EF02F0F5EF02F0FFFF06EFB0
:1005E80003F0FFFF6B50695C3B6E6C506A583C6EC1
:1005F8003B1E3C1E3B4A3C2A3BC0D5F03CC0D6F0D3
:100608000DEF03F0FFFF6B50695CD56F6C506A58B3
:10061800D66FFFFFD551D35DD451800A3B6ED651BA
:10062800800A3B58D8B01BEF03F01EEF03F0FFFF22
:1006380028EF03F0FFFF7550D8B425EF03F028EF3B
:1006480003F0FFFFD9EF02F0FFFF000ED86F000E96
:10065800D76F36EF03F0FFFF7250C2EC15F00001C0
:10066800D74BD82BFFFF6550675C3B6E66506858C8
:100678003C6E3CBE4BEF03F03C5006E13B04D8B067
:1006880048EF03F04BEF03F0FFFF5CEF03F0FFFFD1
:100698006550675C3B6E665068583C6E3B1E3C1E5E
:1006A8003B4A3C2A3BC0D9F03CC0DAF063EF03F088
:1006B800FFFF6550675CD96F66506858DA6FFFFFB7
:1006C800D7C008F0D8C009F0000E09BEFF0E0A6EA8
:1006D8000B6E010E44EC0EF008C02FF009C030F08C
:1006E8000AC031F00BC032F0660E1A6E660E1B6E31
:1006F800660E1C6E400E1D6ED9C008F0DAC009F0F7
:10070800000E09BEFF0E0A6E0B6E010E44EC0EF0D1
:1007180008C016F009C017F00AC018F00BC019F08D
:1007280038EC09F016C033F017C034F018C035F0B3
:1007380019C036F0ACEC12F0D8B0A5EF03F0A8EF72
:1007480003F0FFFFB2EF03F0FFFF7550D8B4AFEF2F
:1007580003F0B2EF03F0FFFF2FEF03F0FFFF000EEF
:100768000001DC6F000EDB6FC1EF03F0FFFF010E2D
:10077800C5EC13F00001DB4BDC2BFFFFDCBFD1EF36
:1007880003F0DC5107E1030EDB5DD8B0CEEF03F0D8
:10079800D1EF03F0FFFFDBEF03F0FFFF7550D8B494
:1007A800D8EF03F0DBEF03F0FFFFBAEF03F0FFFF32
:1007B800000EDE6F000EDD6FE9EF03F0FFFF000EA5
:1007C800C5EC13F00001DD4BDE2BFFFFDEBFF9EFB8
:1007D80003F0DE5107E1030EDD5DD8B0F6EF03F05C
:1007E800F9EF03F0FFFF03EF04F0FFFF7550D8B4F3
:1007F80000EF04F003EF04F0FFFFE2EF03F0FFFF68
:1008080065C05FF066C060F06DC063F06EC064F0F4
:1008180069C061F06AC062F01200FFFFFFFF0B5071
:10082800800B146E0B500B24166E0AAE1EEF04F0EC
:1008380021EF04F0FFFF23EF04F0FFFF1680FFFF16
:100848001650D8B42AEF04F02DEF04F0FFFF46EF5E
:1008580004F0FFFF1628D8A434EF04F037EF04F0B3
:10086800FFFF40EF04F0FFFF000E086E000E096E58
:10087800000E0A6E000E0B6EFFFF0A8E000E0B6E46
:100888004FEF04F0FFFF000E086E000E096E000E19
:100898000A6E000E0B6EFFFF0F50800B156E145082
:1008A8001518D8B45AEF04F05DEF04F0FFFF5FEFBE
:1008B80004F0FFFF148CFFFF0F500F24156E0EAECF
:1008C80068EF04F06BEF04F0FFFF6DEF04F0FFFF3B
:1008D8001580FFFF1550D8B474EF04F077EF04F0DB
:1008E800FFFF90EF04F0FFFF1528D8A47EEF04F077
:1008F80081EF04F0FFFF8AEF04F0FFFF000E0C6E9B
:10090800000E0D6E000E0E6E000E0F6EFFFF0E8EA7
:10091800000E0F6E99EF04F0FFFF000E0C6E000E34
:100928000D6E000E0E6E000E0F6EFFFF1650155C5A
:10093800D8B0A1EF04F0A4EF04F0FFFFCFEF04F06C
:10094800FFFF14ACAAEF04F0ADEF04F0FFFFB0EF27
:1009580004F0FFFF800E141AFFFF16C017F015C031
:1009680016F017C015F008C017F00CC008F017C033
:100978000CF009C017F00DC009F017C00DF00AC03F
:1009880017F00EC00AF017C00EF00BC017F00FC01A
:100998000BF017C00FF0FFFF000E176E165015C0B2
:1009A80010F0116A105E000E115A11BEE5EF04F046
:1009B80011500AE11A0E105CD8A0E5EF04F0E8EF38
:1009C80004F0FFFF2BEF05F0FFFF085009100A1095
:1009D8000B10D8A4F2EF04F0F6EF04F0FFFF010EBD
:1009E800F8EF04F0FFFF000EFFFF176E000E086E11
:1009F800000E096E000E0A6E000E0B6E15C016F082
:100A080036EF05F0FFFF17A00CEF05F00FEF05F02C
:100A1800FFFF16EF05F0FFFFD89017300109176E9A
:100A280019EF05F0FFFFD8901732FFFF08A01FEF5E
:100A380005F022EF05F0FFFF24EF05F0FFFF178E0A
:100A4800FFFF0B340B320A3209320832162AFFFF35
:100A58001550165CD8A033EF05F036EF05F0FFFF10
:100A680006EF05F0FFFF14BC3CEF05F03FEF05F083
:100A7800FFFF8CEF05F0FFFF1650D8A446EF05F0F6
:100A880049EF05F0FFFF54EF05F0FFFF000E086E79
:100A9800000E096E000E0A6E000E0B6EE3EF06F0F4
:100AA800FFFF0C5008260D5009220E500A220F5045
:100AB8000B220BA062EF05F065EF05F0FFFF30EFAA
:100AC80006F0FFFF17A06BEF05F06EEF05F0FFFFD4
:100AD80075EF05F0FFFFD89017300109176E78EF12
:100AE80005F0FFFFD8901732FFFF08A07EEF05F052
:100AF80081EF05F0FFFF83EF05F0FFFF178EFFFF83
:100B08000B340B320A3209320832162A30EF06F05B
:100B1800FFFF0C50085C0D5009580E500A580B5036
:100B2800800A106E0F50800A1058D8B09EEF05F05A
:100B3800A1EF05F0FFFFCFEF05F0FFFF08500C5CB9
:100B4800106E09500D58116E0A500E58126E0B5047
:100B58000F58136EFF0E1024086EFF0E1120096E39
:100B6800FF0E12200A6EFF0E13200B6E800E141A51
:100B7800176C1750D8A4C3EF05F0C6EF05F0FFFFB8
:100B8800D8EF05F0FFFF010E0826000E09220A2201
:100B98000B22D8EF05F0FFFF0C50085E0D50095AE4
:100BA8000E500A5A0F500B5AFFFF085009100A102E
:100BB8000B10D8A4E2EF05F0E5EF05F0FFFF27EFF3
:100BC80006F0FFFF1750D8A4ECEF05F0EFEF05F0A3
:100BD800FFFF27EF06F0FFFF000E086E000E096EFC
:100BE800000E0A6E000E0B6EE3EF06F0FFFFD890C2
:100BF800083609360A360B3617AE05EF06F008EF49
:100C080006F0FFFF0AEF06F0FFFF0880FFFF17A0BE
:100C180010EF06F013EF06F0FFFF18EF06F0FFFFE6
:100C2800D88017361BEF06F0FFFFD8901736FFFF66
:100C38001650D8B422EF06F025EF06F0FFFF27EF95
:100C480006F0FFFF1606FFFF0AAE2DEF06F030EFA5
:100C580006F0FFFFFAEF05F0FFFF000E156E17AE66
:100C680038EF06F03BEF06F0FFFF5AEF06F0FFFF04
:100C780017C010F07F0E1016D8B445EF06F048EFF5
:100C880006F0FFFF4EEF06F0FFFFFFFF010E156EA7
:100C98005AEF06F0FFFF08A054EF06F057EF06F0F2
:100CA800FFFF5AEF06F0FFFF49EF06F0FFFF155070
:100CB800D8B461EF06F064EF06F0FFFF94EF06F09A
:100CC800FFFF010E0826000E09220A220B220BA0A4
:100CD80070EF06F073EF06F0FFFF94EF06F0FFFFEA
:100CE80008C010F009C011F00AC012F00BC013F0D0
:100CF8001334133212321132103210C008F011C0FE
:100D080009F012C00AF013C00BF01628D8B48FEF00
:100D180006F092EF06F0FFFF94EF06F0FFFF162AA9
:100D2800FFFF1628D8B49BEF06F09EEF06F0FFFFF2
:100D3800A8EF06F0FFFF1650D8A4A5EF06F0A8EF1D
:100D480006F0FFFFBDEF06F0FFFF000E086E000E75
:100D5800096E000E0A6E000E0B6E1650D8A4B7EF7F
:100D680006F0BAEF06F0FFFFBDEF06F0FFFF000E3A
:100D7800146EFFFF16A0C3EF06F0C6EF06F0FFFFE4
:100D8800CAEF06F0FFFF0A8ECCEF06F0FFFF0A9EBF
:100D9800FFFFD89016300B6E14AED5EF06F0D8EFE3
:100DA80006F0FFFFDAEF06F0FFFF0B8EFFFF08C02B
:100DB80008F009C009F00AC00AF00BC00BF0FFFFE9
:100DC8001200FFFFFFFF0B50800B146E0B500B241B
:100DD8001A6E0AAEF2EF06F0F5EF06F0FFFFF7EF36
:100DE80006F0FFFF1A80FFFF1A50D8B4FEEF06F096
:100DF80001EF07F0FFFF18EF07F0FFFF1A28D8A44C
:100E080008EF07F00BEF07F0FFFF14EF07F0FFFF05
:100E1800000E086E000E096E000E0A6E000E0B6EB4
:100E2800FFFF0A8E21EF07F0FFFF000E086E000E8D
:100E3800096E000E0A6E000E0B6EFFFF0F50800B3E
:100E4800141A0F500F24196E0EAE2DEF07F030EF65
:100E580007F0FFFF32EF07F0FFFF1980FFFF19507F
:100E6800D8B439EF07F03CEF07F0FFFF53EF07F076
:100E7800FFFF1928D8A443EF07F046EF07F0FFFF5C
:100E88004FEF07F0FFFF000E0C6E000E0D6E000E08
:100E98000E6E000E0F6EFFFF0E8E5CEF07F0FFFF69
:100EA800000E0C6E000E0D6E000E0E6E000E0F6E14
:100EB800FFFF1950D8B463EF07F066EF07F0FFFFA4
:100EC80070EF07F0FFFF1A50D8A46DEF07F070EF2E
:100ED80007F0FFFF7BEF07F0FFFF000E086E000E24
:100EE800096E000E0A6E000E0B6E35EF09F0FFFF5B
:100EF8000E500802F3CF1FF0F4CF20F01F50156EEC
:100F0800166A176A186A20501B6E1C6A1D6A1E6AC8
:100F18000D500902F3CF1FF0F4CF20F01F50152613
:100F2800000E16221722182220501B26000E1C2203
:100F38001D221E220C500A02F3CF1FF0F4CF20F01E
:100F48001F501526000E16221722182220501B2685
:100F5800000E1C221D221E2217C018F016C017F002
:100F680015C016F0156A0C500902F3CF1FF0F4CF24
:100F780020F01F50152620501622000E1722000EB2
:100F880018220D500802F3CF1FF0F4CF20F01F50A5
:100F9800152620501622000E1722000E182217C000
:100FA80018F016C017F015C016F0156A0C50080294
:100FB800F3CF1FF0F4CF20F01F5015262050162233
:100FC800000E1722000E18220E500902F3CF1FF050
:100FD800F4CF20F01F501B2620501C22000E1D228B
:100FE800000E1E220D500A02F3CF1FF0F4CF20F09E
:100FF8001F501B2620501C22000E1D22000E1E22F0
:101008000E500A02F3CF1FF0F4CF20F01F50106EDD
:101018002050116E126A136A12C013F011C012F038
:1010280010C011F0106A10501B2611501C221250CB
:101038001D2213501E2215C010F016C011F017C043
:1010480012F018C013F0190E30EF08F0FFFFD89017
:101058001332123211321032FFFFE82E2AEF08F055
:1010680010501B2611501C2212501D2213501E22F4
:1010780017C018F016C017F015C016F0156A1950E9
:101088001AC010F0116A1026000E1122820E1024C8
:101098001F6EFF0E1120206E6BEF08F0FFFFD89037
:1010A8001B361C361D361E3618AE5DEF08F060EF95
:1010B80008F0FFFF62EF08F0FFFF1B80FFFFD890EA
:1010C80015361636173618361F06D8A02006FFFF25
:1010D8001DAE71EF08F074EF08F0FFFF52EF08F053
:1010E800FFFF000E196E18AE7CEF08F07FEF08F0D6
:1010F800FFFFAAEF08F0FFFFFF0E1514106EFF0E9A
:101108001614116EFF0E1714126E7F0E1814136E3C
:101118001050111012101310D8B495EF08F098EF72
:1011280008F0FFFF9EEF08F0FFFFFFFF010E196EAA
:10113800AAEF08F0FFFF1BA0A4EF08F0A7EF08F044
:10114800FFFFAAEF08F0FFFF99EF08F0FFFF195023
:10115800D8B4B1EF08F0B4EF08F0FFFFDBEF08F008
:10116800FFFF010E1B26000E1C221D221E221EA0A0
:10117800C0EF08F0C3EF08F0FFFFDBEF08F0FFFF58
:101188001BC010F01CC011F01DC012F01EC013F0DF
:101198001334133212321132103210C01BF011C046
:1011A8001CF012C01DF013C01EF01F4A202AFFFFBA
:1011B80020BEE7EF08F0205009E11F28D8A0E7EF8C
:1011C80008F0EAEF08F0FFFFF5EF08F0FFFF000E68
:1011D8001B6E000E1C6E800E1D6E7F0E1E6E2AEF9B
:1011E80009F0FFFF20BE04EF09F0205006E11F04BC
:1011F800D8B001EF09F004EF09F0FFFF11EF09F093
:10120800FFFF000E1B6E000E1C6E000E1D6E000E02
:101218001E6E000E146E2AEF09F0FFFF1FC01AF0B1
:10122800FF0E1B16FF0E1C167F0E1D16000E1E1637
:101238001AA021EF09F024EF09F0FFFF26EF09F0CB
:10124800FFFF1D8EFFFFD8901A301E6EFFFF14504F
:101258001E121BC008F01CC009F01DC00AF01EC0F9
:101268000BF0FFFF1200FFFFFFFF1950800B266EE7
:10127800195019242D6E18AE44EF09F047EF09F004
:10128800FFFF49EF09F0FFFF2D80FFFF2D50D8B475
:1012980050EF09F053EF09F0FFFF6CEF09F0FFFF83
:1012A8002D28D8A45AEF09F05DEF09F0FFFF66EF8B
:1012B80009F0FFFF000E166E000E176E000E186E76
:1012C800000E196EFFFF188E000E196E75EF09F0EB
:1012D800FFFF000E166E000E176E000E186E000E41
:1012E800196EFFFF1D50800B261A1D501D242E6EEF
:1012F8001CAE81EF09F084EF09F0FFFF86EF09F0DB
:10130800FFFF2E80FFFF2E50D8B48DEF09F090EF2D
:1013180009F0FFFFA9EF09F0FFFF2E28D8A497EFE7
:1013280009F09AEF09F0FFFFA3EF09F0FFFF000EA5
:101338001A6E000E1B6E000E1C6E000E1D6EFFFF57
:101348001C8E000E1D6EB2EF09F0FFFF000E1A6E24
:10135800000E1B6E000E1C6E000E1D6EFFFF1A5055
:101368001B101C101D10D8A4BCEF09F0BFEF09F02A
:10137800FFFFD9EF09F0FFFF000E166E000E176E83
:10138800000E186E000E196E800E18127F0E1912BC
:10139800FFFF2650191216C016F017C017F018C014
:1013A80018F019C019F04EEF0BF0FFFF2D50D8A41C
:1013B800E0EF09F0E3EF09F0FFFFEEEF09F0FFFFC0
:1013C800000E166E000E176E000E186E000E196EC7
:1013D8004EEF0BF0FFFF2E502DC01EF01F6A1E5E51
:1013E800000E1F5A7F0E1E24276E000E1F20286E27
:1013F80016C022F017C023F018C024F019C025F039
:10140800000E166E000E176E000E186E000E196E86
:10141800000E296E000E2A6E000E2B6E000E2C6E2A
:10142800000E2E6E5AEF0AF0FFFF2E50D8B41FEFB1
:101438000AF022EF0AF0FFFF3DEF0AF0FFFFD89015
:101448002236233624362536D890163617361836DF
:1014580019362CAE32EF0AF035EF0AF0FFFF37EFFE
:101468000AF0FFFF1680FFFFD89029362A362B3660
:101478002C36FFFF1A50225C1B5023581C5024584E
:101488001D502558D8A04BEF0AF04EEF0AF0FFFF89
:1014980058EF0AF0FFFF2C8C1A50225E1B50235A7B
:1014A8001C50245A1D50255AFFFF2E2AFFFF190EE3
:1014B8002E6461EF0AF064EF0AF0FFFF18EF0AF0FC
:1014C800FFFF2250231024102510D8B46EEF0AF025
:1014D80071EF0AF0FFFF8EEF0AF0FFFF29808EEF11
:1014E8000AF0FFFFD89016361736183619362CAE84
:1014F80080EF0AF083EF0AF0FFFF85EF0AF0FFFFA5
:101508001680FFFFD89029362A362B362C36270628
:10151800D8A02806FFFF18AE94EF0AF097EF0AF05C
:10152800FFFF75EF0AF0FFFF000E2E6E2CAE9FEF47
:101538000AF0A2EF0AF0FFFFCDEF0AF0FFFFFF0E5F
:1015480029141E6EFF0E2A141F6EFF0E2B14206E18
:101558007F0E2C14216E1E501F1020102110D8B49D
:10156800B8EF0AF0BBEF0AF0FFFFC1EF0AF0FFFF88
:10157800FFFF010E2E6ECDEF0AF0FFFF16A0C7EF9A
:101588000AF0CAEF0AF0FFFFCDEF0AF0FFFFBCEF49
:101598000AF0FFFF2E50D8B4D4EF0AF0D7EF0AF0C4
:1015A800FFFFFEEF0AF0FFFF010E1626000E1722BE
:1015B8001822192219A0E3EF0AF0E6EF0AF0FFFF5C
:1015C800FEEF0AF0FFFF16C01EF017C01FF018C08C
:1015D80020F019C021F02134213220321F321E326E
:1015E8001EC016F01FC017F020C018F021C019F057
:1015F800274A282AFFFF28BE0AEF0BF0285009E1E6
:101608002728D8A00AEF0BF00DEF0BF0FFFF19EF1A
:101618000BF0FFFF000E286E2768000E166E000EF6
:10162800176E000E186E000E196EFFFF28BE28EF09
:101638000BF0285006E12704D8B025EF0BF028EF6F
:101648000BF0FFFF37EF0BF0FFFF000E286E000EC8
:10165800276E000E166E000E176E000E186E000E26
:10166800196E000E266EFFFF27C02DF02DA03FEF4C
:101678000BF042EF0BF0FFFF46EF0BF0FFFF188E69
:1016880048EF0BF0FFFF189EFFFFD8902D30196E22
:10169800CCEF09F0FFFF1200FFFFFFFF9EC04DF0E7
:1016A8009FC04EF0A0C04FF0A1C050F03BC04DF01D
:1016B8003CC04EF03DC04FF03EC050F04DC03FF032
:1016C8004EC040F04FC041F050C042F0180E73EFCA
:1016D8000BF0FFFFD8904232413240323F32FFFFD9
:1016E800E82E6DEF0BF03F50476E486A48BE86EF14
:1016F8000BF048500AE1960E475CD8A086EF0BF035
:1017080089EF0BF0FFFF94EF0BF0FFFF3BC03BF0BE
:101718003CC03CF03DC03DF03EC03EF041EF0DF016
:10172800FFFF4DC03FF04EC040F04FC041F050C0E9
:1017380042F0200EA6EF0BF0FFFFD8904232413264
:1017480040323F32FFFFE82EA0EF0BF03F50401031
:1017580041104210D8B4B3EF0BF0B6EF0BF0FFFF17
:10176800C9EF0BF0FFFF3BC008F03CC009F03DC0DB
:101778000AF03EC00BF043EC18F008C03BF009C07B
:101788003CF00AC03DF00BC03EF0FFFF48BED9EF69
:101798000BF0485007E17E0E475CD8B0D6EF0BF04F
:1017A800D9EF0BF0FFFFF6EF0BF0FFFF4DC008F08D
:1017B8004EC009F04FC00AF050C00BF0000E0C6E7E
:1017C800000E0D6E000E0E6E000E0F6EE6EC06F0AB
:1017D80008C03BF009C03CF00AC03DF00BC03EF029
:1017E80041EF0DF0FFFF000E0C6E000E0D6E000EA7
:1017F8000E6E4B0E0F6E3BC008F03CC009F03DC0AA
:101808000AF03EC00BF012EC04F008C049F009C021
:101818004AF00AC04BF00BC04CF0000E0C6E000EE4
:101828000D6E000E0E6ECB0E0F6E49C008F04AC04A
:1018380009F04BC00AF04CC00BF012EC04F008C0E1
:1018480043F009C044F00AC045F00BC046F043C05D
:1018580018F044C019F045C01AF046C01BF03BC050
:101868001CF03CC01DF03DC01EF03EC01FF0DCEC7B
:1018780017F018C051F019C052F01AC053F01BC02D
:1018880054F0000E2F6E000E306E000E316E3F0EBB
:10189800326E51C033F052C034F053C035F054C0EA
:1018A80036F0ACEC12F0D8B05CEF0CF05FEF0CF057
:1018B800FFFF96EF0CF0FFFF3BC00CF03CC00DF0B3
:1018C8003DC00EF03EC00FF051C008F052C009F004
:1018D80053C00AF054C00BF012EC04F008C049F0F1
:1018E80009C04AF00AC04BF00BC04CF049C008F0E0
:1018F8004AC009F04BC00AF04CC00BF0000E0C6E49
:10190800000E0D6E800E0E6EBF0E0F6E12EC04F000
:1019180008C051F009C052F00AC053F00BC054F08F
:1019280003EF0DF0FFFF000E2F6E000E306E000E5D
:10193800316EBF0E326E51C033F052C034F053C016
:1019480035F054C036F0ACEC12F0D8A0AEEF0CF085
:10195800B1EF0CF0FFFFE8EF0CF0FFFF3BC00CF01D
:101968003CC00DF03DC00EF03EC00FF051C008F075
:1019780052C009F053C00AF054C00BF012EC04F046
:1019880008C049F009C04AF00AC04BF00BC04CF03F
:1019980049C008F04AC009F04BC00AF04CC00BF02F
:1019A800000E0C6E000E0D6E800E0E6E3F0E0F6E4A
:1019B80012EC04F008C051F009C052F00AC053F00C
:1019C8000BC054F003EF0DF0FFFF51C008F052C0F8
:1019D80009F053C00AF054C00BF03BC00CF03CC0F7
:1019E8000DF03DC00EF03EC00FF012EC04F008C040
:1019F80051F009C052F00AC053F00BC054F0FFFF79
:101A08004DC03FF04EC040F04FC041F050C042F0D2
:101A1800200E15EF0DF0FFFFD890423241324032D0
:101A28003F32FFFFE82E0FEF0DF03F5040104110FE
:101A38004210D8B422EF0DF025EF0DF0FFFF38EF7C
:101A48000DF0FFFF51C008F052C009F053C00AF072
:101A580054C00BF043EC18F008C051F009C052F024
:101A68000AC053F00BC054F0FFFF51C03BF052C006
:101A78003CF053C03DF054C03EF0FFFF1200FFFFA2
:101A8800FFFFE7C01EF0E8C01FF0A80E086E7F0E2B
:101A9800096E32EC16F0F50E086E000E096E32EC87
:101AA80016F0640E086E7E0E096E32EC16F0FFFF1B
:101AB8007650D8B462EF0DF065EF0DF0FFFF5BEFE5
:101AC8000DF0FFFFEBC01EF0440E1E18D8A46FEFF8
:101AD8000DF072EF0DF0FFFF21EF0EF0FFFF000E8B
:101AE800766E550E086E7F0E096E32EC16F0FFFF0B
:101AF8007650D8B482EF0DF085EF0DF0FFFF7BEF45
:101B08000DF0FFFFEB0E0F6E000E106E40EC0FF0A5
:101B18000FC0AEF010C0AFF0000E766E710E086EFA
:101B28007F0E096E32EC16F0FFFF7650D8B49FEFA7
:101B38000DF0A2EF0DF0FFFF98EF0DF0FFFFEB0E99
:101B48000F6E000E106E40EC0FF00FC0ACF010C01E
:101B5800ADF0000E766E380E086E7F0E096E32EC10
:101B680016F0FFFF7650D8B4BCEF0DF0BFEF0DF0C4
:101B7800FFFFB5EF0DF0FFFFEB0E0F6E000E106EBE
:101B880040EC0FF00FC0AAF010C0ABF0000E766E5C
:101B9800FE0E086E7E0E096E32EC16F0FFFF7650D0
:101BA800D8B4D9EF0DF0DCEF0DF0FFFFD2EF0DF058
:101BB800FFFFEB0E0F6E000E106E40EC0FF00FC023
:101BC800A8F010C0A9F0000E766E1B0E086E7F0EEE
:101BD800096E32EC16F0FFFF7650D8B4F6EF0DF030
:101BE800F9EF0DF0FFFFEFEF0DF0FFFFEB0E0F6EBB
:101BF800000E106E40EC0FF00FC0A6F010C0A7F05A
:101C0800000E766EE00E086E7E0E096E32EC16F04F
:101C1800FFFF7650D8B413EF0EF016EF0EF0FFFF6B
:101C28000CEF0EF0FFFFEB0E0F6E000E106E40EC87
:101C38000FF00FC0A4F010C0A5F0FFFF000E766EE5
:101C4800300E776EF50E0C6E000E0D6E1E0E0E6EBB
:101C5800000E0F6E000E116E010E106ECEEC16F017
:101C6800C20E086E7F0E096E32EC16F01E0E086E5C
:101C7800000E096E32EC16F0000E766E1200FFFFB1
:101C8800FFFF106E1050D8B44CEF0EF04FEF0EF06F
:101C9800FFFF74EF0EF0FFFF0BBE58EF0EF055EF8D
:101CA8000EF0FFFF74EF0EF0FFFF08C00CF009C044
:101CB8000DF00AC00EF00BC00FF00C1E0D1E0E1E0C
:101CC8000F1E0C2A000E0D220E220F220CC012F03D
:101CD8000DC013F00EC014F00FC015F07DEF0EF01C
:101CE800FFFF08C012F009C013F00AC014F00BC0BF
:101CF80015F0FFFF085009100A100B10D8A487EF41
:101D08000EF08AEF0EF0FFFF95EF0EF0FFFF000ECA
:101D1800086E000E096E000E0A6E000E0B6E3DEF87
:101D28000FF0FFFF960E116EA1EF0EF0FFFF112AC4
:101D3800D8901532143213321232FFFF000E1214EB
:101D48000C6E000E13140D6E000E14140E6EFE0EA3
:101D580015140F6E0C500D100E100F10D8A4B7EFFD
:101D68000EF0BAEF0EF0FFFF9AEF0EF0FFFFCAEF8A
:101D78000EF0FFFF112A010E1226000E1322142264
:101D88001522D8901532143213321232FFFF000E8A
:101D980012140C6E000E13140D6E000E14140E6E39
:101DA800FF0E15140F6E0C500D100E100F10D8A446
:101DB800E0EF0EF0E3EF0EF0FFFFBDEF0EF0FFFFD8
:101DC800EDEF0EF0FFFF1106D890123613361436D9
:101DD8001536FFFF14BEF3EF0EF0F6EF0EF0FFFF1F
:101DE80000EF0FF0FFFF020E1160FDEF0EF000EFA5
:101DF8000FF0FFFFE6EF0EF0FFFF11B006EF0FF058
:101E080009EF0FF0FFFF0BEF0FF0FFFF149EFFFF2E
:101E1800D890113211C00CF00D6A0E6A0F6A0CC00E
:101E28000FF00E6A0D6A0C6A0C5012120D50131244
:101E38000E5014120F5015121050D8B426EF0FF090
:101E480029EF0FF0FFFF34EF0FF0FFFF0BBE32EF6B
:101E58000FF02FEF0FF0FFFF34EF0FF0FFFF158E9D
:101E6800FFFF12C008F013C009F014C00AF015C033
:101E78000BF0FFFF1200FFFFFFFF000E1D6E000EAC
:101E88001C6E000E166E000E156E4EEF0FF0FFFF63
:101E98000F4A102AFFFF010E1B6E0FC0D9FF10C09A
:101EA800DAFF200EDE18D8B45CEF0FF05FEF0FF00A
:101EB800FFFF7EEF0FF0FFFFF70E116EFF0E126EA1
:101EC8000FC0D9FF10C0DAFFDF50136E146A11502B
:101ED80013261250142214500AE1050E135CD8A0E0
:101EE80078EF0FF07BEF0FF0FFFF7EEF0FF0FFFFB3
:101EF800000E1B6EFFFF1BC017F0186A1750181052
:101F0800D8A489EF0FF08CEF0FF0FFFF4BEF0FF025
:101F1800FFFF99EF0FF0FFFF000E166E010E156E12
:101F2800FFFF0F4A102AD1EF0FF0FFFF0FC0D9FFB4
:101F380010C0DAFFDF50116E126A1250000AD8B4CE
:101F4800A8EF0FF0D1EF0FF0FFFF11502B0AD8B414
:101F580094EF0FF0060AD8B48FEF0FF0D1EF0FF01F
:101F6800FFFF1CC008F01DC009F0000E0B6E0A0E22
:101F78000A6EA1EC18F00FC0D9FF10C0DAFFDF50CD
:101F8800116E1150085E000E095A300E08241C6E9E
:101F9800000E09201D6E94EF0FF0FFFFD00E116E9A
:101FA800FF0E126E0FC0D9FF10C0DAFFDF50136E9C
:101FB800146A115013261250142214500BE10A0E01
:101FC800135CD8A0EAEF0FF0EEEF0FF0FFFF010E61
:101FD800F0EF0FF0FFFF000EFFFF196E1A6A19509D
:101FE8001A10D8A4FAEF0FF0FDEF0FF0FFFFB4EFCF
:101FF8000FF0FFFF15501610D8A405EF10F008EFEA
:1020080010F0FFFF17EF10F0FFFF1CC011F01DC00C
:1020180012F0111E121E114A122A11C00FF012C01E
:1020280010F01CEF10F0FFFF1CC00FF01DC010F0E7
:10203800FFFF1200FFFFFFFF8D0E086E7D0E096E79
:1020480032EC16F0FFFF7650D8B42DEF10F030EFD9
:1020580010F0FFFF26EF10F0FFFF000E766EB4EFD2
:1020680010F0FFFFD60E086E7F0E096E32EC16F0E8
:10207800F50E086E000E096E32EC16F0C00E086EF2
:102088007E0E096E32EC16F013EC12F087EF10F0AA
:10209800FFFF000E416E000E406E000E646E000ED3
:1020A800636E000E626E000E616E000E606E000EB2
:1020B8005F6EFFFFF50E4024D96E000E4120DA6EE8
:1020C800DF5070EC00F07550D8A46DEF10F070EF91
:1020D80010F0FFFF87EF10F0FFFF40503D6E4150BA
:1020E8003E6E404A412AF50E3D24D96E000E3E2030
:1020F800DA6E0A0EDE18D8A484EF10F087EF10F01D
:10210800FFFF5DEF10F0FFFF7650D8A48EEF10F0C0
:1021180091EF10F0FFFFD7EF10F0FFFF7550D8B424
:1021280098EF10F09BEF10F0FFFF4CEF10F0FFFF5F
:10213800D8EF10F0FFFF82EC16F0D8EF10F0FFFF99
:1021480044EC0DF0D8EF10F0FFFF40EC13F0D8EF9F
:1021580010F0FFFF000E766E000E756ED8EF10F0CF
:10216800FFFF77503D6E3E6A3E50000AD8B4BFEF7D
:1021780010F0D8EF10F0FFFF3D50310AD8B435EF1A
:1021880010F0030AD8B49EEF10F0010AD8B4A3EFF8
:1021980010F0070AD8B4A8EF10F0650AD8B4ADEF6C
:1021A80010F0D8EF10F0FFFFFFFF1200FFFFFFFF56
:1021B800086E410E0818D8A4E4EF10F0E7EF10F00D
:1021C800FFFF02EF11F0FFFF000E706E030E6F6E3F
:1021D800000E6C6E040E6B6E000E686E000E676E5D
:1021E800000E6E6E110E6D6E000E6A6E050E696E33
:1021F800010E666E0E0E656E74EF11F0FFFF420E53
:102208000818D8A40AEF11F00DEF11F0FFFF28EF1E
:1022180011F0FFFF000E706E030E6F6E000E6C6EF5
:102228000A0E6B6E000E686E5A0E676E000E6E6EAA
:102238000A0E6D6E000E6A6E050E696E000E666EF1
:10224800B40E656E74EF11F0FFFF430E0818D8A4A2
:1022580030EF11F033EF11F0FFFF4EEF11F0FFFFF9
:10226800000E706E030E6F6E000E6C6E0F0E6B6EAE
:10227800000E686E5A0E676E000E6E6E100E6D6E52
:10228800000E6A6E0E0E696E010E666E0E0E656E9B
:1022980074EF11F0FFFF440E0818D8A456EF11F0A0
:1022A80059EF11F0FFFF74EF11F0FFFFAEC06FF0B0
:1022B800AFC070F0ACC06BF0ADC06CF0AAC067F0F6
:1022C800ABC068F0A8C06DF0A9C06EF0A6C069F0F8
:1022D800A7C06AF0A4C065F0A5C066F074EF11F05D
:1022E800FFFF1200FFFFFFFF573458340001BF6F94
:1022F800BF51D8A482EF11F085EF11F0FFFF91EFE5
:1023080011F0FFFFFFFF000E556E000E566E000E17
:10231800576E000E586E10EF12F0FFFF55C059F0BF
:1023280056C05AF057C05BF058C05CF0200EA3EFBF
:1023380011F0FFFFD8905C325B325A325932FFFFFE
:10234800E82E9DEF11F05950BE6F578EFF0E5516AF
:10235800FF0E5616FF0E5716000E5816960EBF5F44
:10236800BFBFBCEF11F0B9EF11F0FFFFD6EF11F0CE
:10237800FFFFBF51800A970FD8B0C5EF11F0C8EF23
:1023880011F0FFFFCBEF11F0FFFF86EF11F0FFFF19
:10239800D8905832573256325532BF3FCBEF11F0F2
:1023A800F4EF11F0FFFF1F0EBF65DDEF11F0E0EF56
:1023B80011F0FFFFEAEF11F0FFFF86EF11F0FFFFCA
:1023C800D8905536563657365836BF07FFFFBF5197
:1023D800D8A4F1EF11F0F4EF11F0FFFFE3EF11F0E3
:1023E800FFFFBE51D8B4FBEF11F0FEEF11F0FFFF75
:1023F80007EF12F0FFFF581E571E561E556C000EB1
:10240800562257225822FFFF55C055F056C056F0A5
:1024180057C057F058C058F0FFFF1200FFFFFFFFEA
:10242800000E766E000E756EB6C05DF0B7C05EF039
:10243800000E116E000E106E28EF12F0FFFF000E56
:10244800C5EC14F0104A112AFFFF5D50105C1150C2
:10245800800A0F6E5E50800A0F58D8A036EF12F02F
:1024680039EF12F0FFFF22EF12F0FFFFB4C05DF06A
:10247800B5C05EF0000E136E000E126E4AEF12F039
:10248800FFFF000E45EC14F0124A132AFFFF5D50BF
:10249800125C1350800A0F6E5E50800A0F58D8A045
:1024A80058EF12F05BEF12F0FFFF44EF12F0FFFF5E
:1024B800B0C05DF0B1C05EF0000E156E000E146E77
:1024C8006CEF12F0FFFF000EC2EC15F0144A152A4B
:1024D800FFFF5D50145C1550800A0F6E5E50800A35
:1024E8000F58D8A07AEF12F07DEF12F0FFFF66EFD9
:1024F80012F0FFFFB2C05DF0B3C05EF0000E176EC1
:10250800000E166E8EEF12F0FFFF000EC5EC13F0F2
:10251800164A172AFFFF5D50165C1750800A0F6E87
:102528005E50800A0F58D8B09CEF12F09FEF12F05F
:10253800FFFFA9EF12F0FFFF7550D8B4A6EF12F015
:10254800A9EF12F0FFFF88EF12F0FFFF1200FFFF64
:10255800FFFF000E2F14376E000E3014386E800EF9
:102568003114396E7F0E32143A6E375038103910E4
:102578003A10D8A4C2EF12F0C5EF12F0FFFFCEEF69
:1025880012F0FFFF000E2F6E000E306E000E316E3F
:10259800000E326EFFFF000E3314376E000E341437
:1025A800386E800E3514396E7F0E36143A6E3750F9
:1025B800381039103A10D8A4E4EF12F0E7EF12F00F
:1025C800FFFFF0EF12F0FFFF000E336E000E346EC7
:1025D800000E356E000E366EFFFF32AEF6EF12F0CB
:1025E800F9EF12F0FFFF03EF13F0FFFF2F6C301E1F
:1025F800D8B0302A311ED8B0312A800E3256FFFFAB
:1026080036AE09EF13F00CEF13F0FFFF16EF13F0DF
:10261800FFFF336C341ED8B0342A351ED8B0352AA3
:10262800800E3656FFFF000E2F1A000E301A000ECD
:10263800311A800E321A000E331A000E341A000EA8
:10264800351A800E361A33502F5C345030583550B6
:10265800315836503258D8B034EF13F037EF13F002
:10266800FFFF3BEF13F0FFFFD8903DEF13F0FFFFA4
:10267800D880FFFF1200FFFFFFFF250E086E7E0EB9
:10268800096E32EC16F0F50E086E000E096E32EC8B
:1026980016F0FFFF7650D8B454EF13F057EF13F04D
:1026A800FFFF4DEF13F0FFFF000E766EEBC01CF03E
:1026B800F50E166E000E176E1CC018F0196A84EC21
:1026C80018F016C01AF017C01BF0510E1C18D8A429
:1026D80070EF13F073EF13F0FFFF76EF13F0FFFFC7
:1026E800C0EF13F0FFFF1A501B10D8B47EEF13F0A1
:1026F80081EF13F0FFFFACEF13F0FFFFF50E1A5C4C
:102708001D6E000E1B581E6EF50E1D240C6E000E5D
:102718001E200D6EF60E1D240E6E000E1E200F6E6E
:10272800F50E086E000E096E01EC18F01D50085CDD
:10273800106E1E500958116E45EC15F0EA0E086E21
:102748007F0E096E32EC16F0000E756EC0EF13F0B6
:10275800FFFFDF0E086E7D0E096E32EC16F0FFFFEC
:102768007650D8B4BAEF13F0BDEF13F0FFFFB3EF14
:1027780013F0FFFF4DEF13F0FFFF000E766E12000F
:10278800FFFFFFFF0E6E7650D8A4CDEF13F0D0EF09
:1027980013F0FFFF3FEF14F0FFFF0E50D8A4D7EF60
:1027A80013F0DAEF13F0FFFF07EF14F0FFFF030E4B
:1027B800836E000E096E010E086E82EC17F0060E8D
:1027C800836E000E096E010E086E82EC17F00C0E77
:1027D800836E000E096E010E086E82EC17F0090E6A
:1027E800836E000E096E010E086E82EC17F0030E60
:1027F800836E000E096E050E086E82EC17F000015C
:10280800B207D8A0B307FFFF0E04D8A40EEF14F048
:1028180011EF14F0FFFF42EF14F0FFFF090E836E73
:10282800000E096E010E086E82EC17F00C0E836E16
:10283800000E096E010E086E82EC17F0060E836E0C
:10284800000E096E010E086E82EC17F0030E836EFF
:10285800000E096E010E086E82EC17F0090E836EE9
:10286800000E096E050E086E82EC17F00001B24BDF
:10287800B32B42EF14F0FFFF010E756EFFFF12003D
:10288800FFFFFFFF0E6E7650D8A44DEF14F050EF07
:1028980014F0FFFFBFEF14F0FFFF0E50D8A457EF5E
:1028A80014F05AEF14F0FFFF87EF14F0FFFF300E1B
:1028B800816E000E096E010E086E82EC17F0600E34
:1028C800816E000E096E010E086E82EC17F0C00EC4
:1028D800816E000E096E010E086E82EC17F0900EE4
:1028E800816E000E096E010E086E82EC17F0300E34
:1028F800816E000E096E010E086E82EC17F0000161
:10290800B407D8A0B507FFFF0E04D8A48EEF14F0C3
:1029180091EF14F0FFFFC2EF14F0FFFF900E816EED
:10292800000E096E010E086E82EC17F0C00E816E63
:10293800000E096E010E086E82EC17F0600E816EB3
:10294800000E096E010E086E82EC17F0300E816ED3
:10295800000E096E010E086E82EC17F0900E816E63
:10296800000E096E010E086E82EC17F00001B44BE0
:10297800B52BC2EF14F0FFFF010E756EFFFF1200BA
:10298800FFFFFFFF0E6E7650D8A4CDEF14F0D0EF06
:1029980014F0FFFF3FEF15F0FFFF0E50D8A4D7EF5C
:1029A80014F0DAEF14F0FFFF07EF15F0FFFF030E46
:1029B800806E000E096E010E086E82EC17F0060E8E
:1029C800806E000E096E010E086E82EC17F00C0E78
:1029D800806E000E096E010E086E82EC17F0090E6B
:1029E800806E000E096E010E086E82EC17F0030E61
:1029F800806E000E096E010E086E82EC17F0000161
:102A0800B607D8A0B707FFFF0E04D8A40EEF15F03D
:102A180011EF15F0FFFF42EF15F0FFFF090E806E72
:102A2800000E096E010E086E82EC17F00C0E806E17
:102A3800000E096E010E086E82EC17F0060E806E0D
:102A4800000E096E010E086E82EC17F0030E806E00
:102A5800000E096E010E086E82EC17F0090E806EEA
:102A6800000E096E010E086E82EC17F00001B64BDD
:102A7800B72B42EF15F0FFFF010E756EFFFF120036
:102A8800FFFFFFFF0EC016F00FC017F00CC014F0C8
:102A98000DC015F01450165C15501758D8B057EFE4
:102AA80015F05AEF15F0FFFF97EF15F0FFFF1050E4
:102AB8001624126E11501720136E1250145C135006
:102AC8001558D8B06AEF15F06DEF15F0FFFF97EFC6
:102AD80015F0FFFF1050162611501722105014261B
:102AE80011501522FFFF1606D8A0170616C0D9FFE9
:102AF80017C0DAFF1406D8A0150614C0E1FF15C0E8
:102B0800E2FFDFCFE7FF1006D8A011061050111022
:102B1800D8A491EF15F094EF15F0FFFF76EF15F0BC
:102B2800FFFFBFEF15F0FFFF10501110D8B49FEF53
:102B380015F0A2EF15F0FFFFBFEF15F0FFFFFFFF45
:102B480016C0D9FF17C0DAFF14C0E1FF15C0E2FFB5
:102B5800DFCFE7FF164A172A144A152A1006D8A00D
:102B6800110610501110D8A4BCEF15F0BFEF15F0E6
:102B7800FFFFA3EF15F0FFFF1200FFFFFFFF0E6E30
:102B88007650D8A4CAEF15F0CDEF15F0FFFF2CEF63
:102B980016F0FFFF0E50D8A4D4EF15F0D7EF15F0BC
:102BA800FFFFFCEF15F0FFFF300E836E000E096E7D
:102BB800010E086E82EC17F0C00E836E000E096ECF
:102BC800010E086E82EC17F0900E836E000E096EEF
:102BD800010E086E82EC17F0300E836E000E096E3F
:102BE800010E086E82EC17F00001B007D8A0B107FB
:102BF800FFFF0E04D8A403EF16F006EF16F0FFFF50
:102C08002FEF16F0FFFF900E836E000E096E010E77
:102C1800086E82EC17F0600E836E000E096E010ECE
:102C2800086E82EC17F0300E836E000E096E010EEE
:102C3800086E82EC17F0900E836E000E096E010E7E
:102C4800086E82EC17F00001B04BB12B2FEF16F095
:102C5800FFFF010E756EFFFF1200FFFFFFFF000E62
:102C68000D6E000E0C6E5EEF16F0FFFF0C50082480
:102C78000A6E0D5009200B6E0AC0F6FF0BC0F7FF55
:102C8800F86A050EF76404D00800FFFFF55005D078
:102C9800F6CFE1FFF7CFE2FFE750AD6EFFFFACA242
:102CA80058EF16F05BEF16F0FFFF52EF16F0FFFF3C
:102CB8000C4A0D2AFFFF0C5008240A6E0D500920FB
:102CC8000B6E0AC0F6FF0BC0F7FFF86A050EF76433
:102CD80004D00800FFFFF55005D0F6CFE1FFF7CF8D
:102CE800E2FFE7500009D8A47CEF16F07FEF16F05A
:102CF800FFFF39EF16F0FFFF1200FFFFFFFF8D0EF9
:102D0800086E7F0E096E32EC16F0F50E086E000E96
:102D1800096E32EC16F0980E086E7E0E096E32ECD3
:102D280016F0000E126E000E116EFFFF7650D8B42A
:102D3800A0EF16F0A3EF16F0FFFF99EF16F0FFFFD4
:102D4800FFFFEB0E1124D96E000E1220DA6EF50E7D
:102D58001124E16E000E1220E26EDFCFE7FF115062
:102D68000E6E12500F6E114A122AEB0E0E24D96EF7
:102D7800000E0F20DA6E0A0EDE18D8A4C6EF16F081
:102D8800C9EF16F0FFFFA4EF16F0FFFF000E766EF6
:102D98001200FFFFFFFF0CC008F00DC009F001ECA6
:102DA80018F008500C2609500D22EDEF16F0FFFF21
:102DB8001006D8A011060EC0D9FF0FC0DAFF0CC04C
:102DC800E1FF0DC0E2FFDFCFE7FF0E4A0F2A0C4AF2
:102DD8000D2AFFFF10501110D8B4F5EF16F0F8EFD8
:102DE80016F0FFFF06EF17F0FFFF0EC0D9FF0FC068
:102DF800DAFFDF50D8A403EF17F006EF17F0FFFF54
:102E0800DBEF16F0FFFF0CC0D9FF0DC0DAFF000E94
:102E1800DF6E0C4A0D2A1200FFFFFFFF0CC014F0F2
:102E28000DC015F00EC00EF00F6A3BEF17F0FFFF54
:102E380010501424D96E11501520DA6EDF50126E1E
:102E4800136A0E50121807E10F501318D8A42FEF69
:102E580017F032EF17F0FFFF3BEF17F0FFFF1050AE
:102E680014240C6E115015200D6E4FEF17F0FFFF54
:102E78001006D8A01106102806E11128D8A447EF9B
:102E880017F04AEF17F0FFFF1BEF17F0FFFF000ED8
:102E98000C6E000E0D6EFFFF1200FFFFFFFF010E0C
:102EA8000E6E200E08180910D8B45DEF17F060EF09
:102EB80017F0FFFF7CEF17F0FFFFF70E0A6EFF0E0B
:102EC8000B6E08C00CF009C00DF00A500C260B5010
:102ED8000D220D500AE1050E0C5CD8A076EF17F014
:102EE80079EF17F0FFFF7CEF17F0FFFF000E0E6E73
:102EF800FFFF0EC008F0096A1200FFFFFFFF000E77
:102F08000B6E000E0A6E8CEF17F0FFFF0A4A0B2AB1
:102F1800FFFF08500A5C09500B58D8A096EF17F02D
:102F280099EF17F0FFFF89EF17F0FFFF000E0D6E06
:102F3800000E0C6EFFFF0C4A0D2A720E0C5C060E7A
:102F48000D58D8A0AAEF17F0ADEF17F0FFFF9EEFCE
:102F580017F0FFFF1200FFFFB80EF66E310EF76E86
:102F6800000EF86E00EEDFF010EE1AF00900F5CF53
:102F7800EEFFE550E150FAE1E80EF66E310EF76E1D
:102F8800000EF86E0900F5CF77F000EE80F03E0EE7
:102F9800EE6AE806FDE100EE5DF0190EEE6AE8065D
:102FA800FDE178907892000EF86E0001CBEF18F0F2
:102FB800FFFF000E1C1A000E1D1A000E1E1A800EAE
:102FC8001F1A18C008F019C009F01AC00AF01BC06F
:102FD8000BF01CC00CF01DC00DF01EC00EF01FC081
:102FE8000FF012EC04F008C018F009C019F00AC07C
:102FF8001AF00BC01BF01200FFFFFFFF08C00AF019
:1030080009C00BF00BEF18F0FFFF084A092AFFFF71
:1030180008C0D9FF09C0DAFFDF50D8A416EF18F0AE
:1030280019EF18F0FFFF08EF18F0FFFF0A50085CCF
:10303800086E0B500958096E1200FFFFFFFFD00EF3
:103048000A6EFF0E0B6E08C00CF009C00DF00A5096
:103058000C260B500D220D500BE10A0E0C5CD8A06B
:1030680038EF18F03CEF18F0FFFF010E3EEF18F0B4
:10307800FFFF000EFFFF086E096A1200FFFFFFFF47
:10308800085009100A100B10D8B44DEF18F050EF83
:1030980018F0FFFF59EF18F0FFFF000E081A000E96
:1030A800091A000E0A1A800E0B1AFFFF08C008F052
:1030B80009C009F00AC00AF00BC00BF01200FFFFAC
:1030C800FFFF550E3B6E550E3C6EC80E3D6E410E11
:1030D8003E6E51EC0BF03BC055F03CC056F03DC085
:1030E80057F03EC058F077EC11F05550AF6EAC9CDD
:1030F800AC8AAC98AC84AB8EAB9CAB881200FFFF5B
:10310800FFFF16C00CF017C00DF018C00EF019C064
:103118000FF016C008F017C009F001EC18F0010E06
:103128000824106E000E0920116E11EC17F00CC067
:1031380016F00DC017F01200FFFFFFFF08500A023B
:10314800F3CF0CF0F4CF0DF008500B02F3500D261E
:1031580009500A02F3500D260CC008F00DC009F002
:103168001200FFFFFFFF93809384000E956E000E00
:10317800926E0F0E936E000E806E000E836E000E20
:103188008B6E000E826E948E949C1200FFFFFFFFE0
:10319800B6EC18F064EC18F0E9EC18F0F28EFFFFCA
:1031A800000E766E1FEC10F0D3EF18F06EEF00F003
:1031B800BD378634BD37863420001E00200000004D
:1031C80000000000000043414200FFFF9E9A9D8AD4
:1031D800F28C000EF16EF292F2881200FFFFFFFFF0
:0131E80030B6
:107D7800000000004B000016460000164600247460
:107D88004A0024744A0A0A312E20537461727420FE
:107D980053657175656E63650A322E204368616E9E
:107DA80067652073657175656E63650A332E2041BA
:107DB8006464206E657720636F6D706F6E656E7496
:107DC8000A342E2052656D6F7665206120636F6DD1
:107DD800706F6E656E74000A636F6D706F6E656E9E
:107DE80074206973206E6F7420696E207468652032
:107DF80073657175656E63652E205472792073659D
:107E08006C656374696E6720616E6F746865722053
:107E1800636F6D706F6E656E743A200A000A57685A
:107E280069636820636F6D706F6E656E7420776F1D
:107E3800756C6420796F75206C696B6520746F2090
:107E480072656D6F76652066726F6D207468652047
:107E58002073657175656E63653F0A000A456E7427
:107E680065722074686520636F6D706F6E656E74DF
:107E780020796F752077616E7420746F2061646457
:107E88003A20412C20422C2043206F7220443F008E
:107E98000A506C656173652067697665207468654A
:107EA800206E65772073657175656E6365206173F3
:107EB80020696E7075740D000A456E74657220270E
:107EC800512720746F206578697420746F204D41A4
:107ED800494E204D454E55000A456E746572207412
:107EE800686520706C616365206F7269656E746186
:107EF80074696F6E3A000A456E746572207468651D
:107F080020706C61636520706F736974696F6E208F
:107F1800583A000A456E7465722074686520706C62
:107F280061636520706F736974696F6E20593A00D8
:107F38000A456E74657220746865207069636B20E9
:107F48006F7269656E746174696F6E3A000A456E86
:107F580074657220746865207069636B20706F7334
:107F68006974696F6E20583A000A456E746572200C
:107F7800746865207069636B20706F736974696FCA
:107F88006E20593A000A5468652063757272656EEE
:107F9800742073657175656E63652069733A200096
:107FA8000A5468652043757272656E742073657132
:107FB80075656E63652069733A000A0A436F6D70D0
:107FC8006F6E656E742041646465643A20000A53DC
:107FD80074617274696E672073657175656E636527
:107FE8003A000A636F6D706F6E656E742072656D0E
:087FF8006F7665640051000082
:020000040020DA
:08000000FFFFFFFFFFFFFFFF00
:020000040030CA
:0E000000FF210D0EFF0080FF0FC00FE00F402C
:00000001FF
