:020000040000FA
:0600000000F01FEF00F00C
:10000800FFFF72829DAA0BEF00F00EEF00F0FFFFDA
:100018001BEF00F0FFFF9EAA14EF00F017EF00F0AF
:10002800FFFF1BEF00F0FFFF010E716E9E9AFFFFAE
:0A00380072921100FFFFC2EF11F0F9
:10060000000000004B00001646000016460024744F
:100610004A0024744A00FFFF000E1C6E000E1B6E81
:10062000FFFF000E6AEC10F01B4A1C2A1CBE22EFD2
:1006300003F01C500AE1030E1B5CD8A022EF03F06C
:1006400025EF03F0FFFF10EF03F0FFFF000E1E6E1B
:10065000000E1D6EFFFF000E00EC10F01D4A1E2A5A
:100660001EBE3CEF03F01E500AE1040E1D5CD8A034
:100670003CEF03F03FEF03F0FFFF2AEF03F0FFFF33
:10068000000E206E000E1F6EFFFF000E6AEC10F0D1
:100690001F4A202A20BE56EF03F020500AE10E0E1A
:1006A0001F5CD8A056EF03F059EF03F0FFFF44EFB3
:1006B00003F0FFFF000E226E000E216EFFFF000E02
:1006C00000EC10F0214A222A22BE6FEF03F02250E4
:1006D00009E12104D8A06FEF03F072EF03F0FFFFF0
:1006E0005EEF03F0FFFF000E246E000E236E000E7F
:1006F000016E000E026E000E036E000E046E010EFF
:1007000041EC0DF001C00FF002C010F003C011F079
:1007100004C012F0000E136E000E146EC80E156E9B
:10072000410E166E6CEC0FF0D8A099EF03F09CEF21
:1007300003F0FFFF9FEF03F0FFFFCBEF03F0FFFF9E
:10074000010ED4EC10F0234A242A23C001F024C067
:1007500002F0000E02BEFF0E036E046E010E41ECAD
:100760000DF001C00FF002C010F003C011F004C082
:1007700012F0000E136E000E146EC80E156E410EB0
:10078000166E6CEC0FF0D8A0C8EF03F0CBEF03F0BF
:10079000FFFF9FEF03F0FFFF000E266E000E256E99
:1007A000FFFF010E6AEC10F0254A262A26BEE2EF72
:1007B00003F026500AE10E0E255CD8A0E2EF03F00C
:1007C000E5EF03F0FFFFD0EF03F0FFFF000E286E10
:1007D000000E276E000E016E000E026E000E036EFC
:1007E000000E046E010E41EC0DF001C00FF002C0CE
:1007F00010F003C011F004C012F0000E136E000ED2
:10080000146E480E156E420E166E6CEC0FF0D8A0EA
:100810000CEF04F00FEF04F0FFFF12EF04F0FFFF06
:100820003EEF04F0FFFF000ED4EC10F0274A282A18
:1008300027C001F028C002F0000E02BEFF0E036EBA
:10084000046E010E41EC0DF001C00FF002C010F07B
:1008500003C011F004C012F0000E136E000E146EEF
:10086000480E156E420E166E6CEC0FF0D8A03BEFE2
:1008700004F03EEF04F0FFFF12EF04F0FFFF000E64
:100880002A6E000E296EFFFF010E00EC10F0294ABF
:100890002A2A2ABE55EF04F02A500AE1050E295CE7
:1008A000D8A055EF04F058EF04F0FFFF43EF04F039
:1008B000FFFF000E2C6E000E2B6E2BC001F02CC023
:1008C00002F0000E02BEFF0E036E046E010E41EC3C
:1008D0000DF001C00FF002C010F003C011F004C011
:1008E00012F0000E136E000E146EC80E156EC10EBF
:1008F000166E6CEC0FF0D8A080EF04F083EF04F0DC
:10090000FFFF86EF04F0FFFFB2EF04F0FFFF000EE1
:10091000D4EC10F02B4A2C2A2BC001F02CC002F092
:10092000000E02BEFF0E036E046E010E41EC0DF0D0
:1009300001C00FF002C010F003C011F004C012F0AB
:10094000000E136E000E146EC80E156EC10E166EDC
:100950006CEC0FF0D8A0AFEF04F0B2EF04F0FFFFA3
:1009600086EF04F0FFFF000E2E6E000E2D6EFFFFCF
:100970002EBEC4EF04F02E500AE1070E2D5CD8A065
:10098000C4EF04F0C7EF04F0FFFFCAEF04F0FFFF6D
:10099000D2EF04F0FFFF010E6AEC10F02D4A2E2A70
:1009A000B7EF04F0FFFF000E306E000E2F6EFFFF5A
:1009B00030AEE7EF04F0F60E2F5CFF0E3058D8A0F3
:1009C000E4EF04F0E7EF04F0FFFFEAEF04F0FFFFCD
:1009D000F2EF04F0FFFF000E00EC10F02F4A302A77
:1009E000D7EF04F0FFFF000E326E000E316E31C003
:1009F00001F032C002F0000E02BEFF0E036E046E64
:100A0000010E41EC0DF001C00FF002C010F003C068
:100A100011F004C012F0000E136E000E146EC80E1A
:100A2000156E410E166E6CEC0FF0D8A01AEF05F0A3
:100A30001DEF05F0FFFF20EF05F0FFFF4CEF05F085
:100A4000FFFF010ED4EC10F0314A322A31C001F020
:100A500032C002F0000E02BEFF0E036E046E010EE5
:100A600041EC0DF001C00FF002C010F003C011F016
:100A700004C012F0000E136E000E146EC80E156E38
:100A8000410E166E6CEC0FF0D8A049EF05F04CEF5C
:100A900005F0FFFF20EF05F0FFFF000E346E000EA3
:100AA000336EFFFF34AE61EF05F0F30E335CFF0EE3
:100AB0003458D8A05EEF05F061EF05F0FFFF64EF5A
:100AC00005F0FFFF6CEF05F0FFFF000E6AEC10F081
:100AD000334A342A51EF05F0FFFF000E366E000E48
:100AE000356EFFFF36BE7DEF05F0365009E1350467
:100AF000D8A07DEF05F080EF05F0FFFF83EF05F054
:100B0000FFFF8BEF05F0FFFF010E00EC10F0354A00
:100B1000362A71EF05F0FFFF000E386E000E376EBB
:100B200037C001F038C002F0000E02BEFF0E036EA7
:100B3000046E010E41EC0DF001C00FF002C010F088
:100B400003C011F004C012F0000E136E000E146EFC
:100B5000480E156EC20E166E6CEC0FF0D8A0B3EFF7
:100B600005F0B6EF05F0FFFFB9EF05F0FFFFE5EF89
:100B700005F0FFFF000ED4EC10F0374A382A37C0DA
:100B800001F038C002F0000E02BEFF0E036E046ECC
:100B9000010E41EC0DF001C00FF002C010F003C0D7
:100BA00011F004C012F0000E136E000E146E480E09
:100BB000156EC20E166E6CEC0FF0D8A0E2EF05F0C9
:100BC000E5EF05F0FFFFB9EF05F0FFFF000E3A6E0D
:100BD000000E396EFFFF3ABEF7EF05F03A500AE11A
:100BE000100E395CD8A0F7EF05F0FAEF05F0FFFF23
:100BF000FDEF05F0FFFF05EF06F0FFFF010E6AECC9
:100C000010F0394A3A2AEAEF05F0FFFF000E3C6E79
:100C1000000E3B6EFFFF3CBE17EF06F03C500AE1B2
:100C20000E0E3B5CD8A017EF06F01AEF06F0FFFFA0
:100C30001DEF06F0FFFF25EF06F0FFFF010E00ECB1
:100C400010F03B4A3C2A0AEF06F0FFFF1200FFFFBC
:100C5000FFFF0450800B0D6E045004240F6E03AE92
:100C600034EF06F037EF06F0FFFF39EF06F0FFFF35
:100C70000F80FFFF0F50D8B440EF06F043EF06F0AF
:100C8000FFFF5CEF06F0FFFF0F28D8A44AEF06F045
:100C90004DEF06F0FFFF56EF06F0FFFF000E016E6E
:100CA000000E026E000E036E000E046EFFFF038E38
:100CB000000E046E65EF06F0FFFF000E016E000EE1
:100CC000026E000E036E000E046EFFFF0850800BD4
:100CD0000E6E0D500E18D8B470EF06F073EF06F0DC
:100CE000FFFF75EF06F0FFFF0D8CFFFF0850082493
:100CF0000E6E07AE7EEF06F081EF06F0FFFF83EF8A
:100D000006F0FFFF0E80FFFF0E50D8B48AEF06F00A
:100D10008DEF06F0FFFFA6EF06F0FFFF0E28D8A428
:100D200094EF06F097EF06F0FFFFA0EF06F0FFFF4D
:100D3000000E056E000E066E000E076E000E086EA9
:100D4000FFFF078E000E086EAFEF06F0FFFF000EEC
:100D5000056E000E066E000E076E000E086EFFFF99
:100D60000F500E5CD8B0B7EF06F0BAEF06F0FFFFF9
:100D7000E5EF06F0FFFF0DACC0EF06F0C3EF06F0A5
:100D8000FFFFC6EF06F0FFFF800E0D1AFFFF0FC03A
:100D900010F00EC00FF010C00EF001C010F005C032
:100DA00001F010C005F002C010F006C002F010C043
:100DB00006F003C010F007C003F010C007F004C035
:100DC00010F008C004F010C008F0FFFF000E106E15
:100DD0000F500EC009F00A6A095E000E0A5A0ABED8
:100DE000FBEF06F00A500AE11A0E095CD8A0FBEFEF
:100DF00006F0FEEF06F0FFFF41EF07F0FFFF0150A6
:100E0000021003100410D8A408EF07F00CEF07F04D
:100E1000FFFF010E0EEF07F0FFFF000EFFFF106E49
:100E2000000E016E000E026E000E036E000E046EC8
:100E30000EC00FF04CEF07F0FFFF10A022EF07F0FD
:100E400025EF07F0FFFF2CEF07F0FFFFD8901030E1
:100E50000109106E2FEF07F0FFFFD8901032FFFF4F
:100E600001A035EF07F038EF07F0FFFF3AEF07F08A
:100E7000FFFF108EFFFF04340432033202320132CE
:100E80000F2AFFFF0E500F5CD8A049EF07F04CEF80
:100E900007F0FFFF1CEF07F0FFFF0DBC52EF07F05C
:100EA00055EF07F0FFFFA2EF07F0FFFF0F50D8A4A8
:100EB0005CEF07F05FEF07F0FFFF6AEF07F0FFFF5F
:100EC000000E016E000E026E000E036E000E046E28
:100ED000F9EF08F0FFFF05500126065002220750E7
:100EE00003220850042204A078EF07F07BEF07F0FC
:100EF000FFFF46EF08F0FFFF10A081EF07F084EF3F
:100F000007F0FFFF8BEF07F0FFFFD89010300109CB
:100F1000106E8EEF07F0FFFFD8901032FFFF01A098
:100F200094EF07F097EF07F0FFFF99EF07F0FFFF4F
:100F3000108EFFFF043404320332023201320F2AD2
:100F400046EF08F0FFFF0550015C065002580750BD
:100F500003580450800A096E0850800A0958D8B016
:100F6000B4EF07F0B7EF07F0FFFFE5EF07F0FFFF83
:100F70000150055C096E025006580A6E035007586E
:100F80000B6E045008580C6EFF0E0924016EFF0E04
:100F90000A20026EFF0E0B20036EFF0E0C20046E63
:100FA000800E0D1A106C1050D8A4D9EF07F0DCEFAA
:100FB00007F0FFFFEEEF07F0FFFF010E0126000E26
:100FC000022203220422EEEF07F0FFFF0550015E2C
:100FD0000650025A0750035A0850045AFFFF0150A6
:100FE000021003100410D8A4F8EF07F0FBEF07F08D
:100FF000FFFF3DEF08F0FFFF1050D8A402EF08F00C
:1010000005EF08F0FFFF3DEF08F0FFFF000E016E57
:10101000000E026E000E036E000E046EF9EF08F073
:10102000FFFFD890013602360336043610AE1BEFB0
:1010300008F01EEF08F0FFFF20EF08F0FFFF01802F
:10104000FFFF10A026EF08F029EF08F0FFFF2EEFBA
:1010500008F0FFFFD880103631EF08F0FFFFD8907E
:101060001036FFFF0F50D8B438EF08F03BEF08F010
:10107000FFFF3DEF08F0FFFF0F06FFFF03AE43EF5A
:1010800008F046EF08F0FFFF10EF08F0FFFF000E3A
:101090000E6E10AE4EEF08F051EF08F0FFFF70EF4C
:1010A00008F0FFFF10C009F07F0E0916D8B45BEFFF
:1010B00008F05EEF08F0FFFF64EF08F0FFFFFFFFAE
:1010C000010E0E6E70EF08F0FFFF01A06AEF08F04E
:1010D0006DEF08F0FFFF70EF08F0FFFF5FEF08F023
:1010E000FFFF0E50D8B477EF08F07AEF08F0FFFF5B
:1010F000AAEF08F0FFFF010E0126000E02220322D4
:10110000042204A086EF08F089EF08F0FFFFAAEFA1
:1011100008F0FFFF01C009F002C00AF003C00BF0A5
:1011200004C00CF00C340C320B320A32093209C004
:1011300001F00AC002F00BC003F00CC004F00F284D
:10114000D8B4A5EF08F0A8EF08F0FFFFAAEF08F069
:10115000FFFF0F2AFFFF0F28D8B4B1EF08F0B4EF5C
:1011600008F0FFFFBEEF08F0FFFF0F50D8A4BBEF61
:1011700008F0BEEF08F0FFFFD3EF08F0FFFF000E0E
:10118000016E000E026E000E036E000E046E0F5014
:10119000D8A4CDEF08F0D0EF08F0FFFFD3EF08F0B0
:1011A000FFFF000E0D6EFFFF0FA0D9EF08F0DCEF80
:1011B00008F0FFFFE0EF08F0FFFF038EE2EF08F01A
:1011C000FFFF039EFFFFD8900F30046E0DAEEBEFD4
:1011D00008F0EEEF08F0FFFFF0EF08F0FFFF048EDD
:1011E000FFFF01C001F002C002F003C003F004C021
:1011F00004F0FFFF1200FFFFFFFF0450800B0D6E95
:1012000004500424136E03AE08EF09F00BEF09F04D
:10121000FFFF0DEF09F0FFFF1380FFFF1350D8B45D
:1012200014EF09F017EF09F0FFFF2EEF09F0FFFFB1
:101230001328D8A41EEF09F021EF09F0FFFF2AEFD1
:1012400009F0FFFF000E016E000E026E000E036E2D
:10125000000E046EFFFF038E37EF09F0FFFF000E54
:10126000016E000E026E000E036E000E046EFFFF94
:101270000850800B0D1A08500824126E07AE43EF79
:1012800009F046EF09F0FFFF48EF09F0FFFF128079
:10129000FFFF1250D8B44FEF09F052EF09F0FFFFF3
:1012A00069EF09F0FFFF1228D8A459EF09F05CEFAD
:1012B00009F0FFFF65EF09F0FFFF000E056E000E5D
:1012C000066E000E076E000E086EFFFF078E72EFAF
:1012D00009F0FFFF000E056E000E066E000E076E91
:1012E000000E086EFFFF1250D8B479EF09F07CEFC2
:1012F00009F0FFFF86EF09F0FFFF1350D8A483EF3A
:1013000009F086EF09F0FFFF91EF09F0FFFF000EF3
:10131000016E000E026E000E036E000E046E4BEFA7
:101320000BF0FFFF07500102F3CF18F0F4CF19F0D4
:1013300018500E6E0F6A106A116A1950146E156AF1
:10134000166A176A06500202F3CF18F0F4CF19F0AC
:1013500018500E26000E0F221022112219501426AA
:10136000000E15221622172205500302F3CF18F0A3
:10137000F4CF19F018500E26000E0F221022112261
:1013800019501426000E15221622172210C011F033
:101390000FC010F00EC00FF00E6A05500202F3CF1E
:1013A00018F0F4CF19F018500E2619500F22000E25
:1013B0001022000E112206500102F3CF18F0F4CFD4
:1013C00019F018500E2619500F22000E1022000E90
:1013D000112210C011F00FC010F00EC00FF00E6AF5
:1013E00005500102F3CF18F0F4CF19F018500E2673
:1013F00019500F22000E1022000E11220750020277
:10140000F3CF18F0F4CF19F0185014261950152204
:10141000000E1622000E172206500302F3CF18F01A
:10142000F4CF19F01850142619501522000E162268
:10143000000E172207500302F3CF18F0F4CF19F073
:101440001850096E19500A6E0B6A0C6A0BC00CF02A
:101450000AC00BF009C00AF0096A095014260A50A4
:1014600015220B5016220C5017220EC009F00FC087
:101470000AF010C00BF011C00CF0190E46EF0AF084
:10148000FFFFD8900C320B320A320932FFFFE82EF0
:1014900040EF0AF0095014260A5015220B5016226C
:1014A0000C50172210C011F00FC010F00EC00FF03A
:1014B0000E6A125013C009F00A6A0926000E0A22A9
:1014C000820E0924186EFF0E0A20196E81EF0AF0B1
:1014D000FFFFD890143615361636173611AE73EF57
:1014E0000AF076EF0AF0FFFF78EF0AF0FFFF1480B2
:1014F000FFFFD8900E360F36103611361806D8A0DA
:101500001906FFFF16AE87EF0AF08AEF0AF0FFFF19
:1015100068EF0AF0FFFF000E126E11AE92EF0AF0B4
:1015200095EF0AF0FFFFC0EF0AF0FFFFFF0E0E1469
:10153000096EFF0E0F140A6EFF0E10140B6E7F0E55
:1015400011140C6E09500A100B100C10D8B4ABEF2C
:101550000AF0AEEF0AF0FFFFB4EF0AF0FFFFFFFF63
:10156000010E126EC0EF0AF0FFFF14A0BAEF0AF0EE
:10157000BDEF0AF0FFFFC0EF0AF0FFFFAFEF0AF088
:10158000FFFF1250D8B4C7EF0AF0CAEF0AF0FFFF0E
:10159000F1EF0AF0FFFF010E1426000E15221622AD
:1015A000172217A0D6EF0AF0D9EF0AF0FFFFF1EFEC
:1015B0000AF0FFFF14C009F015C00AF016C00BF0C6
:1015C00017C00CF00C340C320B320A32093209C04D
:1015D00014F00AC015F00BC016F00CC017F0184A32
:1015E000192AFFFF19BEFDEF0AF0195009E118286A
:1015F000D8A0FDEF0AF000EF0BF0FFFF0BEF0BF0B0
:10160000FFFF000E146E000E156E800E166E7F0E1C
:10161000176E40EF0BF0FFFF19BE1AEF0BF01950D9
:1016200006E11804D8B017EF0BF01AEF0BF0FFFF2C
:1016300027EF0BF0FFFF000E146E000E156E000E6C
:10164000166E000E176E000E0D6E40EF0BF0FFFFD2
:1016500018C013F0FF0E1416FF0E15167F0E161687
:10166000000E171613A037EF0BF03AEF0BF0FFFF49
:101670003CEF0BF0FFFF168EFFFFD8901330176E74
:10168000FFFF0D50171214C001F015C002F016C074
:1016900003F017C004F0FFFF1200FFFFFFFF6DC053
:1016A0002DF06EC02EF06FC02FF070C030F01BC058
:1016B0002DF01CC02EF01DC02FF01EC030F02DC02C
:1016C0001FF02EC020F02FC021F030C022F0180EE5
:1016D00070EF0BF0FFFFD8902232213220321F3200
:1016E000FFFFE82E6AEF0BF01F50276E286A28BE16
:1016F00083EF0BF028500AE1960E275CD8A083EF09
:101700000BF086EF0BF0FFFF91EF0BF0FFFF1BC01C
:101710001BF01CC01CF01DC01DF01EC01EF03EEFD3
:101720000DF0FFFF2DC01FF02EC020F02FC021F0C4
:1017300030C022F0200EA3EF0BF0FFFFD890223232
:10174000213220321F32FFFFE82E9DEF0BF01F5099
:10175000201021102210D8B4B0EF0BF0B3EF0BF033
:10176000FFFFC6EF0BF0FFFF1BC001F01CC002F033
:101770001DC003F01EC004F081EC11F001C01BF08D
:1017800002C01CF003C01DF004C01EF0FFFF28BE05
:10179000D6EF0BF0285007E17E0E275CD8B0D3EFD0
:1017A0000BF0D6EF0BF0FFFFF3EF0BF0FFFF2DC0B8
:1017B00001F02EC002F02FC003F030C004F0000E84
:1017C000056E000E066E000E076E000E086EFCEC35
:1017D00008F001C01BF002C01CF003C01DF004C0E3
:1017E0001EF03EEF0DF0FFFF000E056E000E066EC0
:1017F000000E076E4B0E086E1BC001F01CC002F0FD
:101800001DC003F01EC004F028EC06F001C029F052
:1018100002C02AF003C02BF004C02CF0000E056EAD
:10182000000E066E000E076ECB0E086E29C001F08A
:101830002AC002F02BC003F02CC004F028EC06F004
:1018400001C023F002C024F003C025F004C026F03C
:1018500023C011F024C012F025C013F026C014F0EC
:101860001BC015F01CC016F01DC017F01EC018F0EC
:101870005CEC11F011C031F012C032F013C033F043
:1018800014C034F0000E0F6E000E106E000E116EBC
:101890003F0E126E31C013F032C014F033C015F099
:1018A00034C016F06CEC0FF0D8B059EF0CF05CEFD0
:1018B0000CF0FFFF93EF0CF0FFFF1BC005F01CC006
:1018C00006F01DC007F01EC008F031C001F032C0A4
:1018D00002F033C003F034C004F028EC06F001C07D
:1018E00029F002C02AF003C02BF004C02CF029C05C
:1018F00001F02AC002F02BC003F02CC004F0000E4F
:10190000056E000E066E800E076EBF0E086E28EC88
:1019100006F001C031F002C032F003C033F004C061
:1019200034F000EF0DF0FFFF000E0F6E000E106E92
:10193000000E116EBF0E126E31C013F032C014F0E3
:1019400033C015F034C016F06CEC0FF0D8A0ABEF3C
:101950000CF0AEEF0CF0FFFFE5EF0CF0FFFF1BC04B
:1019600005F01CC006F01DC007F01EC008F031C015
:1019700001F032C002F033C003F034C004F028ECB0
:1019800006F001C029F002C02AF003C02BF004C009
:101990002CF029C001F02AC002F02BC003F02CC0AB
:1019A00004F0000E056E000E066E800E076E3F0EF0
:1019B000086E28EC06F001C031F002C032F003C01E
:1019C00033F004C034F000EF0DF0FFFF31C001F040
:1019D00032C002F033C003F034C004F01BC005F085
:1019E0001CC006F01DC007F01EC008F028EC06F071
:1019F00001C031F002C032F003C033F004C034F053
:101A0000FFFF2DC01FF02EC020F02FC021F030C0EE
:101A100022F0200E12EF0DF0FFFFD890223221327B
:101A200020321F32FFFFE82E0CEF0DF01F50201068
:101A300021102210D8B41FEF0DF022EF0DF0FFFFA0
:101A400035EF0DF0FFFF31C001F032C002F033C0BE
:101A500003F034C004F081EC11F001C031F002C099
:101A600032F003C033F004C034F0FFFF31C01BF08C
:101A700032C01CF033C01DF034C01EF0FFFF120056
:101A8000FFFFFFFF096E0950D8B449EF0DF04CEF8E
:101A90000DF0FFFF71EF0DF0FFFF04BE55EF0DF0ED
:101AA00052EF0DF0FFFF71EF0DF0FFFF01C005F0E9
:101AB00002C006F003C007F004C008F0051E061EB1
:101AC000071E081E052A000E06220722082205C04E
:101AD0000BF006C00CF007C00DF008C00EF07AEF56
:101AE0000DF0FFFF01C00BF002C00CF003C00DF0C1
:101AF00004C00EF0FFFF0150021003100410D8A420
:101B000084EF0DF087EF0DF0FFFF92EF0DF0FFFF78
:101B1000000E016E000E026E000E036E000E046ECB
:101B20003AEF0EF0FFFF960E0A6E9EEF0DF0FFFFEC
:101B30000A2AD8900E320D320C320B32FFFF000E03
:101B40000B14056E000E0C14066E000E0D14076EBD
:101B5000FE0E0E14086E0550061007100810D8A4CB
:101B6000B4EF0DF0B7EF0DF0FFFF97EF0DF0FFFFB3
:101B7000C7EF0DF0FFFF0A2A010E0B26000E0C2204
:101B80000D220E22D8900E320D320C320B32FFFF96
:101B9000000E0B14056E000E0C14066E000E0D14D4
:101BA000076EFF0E0E14086E055006100710081081
:101BB000D8A4DDEF0DF0E0EF0DF0FFFFBAEF0DF070
:101BC000FFFFEAEF0DF0FFFF0A06D8900B360C3648
:101BD0000D360E36FFFF0DBEF0EF0DF0F3EF0DF0FA
:101BE000FFFFFDEF0DF0FFFF020E0A60FAEF0DF0B0
:101BF000FDEF0DF0FFFFE3EF0DF0FFFF0AB003EF85
:101C00000EF006EF0EF0FFFF08EF0EF0FFFF0D9E47
:101C1000FFFFD8900A320AC005F0066A076A086A10
:101C200005C008F0076A066A056A05500B120650DF
:101C30000C1207500D1208500E120950D8B423EFA1
:101C40000EF026EF0EF0FFFF31EF0EF0FFFF04BEA7
:101C50002FEF0EF02CEF0EF0FFFF31EF0EF0FFFF35
:101C60000E8EFFFF0BC001F00CC002F00DC003F0A0
:101C70000EC004F0FFFF1200FFFFFFFF37343834BF
:101C80003E6E3E50D8A447EF0EF04AEF0EF0FFFF35
:101C900056EF0EF0FFFFFFFF000E356E000E366EA2
:101CA000000E376E000E386ED5EF0EF0FFFF35C018
:101CB00039F036C03AF037C03BF038C03CF0200E67
:101CC00068EF0EF0FFFFD8903C323B323A323932A7
:101CD000FFFFE82E62EF0EF039503D6E378EFF0E9B
:101CE0003516FF0E3616FF0E3716000E3816960EF6
:101CF0003E5E3EBE81EF0EF07EEF0EF0FFFF9BEFEB
:101D00000EF0FFFF3E50800A970FD8B08AEF0EF01A
:101D10008DEF0EF0FFFF90EF0EF0FFFF4BEF0EF098
:101D2000FFFFD89038323732363235323E3E90EFB0
:101D30000EF0B9EF0EF0FFFF1F0E3E64A2EF0EF0A3
:101D4000A5EF0EF0FFFFAFEF0EF0FFFF4BEF0EF031
:101D5000FFFFD89035363636373638363E06FFFF29
:101D60003E50D8A4B6EF0EF0B9EF0EF0FFFFA8EF8B
:101D70000EF0FFFF3D50D8B4C0EF0EF0C3EF0EF0F1
:101D8000FFFFCCEF0EF0FFFF381E371E361E356CFE
:101D9000000E362237223822FFFF35C035F036C01C
:101DA00036F037C037F038C038F0FFFF1200FFFFC1
:101DB000FFFF200E406EF4EC11F0A2EC11F015ECD8
:101DC00012F0F28E000E426E000E416EFFFF0BEC21
:101DD00003F0414A422A42BEF7EF0EF042500AE1B8
:101DE000020E415CD8A0F7EF0EF0FAEF0EF0FFFF05
:101DF000E6EF0EF0FFFFFFFF7150D8B402EF0FF0D7
:101E000005EF0FF0FFFFFBEF0EF0FFFFAECF3FF04F
:101E10003F5005EC12F00D0E05EC12F00A0E05EC29
:101E200012F0480E05EC12F0650E05EC12F06C0E87
:101E300005EC12F06C0E05EC12F06F0E05EC12F0D2
:101E4000200E05EC12F0570E05EC12F06F0E05ECAB
:101E500012F0720E05EC12F06C0E05EC12F0640E2E
:101E600005EC12F0210E05EC12F00D0E05EC12F04F
:101E70000A0E05EC12F0000E446E000E436E4FEF9A
:101E80000FF0FFFF450E4324D96E000E4420DA6E9A
:101E9000DF50406E405005EC12F0434A442AFFFFE9
:101EA00044BE5CEF0FF044500AE11E0E435CD8A024
:101EB0005CEF0FF05FEF0FF0FFFF41EF0FF0FFFF60
:101EC0000D0E05EC12F00A0E05EC12F0000E716E0C
:101ED000FBEF0EF01FEF00F0FFFF000E0F14176E68
:101EE000000E1014186E800E1114196E7F0E12144D
:101EF0001A6E1750181019101A10D8A482EF0FF08C
:101F000085EF0FF0FFFF8EEF0FF0FFFF000E0F6E5B
:101F1000000E106E000E116E000E126EFFFF000E0E
:101F20001314176E000E1414186E800E1514196E0B
:101F30007F0E16141A6E1750181019101A10D8A404
:101F4000A4EF0FF0A7EF0FF0FFFFB0EF0FF0FFFFD0
:101F5000000E136E000E146E000E156E000E166E3F
:101F6000FFFF12AEB6EF0FF0B9EF0FF0FFFFC3EFB8
:101F70000FF0FFFF0F6C101ED8B0102A111ED8B042
:101F8000112A800E1256FFFF16AEC9EF0FF0CCEFEC
:101F90000FF0FFFFD6EF0FF0FFFF136C141ED8B049
:101FA000142A151ED8B0152A800E1656FFFF000EF3
:101FB0000F1A000E101A000E111A800E121A000EBF
:101FC000131A000E141A000E151A800E161A13504A
:101FD0000F5C145010581550115816501258D8B0A4
:101FE000F4EF0FF0F7EF0FF0FFFFFBEF0FF0FFFF45
:101FF000D890FDEF0FF0FFFFD880FFFF1200FFFF2A
:10200000FFFF076E0704D8A408EF10F00BEF10F0E5
:10201000FFFF34EF10F0FFFF300E816E000E026EF6
:10202000010E016E2EEC11F0600E816E000E026E3C
:10203000010E016E2EEC11F0C00E816E000E026ECC
:10204000010E016E2EEC11F0900E816E000E026EEC
:10205000010E016E2EEC11F0300E816E000E026E3C
:10206000010E016E2EEC11F0FFFF0750D8A43BEFDC
:1020700010F03EEF10F0FFFF67EF10F0FFFF900E43
:10208000816E000E026E010E016E2EEC11F0C00E7C
:10209000816E000E026E010E016E2EEC11F0600ECC
:1020A000816E000E026E010E016E2EEC11F0300EEC
:1020B000816E000E026E010E016E2EEC11F0900E7C
:1020C000816E000E026E010E016E2EEC11F0FFFF0C
:1020D0001200FFFFFFFF076E0704D8A472EF10F095
:1020E00075EF10F0FFFF9EEF10F0FFFF030E816E03
:1020F000000E026E010E016E2EEC11F0060E816EC6
:10210000000E026E010E016E2EEC11F00C0E816EAF
:10211000000E026E010E016E2EEC11F0090E816EA2
:10212000000E026E010E016E2EEC11F0030E816E98
:10213000000E026E010E016E2EEC11F0FFFF075033
:10214000D8A4A5EF10F0A8EF10F0FFFFD1EF10F02A
:10215000FFFF090E816E000E026E010E016E2EEC65
:1021600011F00C0E816E000E026E010E016E2EEC4F
:1021700011F0060E816E000E026E010E016E2EEC45
:1021800011F0030E816E000E026E010E016E2EEC38
:1021900011F0090E816E000E026E010E016E2EEC22
:1021A00011F0FFFF1200FFFFFFFF076E0704D8A426
:1021B000DCEF10F0DFEF10F0FFFF00EF11F0FFFF9A
:1021C000300E836E000E026E010E016E2EEC11F0C9
:1021D000C00E836E000E026E010E016E2EEC11F029
:1021E000900E836E000E026E010E016E2EEC11F049
:1021F000300E836E000E026E010E016E2EEC11F099
:10220000FFFF0750D8A407EF11F00AEF11F0FFFF0E
:102210002BEF11F0FFFF900E836E000E026E010E89
:10222000016E2EEC11F0600E836E000E026E010E38
:10223000016E2EEC11F0300E836E000E026E010E58
:10224000016E2EEC11F0900E836E000E026E010EE8
:10225000016E2EEC11F0FFFF1200FFFFFFFF000EDA
:10226000046E000E036E4CEF11F0FFFF000E066EC1
:10227000000E056EFFFF054A062A720E055C060E6B
:102280000658D8A046EF11F049EF11F0FFFF3AEFE2
:1022900011F0FFFF034A042AFFFF0150035C0250C4
:1022A0000458D8A056EF11F059EF11F0FFFF35EFA9
:1022B00011F0FFFF1200FFFFFFFF000E151A000EC6
:1022C000161A000E171A800E181A11C001F012C04B
:1022D00002F013C003F014C004F015C005F016C0DE
:1022E00006F017C007F018C008F028EC06F001C08F
:1022F00011F002C012F003C013F004C014F0120079
:10230000FFFFFFFF0150021003100410D8B48BEF41
:1023100011F08EEF11F0FFFF97EF11F0FFFF000EAD
:10232000011A000E021A000E031A800E041AFFFF93
:1023300001C001F002C002F003C003F004C004F0C9
:102340001200FFFFFFFF550E1B6E550E1C6EC80ED0
:102350001D6E410E1E6E4EEC0BF01BC035F01CC006
:1023600036F01DC037F01EC038F03DEC0EF0355091
:10237000AF6EAC9CAC8AAC98AC84AB8EAB9CAB889B
:102380001200FFFFC00EF66E230EF76E000EF86E01
:1023900000EE45F010EE28F00900F5CFEEFFE55015
:1023A000E150FAE1716A706A6F6A6E6A6D6A7290E2
:1023B0007292000EF86E060EF76E0001D8EF0EF066
:1023C00054686973206973207072656D2074657339
:1023D0007420636173650000000000000000BD37D9
:1023E0008634BD3786341E00FFFF000E936E000E4C
:1023F000956E0F0E816E0F0E836E000E8B6E000EAB
:10240000826E948E949C1200FFFFFFFF016E01C04C
:10241000ADFFFFFFACA20FEF12F012EF12F0FFFFC3
:1024200009EF12F0FFFF1200FFFFFFFF9E9A9D8A47
:08243000F28C1200FFFFFFFF18
:020000040020DA
:08000000FFFFFFFFFFFFFFFF00
:020000040030CA
:0E000000FF210D0EFF0080FF0FC00FE00F402C
:00000001FF
